:020000021000EC
:10000000E03F082095010100FB000100E100010034
:10001000090101001901010029010100000000008F
:100020000000000000000000000000005115010069
:100030003901010000000000B11501005901010063
:100040005DBB01005DBB01005DBB01005DBB01004C
:100050005DBB01005DBB01005DBB01005DBB01003C
:100060005DBB01005DBB01005DBB01005DBB01002C
:100070005DBB01005DBB01005DBB01005DBB01001C
:100080005DBB01005DBB01005DBB01005DBB01000C
:100090005DBB01005DBB01005DBB01005DBB0100FC
:1000A0005DBB01005DBB01005DBB01005DBB0100EC
:1000B0005DBB01005DBB01005DBB01005DBB0100DC
:1000C0005DBB01005DBB01005DBB010004B9020026
:1000D00000C00720FC02000000C30720F00400005D
:1000E00004207146084203D0EFF309800BF054BDA1
:1000F000EFF308800BF050BD704708B5014809F0D8
:1001000037FDFEE72D75020008B5024809F030FD05
:10011000FEE700BF3875020008B5024809F028FD67
:10012000FEE700BF4375020008B5024809F020FD54
:10013000FEE700BF4E75020008B5024809F018FD41
:10014000FEE700BF5B75020008B5024809F010FD2C
:10015000FEE700BF6975020008B501F051F901F032
:1001600049FABDE8084001F05FB90B4610B5401AE6
:100170005C1AA24203D9C45843F8044BF8E710BDF7
:100180000346002210B51C1AA14202D943F8042BE1
:10019000F9E710BD15480BF069FD14480BF069FD37
:1001A000134C144DAC4209D3134DAC420ED254F84B
:1001B000080B54F8041CFFF7E3FFF6E794E803008C
:1001C0000C3454F8042CFFF7D0FFEBE70DF032FFAE
:1001D0000BF014FF02F0AAFF0CF036F94FF41640B2
:1001E0000CF020F8054809F0C3FCFEE7E03F0820CA
:1001F000CC000100D8000100E00001007D75020084
:1002000030BF704710B50C46094809F0B1FC2046D4
:1002100009F0AEFC074809F0ABFC074809F0B0FF55
:100220004FF08043AA221A7200221A7010BD00BF3C
:100230007E4B0200A74B0200C0C62D0008B5064841
:1002400009F096FC054809F09BFF4FF08043AA2275
:100250001A7200221A7008BD484B0200C0C62D0059
:1002600070B51546026C0446866B42B905689DB9A7
:10027000406801F04DF865600136A66370BD6DB948
:1002800080680EF0A6F8A368226C13446268A3602D
:10029000934201D32368A3600020EDE7C0680EF00D
:1002A00098F8236CE2685B4221681A448A42E26053
:1002B0003EBF62689B18E360022DEDD10EB1013E96
:1002C000EAE73046D8E773B5856C0A46EB6BA96B55
:1002D000019099421AD201A9284695F84540FFF7A6
:1002E000BFFF64B2631C06460BD16B6A33B105F1E4
:1002F000240000F07BFE002818BF0126304602B023
:1003000070BD013464B285F84540F7E70026F5E793
:1003100003461A6C10B4084662B1D9685C6811448F
:10032000A142D96028BF196810BC28BFD960D9681C
:100330000EF04FB810BC704770B5044601F01CF9C0
:1003400094F8455004F124066DB2002D14DCFF230F
:1003500084F8453001F020F901F00EF994F844508A
:1003600004F110066DB2002D19DCFF2384F844302F
:10037000BDE8704001F010B9A36C4BB100212046DC
:10038000FFF7A1FF08B100F09BFE013D6DB2DCE775
:10039000636A002BDBD0304600F028FEF2E72369C9
:1003A000002BE2D0304600F021FE08B100F088FEBC
:1003B000013D6DB2D7E7FFFF38B504460D4601F0A9
:1003C000DBF8206CE36B22684343D1181B1A1344FB
:1003D0006160E3600021FF23A163A26084F84430E0
:1003E00084F8453095B9236963B104F1100000F039
:1003F000FDFD38B14FF08052094B1A60BFF34F8FAB
:10040000BFF36F8F01F0C8F8012038BD04F1100070
:1004100001F012F804F1240001F00EF8F2E700BF39
:1004200004ED00E070B5064648434C300D4601F03F
:1004300044F8044648B155B92060E66325640121BB
:100440002046FFF7B9FF0023A364204670BD00F1EA
:100450004C030360F1E710B502220C460021FFF7C0
:10046000E1FF00B1846310BD2DE9FF47002704467A
:1004700089461E46B846DFF8F0A0019201F07CF8EC
:10048000A26BE36B9A4201D3022E21D13246494638
:100490002046FFF7E5FEA36C93B131462046FFF7F7
:1004A00012FF38B14FF080522F4B1A60BFF34F8FBD
:1004B000BFF36F8F01F070F8012004B0BDE8F08742
:1004C000636A002BEDD004F1240000F08FFDE8E713
:1004D000019D1DB901F060F80020EEE717B902A8F0
:1004E00000F0BCFD01F058F800F06CFB01F044F89E
:1004F00094F84430FF2B08BF84F8448094F84530CA
:10050000FF2B08BF84F8458001F046F801A902A836
:1005100000F0B0FD10BB01F02FF8A76BE56B01F008
:100520003BF8AF4214D1019904F1100000F04EFDE8
:100530002046FFF701FF00F0E5FB38B94FF080538C
:10054000CAF80030BFF34F8FBFF36F8F012795E7D5
:100550002046FFF7F1FE00F0D5FBF7E72046FFF756
:10056000EBFE00F0CFFBB7E704ED00E010B502466C
:1005700000210120FFF756FF044638B100234360F5
:100580000360C3601A461946FFF76EFF204610BD90
:100590002DE9F041044690461F46EFF311864FF0D7
:1005A000100383F31188BFF36F8FBFF34F8F826BFC
:1005B000C36B9A4201D3022F28D194F845503A4692
:1005C0006DB22046FFF74CFE6B1C1AD1A36C83B1B1
:1005D00039462046FFF777FE08B9012005E0B8F15B
:1005E000000FFAD00120C8F8000086F31188BDE89A
:1005F000F081636A002BF0D004F1240000F0F6FCD7
:10060000EAE701356DB284F84550E6E70020ECE7F3
:1006100038B50D46EFF311844FF0100282F31188C4
:10062000BFF36F8FBFF34F8F816BC26B914221D2AB
:1006300090F84520013152B28163511C15D1826C72
:1006400062B10021FFF73FFE08B9012003E0002D51
:10065000FBD00120286084F3118838BD426A002A4B
:10066000F3D0243000F0C2FCEEE7013252B280F841
:100670004520EAE70020EEE72DE9FF474FF0000AAA
:1006800004460F4698465646DFF81C91019200F04A
:1006900073FFA56B55B339462046E668FFF738FE71
:1006A000B8F1000F1BD12368013DA56313B900F019
:1006B00067FE6060236963B104F1100000F096FCEE
:1006C00038B14FF08052384B1A60BFF34F8FBFF3F1
:1006D0006F8F00F061FF012004B0BDE8F087636A0E
:1006E000E660002BF5D004F12400E7E7019D1DB979
:1006F00000F052FF2846EFE7BAF1000F02D102A83E
:1007000000F0ACFC00F048FF00F05CFA00F034FFB1
:1007100094F84430FF2B08BF84F8446094F84530C7
:10072000FF2B08BF84F8456000F036FF01A902A83E
:1007300000F0A0FC50BB00F01FFFA56B00F02CFFE9
:10074000F5B9236833B900F017FF606800F098FD31
:1007500000F022FF019904F1240000F037FC20464C
:10076000FFF7EAFD00F0CEFA38B94FF08053C9F830
:100770000030BFF34F8FBFF36F8F4FF0010A86E752
:100780002046FFF7D9FD00F0BDFAF6E72046FFF757
:10079000D3FD00F0B7FA00F0EFFEA56B00F0FCFE11
:1007A000002DEAD1A6E700BF04ED00E02DE9F041FD
:1007B00007469046EFF311864FF0100383F311883C
:1007C000BFF36F8FBFF34F8F846B0CB390F844501F
:1007D000013C6DB2FFF79CFD6B1CBC6313D13B6900
:1007E0000BB901200BE007F1100000F0FFFB00281F
:1007F000F7D0B8F1000FF4D00120C8F8000086F35C
:100800001188BDE8F08101356DB287F84450E8E702
:100810002046F4E710B5044600F0AEFEA46B00F0ED
:10082000BBFE204610BD806B7047002313B502ACA1
:1008300044F8043D0A462146FFF71EFF019802B026
:1008400010BD30B50025436800F108015B688B429C
:10085000436004BFC36843604368DC685B689942D7
:1008600008BFC368DA689442D564F7D1436030BDED
:100870004FF0805608B5064C064D2368012B04D96D
:100880002E60BFF34F8FBFF36F8FFFF7B9FCF4E714
:100890000CC3072004ED00E0064A13681968064BF4
:1008A00019B94FF0FF321A6070471268D268D268E7
:1008B0005268F8E704C3072018C40720F8B51B4B9B
:1008C0001B4E1D68044630680F46043000F0E5FDFD
:1008D000334640B901203168164EC96A32688840F3
:1008E00022EA00023260621C07D137B1196812484F
:1008F0000431BDE8F84000F0ADBD2C441A68A542B3
:10090000546007D90D4A10681968BDE8F8400431F1
:1009100000F0ACBD0A4A10681968043100F0A6FD69
:10092000084B1A68944238BF1C60F8BD4CC40720BD
:1009300000C30720E8C3072038C4072008C30720E6
:1009400004C3072018C407202DE9F84F4FEA820A94
:10095000804650460D4699460B9E00F0AEFD074678
:10096000002800F09B80582000F0A7FD04460028D6
:1009700000F0918052460763A52138460DF04EFDE8
:10098000236BAAF1040A9A442AF0070A6B1E04F1A9
:1009900034020735597802F8011B13F8011F09B119
:1009A000AB42F7D10A9D4FF0000B092D28BF092556
:1009B000271DE5626564384684F83BB0C4F848B04A
:1009C00000F045FDC5F10A0504F1180000F03FFDF7
:1009D000C4F850B02461A5616462C4F84CB084F8D6
:1009E00054B04A464146504600F09CFD206006B196
:1009F000346000F0C1FD304B304E1A68DFF8E480FF
:100A000001321A603568002D4BD134601B68012B10
:100A10001AD108EB0500143500F00EFDC82DF8D1F1
:100A2000DFF8C490264D484600F006FD284600F049
:100A300003FD244800F000FD234800F0FDFC234B9B
:100A4000C3F80090224B1D600125224A22491368F9
:100A5000086801331360E26A05FA02F303431420C5
:100A60000B6000FB0280394600F0F4FC00F094FDBE
:100A70001A4B1B6863B13368DA6AE36A9A4207D299
:100A80004FF08052164B1A60BFF34F8FBFF36F8F3A
:100A90002846BDE8F88F384600F01EFD4FF0FF35C0
:100AA000F6E70E4B1B68002BCED13368DA6AE36A97
:100AB0009A4298BF3460C7E7D8C3072000C3072015
:100AC00000C4072020C4072038C4072004C307201F
:100AD00008C30720E4C30720E8C3072034C4072065
:100AE00004ED00E00CC30720ECC3072038B5104B21
:100AF00004461B68984215D000F03EFD656900F081
:100B00004BFD0C4B1B689D420ED00B4B1B689D424E
:100B10000AD00A4B9D4209D1A36A002B14BF0220C0
:100B2000032038BD002038BD022038BD012038BD6B
:100B300000C3072004C3072008C3072038C40720C8
:100B400013B50024114B00940193802223461049D1
:100B50001048FFF7F9FE012816D14FF0100383F378
:100B60001188BFF36F8FBFF34F8F4FF0FF320A4BE7
:100B70001A600A4B18600A4B1C6000F073FD02B04B
:100B8000BDE8104000F056BD02B010BD14C40720EF
:100B9000D34B02007108010018C4072034C4072099
:100BA0004CC407204FF0100383F31188BFF36F8FFD
:100BB000BFF34F8F0022024B1A6000F0DBBC00BF76
:100BC00034C40720024A136801331360704700BF22
:100BD000E0C30720014B1868704700BF4CC40720D2
:100BE000014B1868704700BF4CC40720014B1868C0
:100BF000704700BFD8C307202DE9F84F364B1B685C
:100C0000002B47D1354B1C6801341C605CB9344A59
:100C1000344B116818681060334A19601368013347
:100C20001360FFF739FE314D4FF0000B2B68304F4A
:100C30009C423ED3DFF8A880DFF8C490D8F80020AB
:100C4000126872BB4FF0FF322A6032E006F1040AEC
:100C5000504600F022FCB16A19B106F1180000F00C
:100C60001CFC01224FF0140EF06AD9F8003002FA91
:100C700000F119431F4BC9F800100EFB003051461C
:100C800000F0E8FB3868F16AC26A914228BF4FF071
:100C9000010BD3E7184A4FF0000B136801331360C0
:100CA00011E0D8F80020D268D66871688C42CDD2A5
:100CB00029603A680F4BD16A14224A439A58022A93
:100CC00028BF4FF0010B0D4A1268002A18BF4FF0E1
:100CD000010B5846BDE8F88FE0C307204CC407203D
:100CE00004C3072008C307201CC4072018C407201A
:100CF00000C307200CC30720DCC3072050C4072013
:100D0000E8C307202DE9F84300F036FC2A4B1A68A7
:100D1000013A1A601C682CB1002400F03DFC20460A
:100D2000BDE8F883254B1B68002BF5D0DFF8A490B5
:100D3000234FDFF8A480D9F80030E3B90CB1FFF7F6
:100D4000ABFD204D2C6844B101271F4EFFF754FF27
:100D500000B13760013CF9D12C601B4B1B68002BA4
:100D6000DAD04FF08052194B1A60BFF34F8FBFF3A8
:100D70006F8F0124D1E7D9F80C300125DC68261DDE
:100D800004F1180000F089FB304600F086FB1420C7
:100D9000E26A396805FA02F30B4300FB0280314630
:100DA0003B6000F057FB0A4BE26A1B68DB6A9A4221
:100DB00024BF054B1D60BEE7E0C30720D8C3072052
:100DC000E8C30720DCC3072050C4072004ED00E07F
:100DD00000C3072020C407200CC3072010B5FFF76D
:100DE000F1FE124B04681A686318A24217D29C42A3
:100DF00019D99A422CBF00210121036019B10021A9
:100E0000981AFFF75BFDFFF77DFF38B94FF080526E
:100E1000074B1A60BFF34F8FBFF36F8F10BD9C421B
:100E2000E7D90121E9E70021E7E700BF4CC407202B
:100E300004ED00E008B540B94FF08052084B1A604D
:100E4000BFF34F8FBFF36F8F08BDFFF7BBFE0021CD
:100E5000FFF734FDFFF756FF0028EDD008BD00BFB7
:100E600004ED00E0264B70B51A68264B12B1012242
:100E70001A6070BD1A6000F0FFFB234A234C15680E
:100E8000A84204D92168CB6C5B1B0344CB64236864
:100E900010601B6B1A68B2F1A53F0BD15A68B2F112
:100EA000A53F07D19A68B2F1A53F03D1DB68B3F142
:100EB000A53F04D0206821683431FFF7A3F9144B13
:100EC0001B68B3FA83F31420DBB2C3F11F0300FBEA
:100ED00003F210498D186E68083276680A4496420B
:100EE00000FB031308BF72686E6008BF6A605B682E
:100EF000DB68236023685A6B074B5A6470BD00BFE0
:100F0000E0C3072050C40720D4C3072000C3072034
:100F1000E8C307200CC307200040024070B5044618
:100F2000234E00F029FB04B93468251D284600F043
:100F3000B4FA60B91421E06A1E4B41435B5833B9DF
:100F400001221D4982400B6823EA02030B60A36A59
:100F50001BB104F1180000F0A0FA2946174D1848FB
:100F600000F078FA00F018FB2A682AB100F004FBC0
:100F7000FFF792FC00F010FB33689C4216D12B68FF
:100F800043B14FF080520F4B1A60BFF34F8FBFF346
:100F90006F8F70BD0C4A0A4912680968914201D1ED
:100FA000336070BDBDE87040FFF75CBF70BD00BF2F
:100FB00000C307200CC30720E8C3072034C4072060
:100FC00038C4072004ED00E0D8C3072010B50C4654
:100FD000054B1968183100F049FA2046BDE8104069
:100FE0000121FFF76BBC00BF00C3072038B5C36801
:100FF000DC6804F11805284600F04FFA114B1B6815
:10100000E3B9251D284600F048FA01230E49E26A9B
:1010100008689340034314200B6029460B4B00FBE8
:10102000023000F017FA0A4BE26A1B68DB6A9A4248
:1010300085BF0120074B0020186038BD29460648AF
:10104000EFE700BFE0C30720E8C307200CC3072079
:1010500000C3072050C4072020C40720034B1B688F
:101060000360034B1B684360704700BF1CC407202C
:101070004CC4072038B50D46044600F07DFA0E4BEF
:101080002A681868531C10D00C4B21681B689942C1
:10109000636801D098420DD2C11A8A420AD91B1A3C
:1010A00013442B602046FFF7D9FF002400F074FAA8
:1010B000204638BD0124F9E74CC407201CC4072092
:1010C0000122014B1A60704750C407202DE9F041FE
:1010D0000C4617469846064658BB1B4B1D6805F143
:1010E00034036360EB6A256023612B6BE361EB6B78
:1010F000A360237B032B07D1FFF764FDAB6A0BB121
:1011000002232373FFF7FEFD6B6CB8F1050F6361DB
:10111000EB6CA3610FD084F80C808FB1296B0A4669
:10112000531A12F8010BA528FAD09B082384BDE8B6
:10113000F0810546D3E73046FFF7D8FC2073ECE793
:101140002784BDE8F08100BF00C307202DE9F84FD8
:101150000D6881460C4693461DB300254FF0240AC6
:101160004B6801F108075B68BB424B6004BFCB686A
:101170004B604B68D3F80C8063680AFB05915B6891
:1011800001229F42636008BFE36805F1010508BFC3
:1011900063606368DE685B463046FFF797FFB045E3
:1011A000EAD12846BDE8F88F2DE9F8430646904677
:1011B000FFF708FD1D4B1B688B4234D80025242700
:1011C0002C46DFF8789005F1B40107FB046001229A
:1011D0004944FFF7BBFF143D15F1C80F0444F2D199
:1011E000134B0222196807FB0460FFF7AFFF114B96
:1011F00004441968022207FB0460FFF7A7FF0444B8
:1012000007FB046003220C49FFF7A0FF0444B8F178
:10121000000F03D000F030FAC8F80000FFF772FDAD
:101220002046BDE8F8830024F8E700BFD8C30720B4
:1012300004C3072008C3072038C407200CC30720B5
:1012400008B9064B1868026B1346981A13F8011B6D
:10125000A529FAD0C0F38F00704700BF00C3072054
:10126000054B1B6833B1054B1B68002B0CBF0220DC
:10127000002070470120704734C40720E0C30720D6
:101280002DE9F0410446002839D01E4DC36A2A6872
:10129000D26A934233D2142782691B4E002AA8BF18
:1012A0002A6807FB0363A2BFD26AC2F10A02826105
:1012B00042699A4220D100F10408404600F0EDF85E
:1012C000124A48B9E06A4743F3592BB90121136820
:1012D000814023EA010313602B681168D86A012357
:1012E00083400B4313601423E062414603FB00601C
:1012F000BDE8F04100F0AEB82B68DB6AC362BDE820
:10130000F08100BF00C307200CC30720E8C30720FB
:10131000F8B5044608B90020F8BD836CC16A426C78
:10132000013B91428364F6D0002BF4D1051D284681
:1013300000F0B3F8104E114A50B91421E76A79430E
:1013400073582BB901201368B84023EA00031360D7
:10135000636CC3F10A01E362A1610124116804FA1C
:1013600003F0084310601420294600FB036000F0DE
:1013700071F82046F8BD00BF0CC30720E8C3072062
:10138000044B1A681AB119688A6C01328A641868A9
:10139000704700BF00C3072038B5FFF713FCB42423
:1013A000124D635913B12819FFF74BFA143C14F18D
:1013B000140FF6D10E4B1A68126812B11868FFF7B5
:1013C00040FA0C4B1A68126812B11868FFF739FA24
:1013D000094803680BB1FFF734FA0022074B1A6083
:1013E00000F054F9BDE83840FFF78CBC0CC307206F
:1013F00004C3072008C3072038C40720D4C307202C
:1014000010B500F039F9064B064A196829B1196878
:101410001468CB6C1B1B0344CB64106010BD00BF71
:1014200000C30720D4C3072008B500F025F9014BFD
:10143000186008BDD4C3072000F1080343604FF0D3
:10144000FF32C360036100238260036070470023A2
:101450000361704743689A684B608A609A6851607C
:101460009960036808610133036070470A6830B50A
:10147000531C0AD103695A684A6091608B605960B5
:10148000036808610133036030BD00F108035C6844
:101490002568AA42EFD32346F9E7416882680369C9
:1014A0008A60826851605968884208BF5A60002289
:1014B0000261186801381860704710B50446FFF7DC
:1014C00081FB20460CF046FF0446FFF71BFC0CB9DD
:1014D000FEF7B4FE204610BD10B5044640B1FFF73C
:1014E00071FB20460CF03EFFBDE81040FFF70ABC40
:1014F00010BD4FF0100383F31188BFF36F8FBFF35C
:101500004F8FFEE706480068006880F3088862B6DF
:1015100061B6BFF34F8FBFF36F8F00DF00BF0000D6
:1015200008ED00E04FF0807340F8043C054B21F0DB
:10153000010140F8081C40F80C3C40F8202C4038D1
:10154000704700BFF3140100FFFFFFFFFFFFFFFF25
:10155000074B19680868B0E8F00F80F30988BFF3FB
:101560006F8F4FF0000080F311884EF00D0E704722
:1015700000C307207047FFFF4FF0100383F311886B
:10158000BFF36F8FBFF34F8F024A136801331360AD
:10159000704700BF54C40720034A1368013B13601F
:1015A0000BB983F31188704754C40720FFFFFFFF76
:1015B000EFF30980BFF36F8F0D4B1A6820E9F00F2E
:1015C00010602DE908404FF0100080F31188FFF7FC
:1015D00049FC4FF0000080F31188BDE8084019680D
:1015E0000868B0E8F00F80F30988BFF36F8F704789
:1015F00000C3072008B54FF0100383F31188BFF331
:101600006F8FBFF34F8FFFF7F7FA18B14FF080528B
:10161000024B1A60002383F3118808BD04ED00E03B
:101620004BF67F32024B1A60072243F8042C7047B6
:1016300014E000E008B5094B1A6842F478021A6019
:101640001A6842F078421A60FFF7EAFF0022044B62
:101650001A60FFF757FFFFF74CFF00BF20ED00E0D7
:1016600054C4072008B50AF029FC024BC3E9000165
:1016700008BD00BF58C4072008B50AF01FFC024B84
:101680001B68C01A08BD00BF58C4072008B50AF07F
:1016900015FC024BC3E9000108BD00BF58C4072078
:1016A00010B50A4C23681BB90120FEF75FFF2060CC
:1016B000FFF7D6FD022808D1002320684FF0FF3243
:1016C000BDE810401946FEF7D7BF10BD60C4072023
:1016D00010B5FFF7C5FD022808D1BDE81040002372
:1016E00003481A4619460068FEF7BEBE10BD00BF8B
:1016F00060C4072008B5044B1B689847034A137A57
:1017000043F00103137208BD64C4072000000B40BE
:101710001FB50446054B0DF1100E0FCB0EE90F005F
:101720000EEB840454F8100C04B010BDD84B02002A
:10173000F7B50F460646FFF7EBFF172301241622E5
:1017400002218DF803308DF8073002AB1E448DF86E
:1017500002208DF801108DF8004005468DF8051027
:1017600016F8080C21468DF806208DF804400AF082
:101770003FFA214616F8040C0AF054FA0023AB6035
:101780006C602B670AF01CFB034BB0FBF3F0474384
:10179000EF6003B0F0BD00BF40420F0070B50546DA
:1017A0000E4614460CB12B6803B970BD2268134273
:1017B00008D06368984722682B6823EA02032B60ED
:1017C00023683360A468EDE7F8B5012484400F4630
:1017D00016461D4610D079B10C200CF0BBFD58B157
:1017E0004FF40012336880E8900083602B6830600B
:1017F0001C43024B2C601A60F8BD00BF00E100E002
:101800001FB5184C1849636868460093A368019394
:10181000636A0293A36A0393144B1A68FFF7BEFF2F
:10182000134B11491A6801A8FFF7B8FF114B124971
:101830001A6802A8FFF7B2FF104B0F491A6803A8F5
:10184000FFF7ACFF009B0BB9019B13B14FF0FF33C7
:10185000E360029B0BB9039B13B14FF0FF33E362CC
:1018600004B010BD808002408C8002406CC4072010
:1018700068C4072074C40720AC80024070C40720ED
:1018800010B414460029064A0649074B18BF1346F0
:10189000064A18BF0A46214610BCFFF795BF00BF95
:1018A0009480024068C40720908002406CC40720E6
:1018B00010B50446024B036000F0A0FE204610BDA8
:1018C000EC4D020010B50446FFF7F2FF20462C2134
:1018D0000AF0D1FE204610BD10B50446034900F0C1
:1018E0009BFF034B2046236010BD00BF00C0094092
:1018F0003C4C020038B5074C236833B92C2001F06A
:101900002FF80546FFF7E8FF25602068BDE838405E
:1019100000F022BF78C40720F0B587B06C460F4DA9
:10192000074695E807008DE8070003AE95E8070035
:1019300086E807000C22314620460CF03BFD38B902
:1019400003CC386020687960B860384607B0F0BDD5
:1019500095E8070084E80700E8E700BF144002406C
:101960000022184B1A720278C2F3050283F8202075
:101970004278C2F3050283F824208278C2F304027D
:1019800083F82820C278C2F3020283F8302002795B
:10199000C2F3040283F82C204279C2F3030283F8D5
:1019A0003820C179827901F00F0142EA0122417A9F
:1019B0009A87027A01F00F0142EA01229A860122F7
:1019C0001A727047004002401FB5012109200AF039
:1019D0000FF901222F4B01A81A72FFF79DFFBDF8E6
:1019E0000A3003F62603C3F30B030F2B1ED89DF812
:1019F000053003F03F033B2B18DC9DF8043003F067
:101A00003F033B2B12DC9DF8063003F01F03172B1E
:101A10000CDCBDF80C30C3F30B03B3F5B77F05DA6C
:101A20009DF8093003F00F030C2B2FDD01229DF8E8
:101A3000083001A862F304038DF808309DF80930DE
:101A400062F3030340F2DA728DF80930BDF80A3010
:101A500062F30B03ADF80A309DF807306FF3020311
:101A60008DF807309DF806306FF304038DF80630CB
:101A70009DF805306FF305038DF805309DF80430AF
:101A80006FF305038DF80430FFF76AFF05B05DF8CA
:101A900004FB00BF0040024007B501A80FF0C8F9E1
:101AA00001A80BF0DDFE03B05DF804FB70B5184B28
:101AB0000E465C69174B05461A6C1A2022F4700218
:101AC0001A641A6C04F4406442F420021A64996E99
:101AD00041F440619966196821F470011960196830
:101AE00041F42001196003210AF09CF80AF068F91A
:101AF000B4F5406F06D13246C1082846BDE87040B3
:101B000000F0E4BB0123002085F8053170BD00BF63
:101B100000C0092000C0024010B50446024900F090
:101B2000A7FB204610BD00BF00000A4038B5084C96
:101B300023683BB94FF4947000F012FF0546FFF79D
:101B4000EBFF25602068BDE8384000F0A3BC00BF73
:101B50007CC4072070B590F853508AB0044605B98C
:101B6000457C284607F050FC002294F8523084F857
:101B7000522094F8542006460092012104F13A02C2
:101B8000284607F06FFA044670B1314602A807F004
:101B9000C1FF48B19DF80C3003F0C003C02B03D146
:101BA0009DF80830AB4200D0002420460AB070BD3A
:101BB00010B50446024B036000F020FD204610BD26
:101BC000B44C020010B50446FFF7F2FF204658213E
:101BD0000AF051FD204610BD10B590F85240621C2D
:101BE000D2B20444172A80F8522084F83A1002D95D
:101BF00003689B689847012010BD70B50E46037EB0
:101C000090F8311004469942B4BF012500250BDB42
:101C10001146113007F076FF30B10023257E84F89D
:101C20003130ED1A18BF01253DB194F831305A1CFE
:101C300084F831201C44637E3370284670BDFFFF5A
:101C400070B5044600F0CAFC0C4B00252360212629
:101C50000323324684F85430294684F8535004F163
:101C600011000CF0DBFB3246294604F132000CF087
:101C7000D5FB072007F0C6F8204670BDB44C020023
:101C800010B50446024B036000F0B8FC204610BDBE
:101C9000EC4D020010B50446FFF7F2FF20462C2160
:101CA0000AF0E9FC204610BDF7B50D460D49044683
:101CB0000868164620F0F000086008681F4640F0EB
:101CC000500008600121032009F0ACFF0AF078F809
:101CD0000097014633462A46204600F0B1FD03B086
:101CE000F0BD00BF00C0024010B50446034900F03B
:101CF00093FD034B2046236010BD00BF00C0004091
:101D00001C4D020038B5074C236833B92C2000F075
:101D100027FE0546FFF7E8FF25602068BDE838404C
:101D200000F01ABD80C4072008B501211D2009F06C
:101D30005FFF0122024B1A631A6BD207FCD508BD64
:101D4000004000504FF0FF3337B5B1F5805F01938D
:101D50004AD2274B1C69E50748D4264C2469E4077E
:101D600044D4254CE5686D0735D40325234CA56084
:101D70002561234D1D60002A2FD001AC5C6041F02D
:101D80000044DC6000249C6041F206041C61194C94
:101D90003AB3206041F080610022E1606560A2609A
:101DA0004FF4086222611A6942F001021A61226945
:101DB00042F001022261104A516A41F0030151626E
:101DC000D868C0F30B000028FAD1536A23F003034C
:101DD000536203B030BDA568C4E7586041F00844C1
:101DE000CFE701AA2260D7E70120F2E70220F0E75F
:101DF00020410050004100500000034000400050CE
:101E000008000340074A136823F0E06323F0FF0350
:101E100013600123116803FA00F041F08071084358
:101E20001060704700400340002307B50D4A01933E
:101E300052680D48C2F30B12ADF802200DF10201F9
:101E400001AA0068FEF7A4FB019B3BB14FF0805252
:101E5000064B1A60BFF34F8FBFF36F8F03B05DF86F
:101E600004FB00BF0040034088C4072004ED00E0ED
:101E700010B509F0A5FF0121C4080C2009F0B8FE37
:101E800003210C2009F0CEFE4FF40013104A114933
:101E900013600223B4FBF3F0884214D8116841EABE
:101EA000032313600120FEF761FB0B4B0022186037
:101EB00002210120FEF7B6FA4FF48002074B1860AA
:101EC000074B1A6010BD0233B3F5807FE2D1E9E71A
:101ED000004003403F5DC60084C4072088C407203B
:101EE00000E100E0F7B5002407280546ADF80640FC
:101EF0001DD8FFF7B5F90228154E1CD1154F234602
:101F00004FF0FF3221463868FEF7B6FB2846FFF750
:101F100079FF23464FF0FF320DF106013068FEF7DE
:101F2000ABFB2346224621463868FEF79DFABDF8F2
:101F3000060003B0F0BD2846FFF764FF00230DF153
:101F400006011A463068FEF797FB0028F6D0EEE748
:101F500088C4072084C40720026830B5D36913F011
:101F6000040310D002F1300301F1100451F8045BB6
:101F7000A14243F8045BF9D1438A01334382212310
:101F80000120536030BD184630BDFFFF2DE9FF41F1
:101F9000264C450154F805806719D8F80C60D8F82C
:101FA00008303343D90716D57868FEF73CFCFB8927
:101FB00008F1200198424FF0000388BFF8816719AB
:101FC0001A467868FEF7E4FA58B3BB8A0133BB823D
:101FD0000423C8F8043040F202631E4212D067198D
:101FE000B868FEF720FC3B8A0022984288BF3882FE
:101FF00067196946B868FEF7D9FB18B169463846D3
:10200000FFF7AAFFB20603D563199B6930469847CC
:10201000330703D52C44E3693046984704B0BDE844
:10202000F081BB890133BB81D2E700BF00C007202C
:10203000084B10B5D3F8C440A20402D50020FFF726
:10204000A5FF630404D5BDE810400120FFF79EBF43
:1020500010BD00BF00C00F4010B50446024B036026
:1020600000F0CCFA204610BDEC4D020010B504463D
:10207000FFF7F2FF20462C210AF0FDFA204610BDA2
:1020800010B50446034900F0C7FB034B204623600C
:1020900010BD00BF00800940844D020038B5074CD8
:1020A000236833B92C2000F05BFC0546FFF7E8FFFE
:1020B00025602068BDE8384000F04EBB8CC4072086
:1020C0002DE9F04790F8055104468A46174699468F
:1020D000089EDDF824801DB100252846BDE8F08764
:1020E0000AB9002EF8D0FFF7BBF8022835D000233C
:1020F000202284F81131D4F80031C4F81471C4F8E6
:102100001C6184F810A1C4F81891C4F820811A60E9
:1021100009F0D4FE4FF47A7200230BF005FA10F5A3
:102120007A7641F100070023D4F80C011A461946CB
:10213000FEF7A2FA28B194F81151B5FA85F56D09A8
:10214000CBE709F0BBFE4FF47A7200230BF0ECF9F9
:102150008F4208BF8642E6D2EDE700234FF47A7241
:102160001946D4F80801FEF787FA0028B4D00023F6
:10217000D4F80C011A461946FEF77EFA00232021F6
:10218000D4F8002184F810A184F81131C4F8147136
:10219000C4F81891C4F81C61C4F82081D4F80C016B
:1021A00011604FF47A721946FEF766FA20B194F87E
:1021B0001151B5FA85F56D090023D4F808011A46C6
:1021C0001946FEF751F988E710B441F0010110BC3F
:1021D000FFF776BF7FB500238DF8173001238DF808
:1021E0000F200DF11702009201930DF10F02FFF77E
:1021F000EBFF9DF8170007B05DF804FB1FB504ACBA
:1022000004F8012D069A0093019201232246FFF75C
:10221000DBFF04B010BD13B5002401F0FE010194F2
:102220000094FFF74DFF02B010BD07B58DF80420F4
:102230008DF8053001AA0223FFF7EDFF03B05DF82A
:1022400004FB07B58DE80C00002341F001011A469C
:10225000FFF736FF03B05DF804FB002307B502AAC1
:1022600002F8013DFFF7EDFF03B05DF804FBFFFF4F
:1022700038B500250446C0F8001180F8055101204A
:10228000FEF774F90322C4F8080129460120FEF77D
:10229000C9F8D4F800310C4AC4F80C0193420CD0B0
:1022A00002F5882293420AD0A2F50422934208D173
:1022B0000A2384F80431204638BD0B23F9E70C23A8
:1022C000F7E76323F5E700BF00C0054090F904314C
:1022D00070B50B2B05460C46164635D00C2B36D068
:1022E0000A2B37D10121072009F082FCB6F57A7F4D
:1022F00098BF4FF47A714FF06C0294BF7143164946
:10230000D5F80031B4FBF1F19A6128226420490824
:102310004A43B2FBF0F21A613C2251430022B1FB66
:10232000F0F15961DA601A625A629A624022012021
:102330001A6095F90431094A590903F01F0300FA9C
:1023400003F342F8213070BD01211320CCE70121B5
:102350001A20C9E7002070BDA086010000E100E05E
:102360002022D0F800319A6110221A6008229A6166
:102370001A68D206FCD490F81031DB074CBF012359
:10238000022380F824317047002310B580F82431EF
:10239000D0F8003104465A68282A44D00DD8102AB3
:1023A00027D0182A28D0082A0CD1D0F8181190F874
:1023B0001021B1B942F0010215E0402A3ED005D803
:1023C000382A59D05B6884F811311DE0502A3FD07B
:1023D000582AF7D1D0F81C219B681370FFF7C0FF73
:1023E00004E002F0FE029A6008229A6194F8240147
:1023F00010BD90F81021DDE72022D0F820119A615D
:10240000D0F8182111B90AB92046E7E7002AEDD023
:10241000D4F81411013A11F8010B9860C4F81411A2
:10242000C4F81821E0E7D0F81821002AF0D190F87C
:102430001021D207E8D520221A60D5E720229A6120
:10244000D0F82021012A4FF00402F5D89A61CBE799
:102450009B68D0F81C211370D0F81C310422013382
:10246000C0F81C31D0F82031013B012BC0F82031DD
:10247000D0F80031E0D1E9E790F810215B6812F064
:10248000010F14BF0122022280F8113180F82421AB
:10249000ACE7FFFF13B50446FFF776FF88B10023D2
:1024A00002A941F8043DD4F80C01FEF7B1F8019BF4
:1024B0003BB14FF08052044B1A60BFF34F8FBFF314
:1024C0006F8F02B010BD00BF04ED00E00120704727
:1024D00070B50546164609B9002070BD4C1E14F8AB
:1024E000011F39B12B6832465B682846984700289F
:1024F000F5D1F1E7012070BD38B504461546FFF768
:10250000E7FF2A462046BDE838400149FFF7E0BF13
:10251000984D02002DE9F743002407460D469046EA
:10252000994602AE06F8014D3B684A461B683146A3
:102530003846984778B19DF807200D2A03D00A2A1B
:102540001CBF2A7001350134444509DA0A2AEBD14F
:1025500000232B7001E0002CFAD103B0BDE8F0831A
:102560000020F5E70EB433B50446FEF779FE0228E5
:1025700006D100234FF0FF321946E068FEF77CF8E1
:1025800006AB0093009B059A2189606801930EF0C9
:10259000DBFE2389054698420ADB20F00F0110314B
:1025A00089B2218160680DF0C3F960600028E9D12B
:1025B0004FF0FF3261682046FFF78AFFFEF750FEBA
:1025C000022805D10023E0681A461946FDF74CFFA2
:1025D000284602B0BDE8304003B07047064B10B546
:1025E0000360002304464360038103740120FDF768
:1025F000BDFFE060204610BDB84D0200044B10B591
:1026000004460360406808B10BF0ACFE204610BDE4
:10261000B84D020037B5044615468DF80710FEF791
:102620001FFE022809D063699DF807201A701A7DE1
:102630005206FCD5012003B030BD00232A460DF11F
:102640000701E069FDF710FF0028F4D063691B7DE6
:102650005B06EFD500230DF107011A46E069FEF78E
:102660000BF80028E6D063699DF807201A70E1E7AF
:1026700010B50446024B0360FFF7C0FF204610BDB3
:10268000EC4D020010B50446FFF7F2FF20462C2166
:1026900009F0F1FF204610BD10B50446FEF7E0FD3D
:1026A000022807D1E069FEF7B5F818B10120FEF75E
:1026B000C1FBF7E7012010BDF8B5064614460F46EA
:1026C00009B90020F8BD8369002BFAD0FEF7C8FDD8
:1026D000022809D1002322463946B069FDF7CCFF14
:1026E000003018BF0120F8BD09F0E8FB4FF47A7202
:1026F00000230AF019FF00250444002339461A4636
:10270000B069FDF7B9FF58B909F0D8FB4FF47A72F8
:1027100000230AF009FF8D4208BF8442EDD2D0E7C2
:102720000120F8BD802310B5446909012373006AB4
:10273000B0FBF1F00AF06EFB064B00220AF02EFA15
:102740000AF0DEFB80B2030A23710323C0B22070BB
:10275000237310BD0000E03F002373B5426901936D
:102760008DF803309368044603F00E03042B21D048
:102770000C2B1FD0022B3FD1C069FEF754F8E38C1D
:10278000984203D9E069FEF74EF8E0841026002550
:1027900001AA0DF10301E069FEF708F800282ED127
:1027A0005DB34FF080521B4B1A60BFF34F8FBFF3E6
:1027B0006F8F22E0FEF714FA0025A06263691A7D8C
:1027C000D2070ED51B7801AA8DF803300DF1030155
:1027D0000023A069FDF7DCFE019B002B18BF01253B
:1027E000ECE7A069FEF71FF8A38C9842D8D9A0693E
:1027F000FEF719F8A084D3E7137D02B070BD6369BA
:102800009DF803201A70019B002B18BF0125013E83
:10281000C6D0BDE704ED00E038B504460D46FFF72D
:10282000DDFE064B6561236000232046A361E36162
:102830002362A384E384A36238BD00BFEC4D020091
:1028400070B516461D46254A436904469342016207
:102850002FD10121032009F0CBF92022204B314652
:102860001A604122636920461A721A7A42F00602FF
:102870001A72FFF757FFA26942B9082D28464FF098
:102880000101B8BF0820FDF7CDFDA061E2693AB9AA
:10289000049801210828B8BF0820FDF7C3FDE061B6
:1028A000072263695A60A3690BB1E369A3B90020E9
:1028B00070BD0C4A934205D10121182009F098F906
:1028C0008022CBE7084A9342F1D10121192009F077
:1028D0008FF94FF48072C1E7012070BD00C0004045
:1028E00000E100E00080094000C00940FEF744BE5E
:1028F000FEF752BE124B30B51A68014612B94FF0BE
:1029000080521A6018680F4A44180F4D2244AA4298
:1029100097BF0E4A1C60881818601C6898BF104644
:102920000B4A944282BF01321A60002039B1094A31
:10293000136801331360084B1860084B196030BDF1
:1029400098C40720FF7FFFEFFE3F0710F0C7072066
:10295000FF3F082090C4072094C407209CC4072090
:102960000BF0F8BC0BF0F6BC0BF0FCBC0BF0FABCA7
:1029700030B504468BB068460BF0B4FF214B224DB6
:102980002360089B214AA360079B636053B91368C7
:102990001F498B428ABF03F1604303F17043A3F5E3
:1029A000E823636000236168E360B1F5803F82BF84
:1029B00001F17041A1F5E82161601168144A91426A
:1029C00013D8C5F10053521A03F504231A44E260E8
:1029D0002046104BE1611B68A3610F4B1B686361CC
:1029E0000E4B1B6823610BB030BD0D4B9942EFD8E5
:1029F000C1F1804303F580135B1B002BC8BFE3606C
:102A0000E6E700BFF0070000F0C7072098C40720E2
:102A10000080001094C407209CC4072090C40720A5
:102A2000FF3F0820033808B50A2822D8DFE800F065
:102A30002106060D19151D19112121000AF018FF94
:102A4000022303604FF0FF3008BD0AF011FF162388
:102A5000F7E70AF00DFF1323F3E70AF009FF11234C
:102A6000EFE70AF005FF0D23EBE70AF001FF09236A
:102A7000E7E70AF0FDFE0523E3E7FFFF431C70B51F
:102A80000E4906D00E4B1B68984202D10A681046C8
:102A900070BD00231C460B4D0B60062B1A4606D05A
:102AA000531C05EB031656F8106CB04204D104B168
:102AB0000A60034B1860EAE70124EEE70CC5072023
:102AC00040C00720ACC40720084B10B50446186866
:102AD00018B1836B0BB90BF0CFF824B1012C02D0E5
:102AE000022C18BF203C204610BD00BFE0C00720CC
:102AF000014B1860704700BFA4C40720014B186049
:102B0000704700BFA0C4072008B502480CF0A6FE1D
:102B1000FEE700BF1A4E020008B502480CF09EFE08
:102B2000FEE700BF004E0200002070470120704702
:102B300070B50A4B1D7885B90126094C60222946DB
:102B400020461E700BF06AFC4FF0FF3323632364B2
:102B50002365022325602661236270BDA8C4072077
:102B6000ACC407202DE9F74389461446FFF7ACFFB4
:102B70000546FFF783FF062806D10AF079FE0923F0
:102B800003604FF0FF3016E01B4E0701F3199B68FE
:102B9000DB07F2D4002D11D001DB052DF1DDF31997
:102BA000D8680028EDD001AB2246494604F017F959
:102BB000F8B1FFF737FF03B0BDE8F0830F4B1A6899
:102BC000984632B14D46A5EB09039C420ADC24EA43
:102BD000E475601B0028D4DB3E447368201A03446C
:102BE0007360E8E7D8F800300020984705F8010B3B
:102BF000E9E70198201AEDE7ACC40720A0C407203C
:102C0000F8B50E461746FFF75FFFFFF737FF0628B8
:102C100004D0124C05016219D06830B90AF028FEC0
:102C2000092303604FF0FF30F8BD3FB9314604F08F
:102C3000BBFA70B1BDE8F840FFF7F4BE012F02D136
:102C400081683144F3E7022F01D1C168F9E7092017
:102C5000F0E76319DA6890685860F8BDACC40720E3
:102C60002DE9F3410F461446FFF72EFF0646FFF706
:102C700005FF0628054604D10AF0FAFD0923036082
:102C800006E0052E26D80120B04010F0390F02D002
:102C90004FF0FF302CE010F0060F1BD0174E3068BD
:102CA00030B1B846A8EB07039C420EDC24EAE4707E
:102CB000201A431CECD0A042EAD0114B201A03EB9F
:102CC00005135A6802445A6012E0336818F8010B81
:102CD0009847E7E70A4B03EB0513D8680028CBD0E9
:102CE00001AB2246394604F032F920B1FFF79AFED3
:102CF00002B0BDE8F0810198DAE700BFA4C4072064
:102D0000ACC407200EB42DE9F84107464FF0FF3060
:102D1000079DFFF7B3FE0628064609D10AF0A8FD75
:102D2000172303604FF0FF30BDE8F84103B0704750
:102D300028074349384648BF25F480650DF0E2F87E
:102D4000002876D03F4938460DF0DCF8002872D0D4
:102D50003D4938460DF0D6F800286ED005F4C06322
:102D6000B3F5C06F01D1A9070DD105F42063B3F508
:102D7000206F39D015F4007238D1022D04D90AF031
:102D800077FD1623CDE7082215F0030330D142F07A
:102D900001040AF06DFD052303602C4B03EB0618BC
:102DA000D8F80C00C0B94FF4097101200AF050FDA9
:102DB000C8F80C000028B5D0E2B2394603F078FF1D
:102DC00010B9B41D621C1DD1FFF72CFE1F4B03EB85
:102DD0000613D8680028A5D00BF0C4FA1B4B03EBF0
:102DE00006160023F3609DE70022CDE71022CBE713
:102DF000012B02D142F00204CBE7022BBFD142F0FB
:102E00000304C6E7002CE1DB104A3301D718D45085
:102E100000237B602B07BD6008D5F868C16804F00B
:102E2000C3F90028D2D1FB689B687B6004F12000C5
:102E30007AE70324E8E70424E6E70524E4E700BF93
:102E4000344E02003F4E02004A4E0200ACC407203E
:102E500038B5FFF739FEFFF711FE062806D10AF054
:102E600007FD092303604FF0FF3038BD4FF0FF32FC
:102E70000B4B00011C181A50E06808B9002038BD3F
:102E800004F080F90546E0680BF06CFA0023E3607B
:102E9000002DF3D02846BDE83840FFF7C3BD00BF82
:102EA000ACC4072008B50AF0E3FC582303604FF0D8
:102EB000FF3008BD074B1B689A68824207D05A68EA
:102EC000824204D0DB681B1A5842584170470120E7
:102ED000704700BFE0C0072030B504468DB0A8B3EE
:102EE00000256846FEF718FD9DF8003003A803F0A2
:102EF0003F0303939DF801300B9503F03F030493C8
:102F00009DF8023003F01F0305939DF8043003F091
:102F10001F0306939DF8053003F00F03013B079351
:102F2000BDF80630C3F30B03A3F26C7308939DF84E
:102F3000033003F007030993BDF80830C3F30B0314
:102F4000013B0A930BF052FB84E8210000200DB0F6
:102F500030BD012070470120704701207047FFFFFE
:102F600038B5064C23683BB94FF49470FFF7F8FC72
:102F70000546FEF7D1FD2560206838BD7CC40720DA
:102F800038B5084C23685BB90C20FFF7E9FC05460F
:102F9000FFF7E6FF90232B7100232860AB602560CC
:102FA000206838BD10C5072038B5074C23684BB9D9
:102FB0000820FFF7D5FC0546FFF7D2FF4023286025
:102FC0002B712560206838BD20C5072010B5044C42
:102FD00023681BB90120FFF7C3FC2060206810BDE7
:102FE00018C5072038B5054C256825B90120FFF71D
:102FF000B7FC05702060206838BD00BF1CC50720E5
:1030000001480CF02BBC00BF2D52020038B504461D
:103010000D4608F0D5FE074BB0FBF3F00223B0FBE2
:10302000F3F2AA4204D9B3F5807F01D00233F6E768
:10303000236138BD40420F007FB500F235260C46B3
:103040000122314603F0F6FD054638BB039002AA83
:1030500003A9304604F0C1F940BB0298039B827873
:1030600003FB02F183691248023B5A435208B2F54E
:10307000004F38BF01200F4B24BF03464FF4806040
:103080004908B1FBF0F1B2FBF0F200910193214647
:1030900009480CF06FFB012004B070BD074B2A46B5
:1030A000214607480CF066FB0020F5E7054BF6E7E4
:1030B0006B52020068520200755202007252020006
:1030C000A35202006E52020070B5104D104E2C78C3
:1030D000BFF35B8F14F0010415D1284609F0CDFA37
:1030E00088B14FF40E70FFF73BFC302380F8353287
:1030F0003A2380F8344280F8363280F83742306024
:10310000284609F0C6FA306870BD00BF34C50720F4
:1031100038C5072010B5044C23681BB90120FFF700
:103120001FFC2060206810BD14C507204023B6494D
:10313000F0B58B614FF00073B44A072593614FF4EB
:1031400080338B61B24B02241868ADF5057D20F009
:10315000F0001860186840F050001860186820F4FB
:1031600040501860086840F040000860186820F47B
:103170007C201860186840F428201860186820F433
:1031800070001860186840F420001860186820F07B
:1031900040401860186840F000401860586820F0FF
:1031A0003C005860586840F028005860586820F08B
:1031B00003005860086840F480300860586820F4C4
:1031C00040505860086820F480000860D96821F4F5
:1031D0004031D960116841F080711160596821F463
:1031E00040215960596841F48021596098688949A3
:1031F00001409960116841F4897141F00101116049
:10320000996821F470119960996821F07041996072
:10321000116821F446411160D96821F03001D9606C
:10322000D96841F03001D960D96821F47011D960B2
:10323000136843F000731360136823F08063136016
:10324000FEF716FE01210A2008F0D2FC01210A2017
:1032500008F0E8FC7048012105604460FFF7D6FEE5
:10326000FEF762FD0121152008F0C2FC01211520A6
:1032700008F0D8FC6948012105604460FFF7C6FEEC
:10328000FFF76EFE6421FEF711FC10B964480CF0E4
:10329000E5FA08F0E9FD06F00FFC10B961480CF002
:1032A000DDFA614808F062FA604808F05FFA4FF40E
:1032B000FA6006F07AFFFFF7A3FE08F081FD09F03F
:1032C00045FF5B490AF04EF809F0C6FD02460B4681
:1032D00058480CF04FFA08F081FE052804AC14D1D0
:1032E00000236360544B1B682360FFF789FE534B38
:1032F0005348D96C1A6D5B6D00940CF03BFAFFF7E4
:103300007FFE41F2883006F050FFFFF7DDFE4D49A9
:10331000FFF792FE054668BB4B480CF02BFA05F010
:10332000CDFAFFF7D1FE29462A4600F2352004F0F7
:103330004FFA464B464A00280CBF104618460CF080
:103340008DFAFFF7C1FE3F49FFF776FE90B941487D
:103350000CF084FA05F034FA01463F480CF00AFA02
:1033600005F01EFA054605F02BFA00FB05F13B4877
:103370000CF000FA3A4E3B4F3378BFF35B8F13F0FB
:10338000010516D1304609F078F990B14FF40E706E
:10339000FFF7E6FA012380F83432312380F8353222
:1033A0003A2380F8375280F836323860304609F0D8
:1033B00070F92D4938682D4DFFF73EFE182116484B
:1033C000FFF724FEFFF71CFE2B684BB90820FFF720
:1033D000C7FA0646FFF7C4FD3823306033712E600C
:1033E000286802F0A6F9064610B921480CF036FA12
:1033F000FFF7C6FD02F098FA054600283CD11D48AB
:103400000CF02CFA2E4637E000C0092020C009201D
:1034100000C00240F0FCFCFF0000034000800840B8
:10342000844E0200B54E0200CD5F0200DA4E02006B
:1034300000247449E04E0200444002400040024033
:10344000F84E0200704F0200784F0200714E0200E9
:103450006C4E0200B54F0200D44F0200E34F020051
:103460002CC5072030C50720B05E020024C5072008
:10347000FE4F020019500200FFF796FD02F0DCF942
:10348000054618B96D480CF0E9F92E466C4D2B68CD
:103490001BB90120FFF764FA2860286802F09AF946
:1034A000FFF794FD02F02CFAFFF79CFD02F0FDF906
:1034B000FFF730FE02F029FAFFF794FD002102F039
:1034C000F7F9002E40F08180FFF79AFDFFF76CFDC1
:1034D0002D2102F099F9FFF767FD2D2102F0A0F9E7
:1034E000FFF780FDFF2102F0E3F9102200212046C2
:1034F0000AF094FF00230F222146524802F0C8FA36
:1035000080B920460AF09FF9C5B2284605F068FC4C
:103510004D4A4E4B2946002818BF1346494A4C488D
:103520000CF028F9FFF752FD02F0ECF905460020F7
:103530000DF07EFC28440CF099F94FF40072002144
:1035400020460AF06BFF204608F0CEFC2146414899
:103550000CF010F9FFF754FD8022002120460AF0FC
:103560005DFF204605F008F92278FF2A3BD021466E
:1035700039480CF0FFF84FF208031D684FF20C03B6
:103580001C684FF210031E684FF470431A684FF224
:103590000403AD0A1968A40A30480CF0EBF82A4677
:1035A00021462F480CF0E6F831462E480CF0E2F8A0
:1035B000FFF726FD012006F0B3FC2B480CF04EF976
:1035C000FFF71EFD0DF5057DF0BDFFF7EDFC05468F
:1035D000FFF7D6FC02F0D2F909F086FFC1B2284607
:1035E00002F046F981E7FFF795FD02F091F909280D
:1035F0001FD11E480CF032F921461D480CF072FA1A
:1036000021461C480CF0B6F81B480CF027F90023A3
:1036100003A91A4803930CF065FA9DF80C30592B56
:1036200003D1204605F086F8A5E715480CF016F9F9
:10363000A1E714480CF012F91348F7E733500200E1
:1036400028C507204C500200774E02007D4E020034
:1036500052500200F073020086500200A351020093
:10366000CF510200FC51020019520200A250020088
:10367000C4500200C9500200E45002002751020069
:103680002B510200435102007151020070B5ADF59B
:103690000A7D05460C4606F0C0FD0B2805DD0C2210
:1036A00022492046FEF75EFF36E0284606F047FF37
:1036B0000122014601A803F0FBFA064680BB01A8DF
:1036C00003F060FD284606F03AFF19490246049BC4
:1036D0002046FEF747FF236820469B6898470A204C
:1036E000FDF7A8FB4FF0100383F31188BFF36F8F32
:1036F000BFF34F8F284606F022FF02460D4B0068AD
:10370000516803C390680C4A186043F80C2C4FF0C2
:103710008043AA221A721E7001200DF50A7D70BD29
:10372000284606F00CFF05490246BAE75553020049
:103730007C530200484002400DD0ADDEC35302006E
:103740002DE9F041414CA4B023780646DB070D4635
:10375000BFF35B8F0CD4204608F08FFF40B14FF4CD
:1037600080600AF0F7FD3A4B1860204608F091FFA0
:103770003849304606F009FE0746044630B3802239
:10378000002104A80AF04AFE00230293039303AB2E
:10379000009304AA02AB3049304606F047FD2C499D
:1037A000029B039A096804A86BB902F093F92B4BAA
:1037B0002B49002818BF19462846FEF7D3FE384685
:1037C00024B0BDE8F08102F0A7F9F0E725493046C2
:1037D00006F0DBFD07460028F1D004AB304603AA13
:1037E0002149039404948DF8084006F01FFD039EC0
:1037F000049B3344B3F5806F13DCDFF85480039BE4
:10380000049AF31A93421DDAB6F5806F1ADA2B6820
:103810004FF4FA621B6802A92846984740B9134939
:10382000CAE74FF4806212492846FEF79BFEC6E7BE
:10383000D8F800309DF808209A559DF808300136D8
:103840001C44DCE722460B49EEE700BF3CC50720DD
:1038500040C50720EC520200F3520200DA52020087
:10386000D6520200035302000A53020038530200EA
:10387000145302004853020030B50C46054687B089
:103880000A49FEF76FFEA188238804912189628886
:103890000391E18828460291E17A0191A17A009191
:1038A0000349FEF75FFE07B030BD00BFED580200D0
:1038B000235902001FB501A80C4605F0B7FD05F01D
:1038C0009BFA01A902462046FFF7D6FF012004B06B
:1038D00010BDFFFF2DE9F04100268CB003AB009333
:1038E0000D46904602AB022238490296039606F036
:1038F000ABFCB04229DD029809F0A5FFC7B20398DE
:1039000008B10CF011FB324EC4B2002104A806F03D
:10391000F9F830B14FF0FF3231462846FEF7ECFDA2
:10392000F3E7022318F100010093039A234618BF1E
:103930000121384605F096FB064650B94FF0FF329C
:1039400024492846FEF7D8FD012630460CB0BDE8D4
:10395000F081B8F1000FF8D04FF47A7104A806F0A6
:10396000D9F860B39DF81030BB4228D19DF81730CC
:103970000C2B04D13A4606A92846FFF77DFFBCB9B7
:1039800015492846FEF7EEFD9DF817309C420ADAED
:1039900004AB19192B684FF0FF325B68097A28468F
:1039A00098470134F0E70D492846FEF7DBFDCCE7E8
:1039B0004FF0FF320A492846FEF79EFDC5E7029AFE
:1039C00008492846FEF7CEFDBFE700BF116202009E
:1039D00011560200335602005B5602006D4F020082
:1039E0006F5602008C56020038B50D4606F0A9FD50
:1039F0000446C0B205F0F4F9054A064B0649002812
:103A000018BF134622462846FEF7ACFD012038BDFC
:103A1000815E02007D4E0200B256020073B50C4674
:103A200005F062FB054616492046FEF79BFD154949
:103A30002A462046FEF796FD11492046FEF792FDE4
:103A4000DDB111492046FEF78DFD0D492046FEF7F8
:103A500089FD00250D4EE8B205F030FB013540B17F
:103A6000817843780278009120463146FEF77AFD4E
:103A7000F1E703492046FEF775FD012002B070BD55
:103A8000DC530200F7530200115402002C540200D0
:103A90004FF47A73F0B58BB00AAA0C4642F8243D75
:103AA000184906F0C3FB0025174F184E019902A8CC
:103AB00006F028F8D8B19DF8082039462046FEF7D0
:103AC00051FD00259DF80F309D420ADA02AB5919CD
:103AD00023684FF0FF325B68097A2046984701352A
:103AE000F0E731462046FEF73DFD0125DEE72DB922
:103AF0004FF0FF3206492046FEF7FEFC01200BB0D6
:103B0000F0BD00BF11530200E9550200C15302008D
:103B1000005602002DE9F3473C4C074626688946CB
:103B2000002E62D12420FEF71BFF0423054680E807
:103B300048008660C660202130460BF0F9FEAE6872
:103B4000E8604FEA8608072E0ED81020FEF708FF1F
:103B50008246102200210AF061FCEB68013643F82E
:103B600008A008F10408EEE7002608234FF001083A
:103B70006B60274A274B28492846009685F8208005
:103B8000256007F037F8254B254A2649206800961E
:103B900007F030F8244B254A25492068009607F0A5
:103BA00029F8244B244A25492068009607F022F87A
:103BB000234B244A24492068009607F01BF8234B26
:103BC000234A24492068CDF8008007F013F8224BDF
:103BD000224A20492068009607F00CF80096204BF6
:103BE000204A2149206807F005F82049384606F0A8
:103BF000A4FC18B11E49384606F05AFD4A4639461B
:103C0000206802B0BDE8F04707F0D8B848C50720E3
:103C10008154020047540200C13E01008854020052
:103C2000DC540200953C0100E554020008550200F6
:103C3000913A01000B5502004D500200E939010094
:103C400035550200515502001D3A01005855020039
:103C5000BF550200D538010099550200BE5502003B
:103C6000C3550200DE550200B5380100C253020000
:103C7000E455020038B5064C236833B95820FEF7E6
:103C80006FFE0546FDF7DCFF2560206838BD00BFEC
:103C900044C507202DE9F04FADF2DC5D04468022DB
:103CA0000DF1B40988460DA800210AF0B7FB802267
:103CB000002148460AF0B2FB002306AE33600DAA8D
:103CC00000964B467449204606F0B0FA032804D00B
:103CD00000200DF2DC5DBDE8F08F01220DA9EDA8FA
:103CE00002F0E6FF05460028F2D1FFF7C3FF336874
:103CF000802280F853304DA9044608A88DF817504B
:103D0000079506F063FACDF8009033680DAA634971
:103D10004046FEF727FC2F4607AB4FF400726DA913
:103D2000EDA803F05CF8002840F0AD80079B002B65
:103D300000F0A980022D00F2A68007AE3268584933
:103D40002046FEF70FFC236820469B6898474FF0FB
:103D5000000A0DF5DA7B6DAB3268ABEB03039A42D8
:103D600023680CD9CDF80CB05B684FF0FF321BF81C
:103D7000011B20469847039B1B789A44EBE79B68FE
:103D80002046984708A806F0DAFB834608A806F004
:103D900047FA4FF47A73024659462046FEF7BAFBBB
:103DA000202201210DEB020006F075FB08A806F0A9
:103DB000C8FB82451CD008A806F0C3FB5246034648
:103DC00038494046FEF7CEFB37492046FEF7CAFB8E
:103DD000236820469B68984723684FF47A721B68D3
:103DE0000DF11701204698470028F5D10135A1E7CC
:103DF00033684A462D49009320463B46FEF7B2FB06
:103E0000236820469B68984708A806F098FB8246DE
:103E100008A806F005FA514602464FF47A73204688
:103E2000FEF778FB224908A806F086FAD0B908A860
:103E300006F085FB1F4902464046FEF793FB1A49F0
:103E40002046FEF78FFB236820469B68984723682F
:103E50004FF47A721B680DF117012046984700282D
:103E6000F5D1C3E7144908A806F022FC33681349CA
:103E70001F443A46F09B4046FEF774FB002D3FF48A
:103E80004BAF013D48E7EDA803F07CF908A806F028
:103E9000B1F901201DE700BFC9560200D856020043
:103EA000EF56020001570200C153020028570200DA
:103EB0003E57020041570200C253020079570200E8
:103EC0002DE9F0470024074686B006AA42F80C4DBB
:103ED0000E463D4906F0AAF920220121384606F097
:103EE000DAFA039B002B68D0384606F096F90028D2
:103EF00063D0FFF7BFFE05460DF1180808F80D4D19
:103F00002B6805221B68414628469847044600282E
:103F1000F6D1039B384685F8533006F010FB274650
:103F200001464FF0FF322846FEF7E6FA2B68284696
:103F30009B689847254B0DF11809186849F8044DFE
:103F400004902B684FF47A721B68414628469847C4
:103F5000D0B103220DF1150148460AF045FA9DF84B
:103F60000BA0042204A948468DF817A00AF022FAF3
:103F700050B1336801225B6851463046013798479B
:103F80000028DED10134DCE71822B7FBF2F302FB94
:103F9000137202B101333A460D493046FEF7E2FA98
:103FA0003CB16123224600930A490B4B3046FEF791
:103FB000D9FA012006B0BDE8F0874FF0FF3207497B
:103FC0003046FEF799FAF4E711530200D853020085
:103FD0008557020008580200AC570200C158020081
:103FE00038B50C46451E15F8011F31B123684FF056
:103FF000FF325B6820469847F5E738BD70B5104D35
:10400000104E2B78BFF35B8F13F0010416D12846B6
:1040100008F033FB90B14FF40E70FEF7A1FC0123C2
:1040200080F83432312380F835323A2380F8374231
:1040300080F836323060284608F02BFB306870BDBF
:104040002CC5072030C507202DE9F04FADF51B7DAD
:104050000F4606F076FA041E04DDFDF79DF92046B2
:10406000FCF7E8FE0DF114094C462A4D4FF0640BA5
:104070000FCD0FC42B6804AA2360002410210AA8C6
:104080000494FDF791F8244A824624493846FEF705
:1040900069FA26464FF000080AADD0451CD06B697E
:1040A000A34215D1AA69049B16441BB1B3FBFBF3D1
:1040B000B2FBF3F3297B039202932B8C00949B00B9
:1040C000019359F821306A6815493846FEF74AFAD3
:1040D00008F101082435E0E701340A2CDAD1642222
:1040E000049B10499E1BB3FBF2F30096B6FBF3F35F
:1040F0000D4A3846FEF736FAFCF778FD102804D949
:1041000010220A493846FEF72DFA01200DF51B7DD5
:10411000BDE8F08F445902000E5F0200135F0200F9
:104120003A5F0200625F0200575F0200815F020097
:1041300010B50C46ADF5007D684607F0D5FE20466B
:104140004FF0FF326946FEF7D7F901200DF5007DEB
:1041500010BDFFFF30B50C4691B02C49054606F066
:10416000FDF8002848D00CAB04930BAB03930AABCB
:10417000029309AB019308AB009306AA07AB24494D
:10418000284606F053F8072802D0002011B030BDB1
:104190009DF83930069A0DA862F303038DF8393083
:1041A000079A9DF8383062F304038DF83830089A86
:1041B000BDF83A3062F30B03ADF83A30099A9DF836
:1041C000363062F304038DF836300A9A9DF83530A4
:1041D00062F305038DF835300B9A9DF8343062F3A5
:1041E00005038DF834300C9A9DF8373062F30203E2
:1041F0008DF83730FDF7B4FBFDF74EFC054902465C
:104200002046FEF7AFF90120C0E700BF895B02003E
:104210008D5B0200F0730200F7B50D46504904466D
:1042200006F08BF9064650B105F044FE4FF0FF3220
:104230004C492846FEF760F9012003B0F0BD4A4919
:10424000204606F07AF960B305F058FE4749024669
:104250002846FEF787F905F05DFE454902462846E7
:10426000FEF780F905F050FE424902462846FEF767
:1042700079F9304605F038FE0446012005F034FE99
:104280000646022005F030FE0746032005F02CFE0E
:10429000009701903346224637492846FEF762F9D7
:1042A000CAE73649204606F059F850B120220121CC
:1042B000204606F0F0F8204606F041F905F040FFF0
:1042C000BAE72F49204606F049F80646F8B92D49C5
:1042D000204606F043F8D0B9204606F030F9F32323
:1042E0000090294A2949012005F08EFE204606F05B
:1042F00026F9274902462846FEF734F99CE70324AD
:1043000016E0022414E0234B24E0234B22E023494F
:10431000204606F011F80028F3D12149204606F086
:104320000BF80028EBD120461B4906F005F804469F
:104330003146204605F05AFE1A4B1B4A002E08BF94
:104340001A46002CDFD0012CDFD01549134B022C6C
:1043500018BF0B4615492846FEF704F96CE700BF65
:104360005B5A0200615A02007A5A0200815A020026
:10437000965A0200AB5A0200CA5A0200FA5A0200C8
:10438000FE5A0200065B0200A1610200285B0200E7
:104390007B5B0200DA4E02008C620200565A020079
:1043A000505A0200475A02003F5A02000F5B0200B7
:1043B00030B5002489B004AB00930D4603AB022254
:1043C00018490394049405F03FFF022828D107AB55
:1043D000009305AA06AB04990398059406940794E4
:1043E00001F0DEFA024648B1049B0F4900932846CB
:1043F000039BFEF7B7F8012009B030BD059A069B74
:10440000002A08BF0122002B08BF01230799284674
:10441000B1FBF3F3B1FBF2F20449FEF7A3F8EAE7CC
:104420002046E9E71162020079600200986002000C
:104430002DE9F0470E46ADF5856D3849054606F085
:1044400016F837490746284606F03AF83449284610
:1044500006F056F8284606F072F80122014681A8B7
:1044600002F026FC044660B1284606F068F82D49A3
:1044700002463046FEF776F801200DF5856DBDE861
:10448000F0870DF1040A01464FF40072504609F01E
:10449000C5FF009407F012FD804689466B464FF435
:1044A0000072514681A802F09AFC08B9009B23BB18
:1044B00081A802F067FECFB107F000FD4FF47A72D9
:1044C000002309F031F8002305464FF47A72404684
:1044D000494609F029F8281A14BF03460123224649
:1044E000B4FBF3F310493046FEF73CF84FF0FF32CF
:1044F0000E493046FEF700F8BEE71C44002FCDD130
:104500003D46009B9D42C9D233681AF805105B688E
:104510004FF0FF32304698470135F2E75859020014
:10452000116202006159020075590200C253020073
:1045300000232DE9F04F0C46C1B0564905460E93B5
:1045400005F0FBFF98B9284605F0F9FF064631460D
:1045500017A802F0D0FE054658B1034632464E4930
:104560002046FDF7FFFF012041B0BDE8F08F4B4E24
:10457000EDE732464A492046FDF7F4FF2F46DFF8C3
:10458000309180230DF180080FA917A8CDF8548031
:10459000169302F0F3FE002863D19DF84530002BFE
:1045A0005FD09DF84410BDF84200CA065BBF0E9B69
:1045B0000F9A44229B185BBF0E932D2201350137C1
:1045C00011F0010F14BF52232D2311F0020F14BF5D
:1045D0004FF0480E4FF02D0E11F0040F14BF4FF0A6
:1045E000530C4FF02D0C11F0200F14BF4FF0410A67
:1045F0004FF02D0ABDF840100DF1450BCDF824B059
:10460000C0F3451BC012069001F01F000B930590EC
:104610000F9BC1F34310491201F2BC71CDF804C0E5
:10462000CDF800E0089304900B9B0391CDF81CB0EB
:104630004946CDF808A02046FDF794FF4FF0FF3221
:1046400018492046FDF744FF41464FF0FF3220460F
:10465000FDF73EFF4FF0FF320E492046FDF74CFFBD
:104660008FE73A46104900950E9B2046FDF77AFFEA
:104670000DAA0EA9304602F0B0FE00287FF473AFF9
:104680000D9B0E9A9B7809495A4320465208FDF724
:1046900069FF68E7C2530200C9600200C6600200F9
:1046A000ED600200356102003961020063610200C1
:1046B0000861020070B50C46064605F040FF05464D
:1046C000304605F03CFF02F04BFF064A064B074917
:1046D000002808BF13462A462046FDF743FF012065
:1046E00070BD00BF815E02008B5E0200AD5C020007
:1046F00070B50C46064605F022FF0546304605F02B
:104700001EFF02F0CEFE064A064B0749002808BFEE
:1047100013462A462046FDF725FF012070BD00BF45
:10472000815E02008B5E02008F6102007FB5002473
:1047300003AB00930E4602AB02220F49029403948E
:1047400005F082FD022815D1029C039D20462946D2
:1047500002F0AFFF094B0A49224600280CBF084669
:1047600018462B46009007493046FDF7FBFE012016
:1047700004B070BD2046FBE7116202008B5E0200B0
:10478000815E02007761020030B5ADF50D7D0C460B
:10479000054605F0D4FE0A22014603A802F088FA75
:1047A00058B1284605F0CBFE214902462046FDF7C8
:1047B000D9FE01200DF50D7D30BD8DF8070002906A
:1047C00042F210737E221B492046FDF7CBFE1A49A8
:1047D0002046FDF7C7FE194D236842F210721B6890
:1047E0000DF107012046984718B19DF807307E2B40
:1047F0000FD103A802F0C6FCDBE7029B012B11D10D
:1048000023684FF0FF325B689DF8071020469847F9
:10481000E2E702AB01220DF1070103A802F097FBCA
:104820000028EAD029462046FDF79CFED4E700BFC9
:10483000D45D0200FB5D0200335E0200535E0200A5
:1048400000232DE9F04FADF5437D06AC23600593C1
:104850000E46009405AB0222404905F0F5FC022803
:104860000AD04FF0FF323E493046FDF745FE0120A9
:104870000DF5437DBDE8F08F216819A802F03BFDDE
:1048800028B1226837493046FDF76CFEEFE70599FD
:1048900019A802F030FD10B1059A3349F3E74FF43F
:1048A000807242A907A805F091FC4FF4807282A99A
:1048B0000CA805F08BFC2D4F0DF1880A4FF08008F5
:1048C00011A919A8CDF85CA0CDF8608002F056FDC2
:1048D00010B99DF84D3033B90CA805F08BFC07A832
:1048E00005F088FCC3E79DF84C5015F01005E7D1A2
:1048F0000DF14D03059A394607A805F06AFE2268B6
:1049000039460DF14D030CA805F063FE07A805F02C
:1049100016FE80460CA805F012FE119B814607A8E2
:10492000039305F00CFE83460CA805F008FE2B4609
:104930002A4601460095584601F032F80C4B0D4AC4
:104940000D49002818BF1A46039B01920093424666
:104950004B463046FDF706FEB0E700BF116202008D
:1049600090590200D5590200FA5902001A5A020061
:104970008B5E0200815E0200205A0200F8B50D46EF
:104980002349064605F0D9FD044698B1FFF736FBEA
:10499000002200F23520114602F01AFF4FF0FF32DC
:1049A0001C4B1D49002818BF19462846FDF7A4FDD9
:1049B0002046F8BD1949304605F0BFFD044610B148
:1049C000FEF782FBE4E71649304605F0B6FD0446E3
:1049D00058B1FFF713FB012200F2352102F02AF94A
:1049E0004FF0FF320F4B1049DCE71049304605F01D
:1049F000A4FD04460028DBD0FEF766FB012200F28E
:104A0000352102F017F94FF0FF32094B0949C9E788
:104A1000E25E0200845E02007A5E0200EC5E02004A
:104A2000F95E0200A15E0200915E0200025F0200D8
:104A3000C65E0200B85E020008B508464FF0FF32BD
:104A40000849FDF759FD05F035FA4FF4FA60FCF717
:104A5000F1F94FF08043AA221A7200221A70012045
:104A600008BD00BF745D02002DE9F041C4B00746E7
:104A70000C4605F0D2FB024638B921463E4806F006
:104A800079FF012044B0BDE8F0813C49384605F08B
:104A90007CFC08B10122F0E73949384605F04DFDAC
:104AA0008046A0B13749384809F094F905463648A0
:104AB00006F04AFE294606F06BFF284608F030FF54
:104AC0004FF0FF3231492046FDF716FDD9E7304956
:104AD000384605F05AFC02AD03AE28B3C5F8008095
:104AE000C6F8008043468DE8600003222949384615
:104AF00005F0AAFB032813D14FF48072414604A8A5
:104B000009F08CFC04AA4FF480733168286806F021
:104B1000FFFD4FF0FF3208B104A9D4E71E49D2E7E8
:104B20004FF0FF321D49CEE70DF1100828603060CC
:104B3000C8F800002B468DE840010322154938468D
:104B400005F082FB032803D04FF0FF321449BAE787
:104B5000D8F800203168286806F0DCFAD8F8003070
:104B6000009333682A6820B10E492046FDF7FAFC0D
:104B700087E70D49F9E700BFE13F0100AB5F0200A5
:104B8000B15F0200FC5A0200CD5F0200B65F020076
:104B9000D25F020011620200D65F020000600200D4
:104BA000316002004D6002005E60020010B501201D
:104BB0000C4605F07DFF60B100231A461946FBF74D
:104BC00053FC4FF0FF3205492046FDF795FC0120CC
:104BD00010BD4FF0FF320249F6E700BF855D0200CD
:104BE0009B5D02002DE9F04F604C91B023680E46AA
:104BF00033B92C20FDF7B4FE0546FDF775F82560A6
:104C00002768FEF761FA00240CAA0DA900F23520EE
:104C10000D9402F0E2FB00284FD10C9B0D9C9D7877
:104C20009B696C43023B5D4364086D08504B1A68F6
:104C300098467AB90C20FDF793FE8146FEF790F96D
:104C4000902389F804300023C9F80000C9F808301F
:104C5000C8F80090D8F8000000F090FE814608F0F7
:104C60001DFC0A9008F076FA0146484608F0BCF9A7
:104C7000404908F0C3FA08F011FC81460DA807F07E
:104C8000B3F903F0A3FD002869D0FCF709FD4FF04C
:104C9000000A03F085FDD3460346D0469A450B93A0
:104CA0000DD0504603F0E0FD804538BFD3460B9B46
:104CB00038BF80460AF1010AF0E72546B6E7FCF75F
:104CC00007FD642303FB08F32B4ACDF80880B3FBF0
:104CD000F2F3C3F164030093CDF804B02B462246EF
:104CE00026493046FDF73EFC254C23681BB90120C0
:104CF000FDF736FE2060206800F004FE0446FCF755
:104D0000CBFEFB8C0A9A0993BB8C1E4908939DF835
:104D10003430019003F03F0307939DF83530009441
:104D200003F03F0306939DF83630304603F01F032F
:104D30000593BDF83A30C3F30B0304939DF8383064
:104D400003F01F0303939DF8393003F00F03029320
:104D50004B46FDF707FC012011B0BDE8F08F2B4654
:104D6000224609493046FDF7FDFBBDE780C4072018
:104D700010C5072000002041A0860100C95C020088
:104D800018C507200B5D0200FD5C02002DE9F04F05
:104D90000C46C7B05749814605F0F7FA5649074611
:104DA000484605F0F2FA55498346484605F0EDFAC3
:104DB00000260DF1100805AD824602960396C8F84C
:104DC00000602E60002F4BD0009503AB02AA4C4927
:104DD000484605F02BFA01280ADC4FF0FF3249491A
:104DE0002046FDF789FB3746384647B0BDE8F08FCF
:104DF0004FF480790DF118084A463146404609F0D3
:104E00000DFB2B6833BB01232B60FEF7A9F82B6841
:104E10009DF80C209DF8081000934346FDF7EEF92D
:104E2000394A3A4B3A49002818BF1346029A20469D
:104E3000FDF798FB0026DFF8F0902B689E42D3D256
:104E4000039A18F80630324449462046FDF78AFB9B
:104E50000136F2E7B3F5807F88BFC5F80090D4E74C
:104E6000BBF1000F2CD0CDF8008003AB02AA29497A
:104E7000484605F0DBF9032806D04FF0FF322649FB
:104E80002046FDF739FBAFE7FEF76AF898F80030E7
:104E90009DF80C209DF80810FDF7C7F950B1039B51
:104EA0001E490093D8F80020029B2046FDF75AFBCC
:104EB0005F4699E7029A1A492046FDF753FBF7E748
:104EC000A8B10223174D0293029BFE2B0FDCFEF7C5
:104ED00047F89DF80810FDF7C0F920B1029A29465D
:104EE0002046FDF73FFB029B02330293ECE7574657
:104EF0007AE700BF4B630200A65B0200AC5B0200D6
:104F0000B55B0200C45B0200815E02008B5E0200A2
:104F1000E55B0200195C0200295C0200505C0200A3
:104F20006A5C0200875C0200095C020038B5044636
:104F30000025104B0360636DE06DAB4206D950F85D
:104F40002500102107F097FB0135F4E708B1FDF7C4
:104F50000DFD0025A36B206CAB4206D950F825004F
:104F60000C2107F088FB0135F4E708B1FDF7FEFCE2
:104F7000204638BD8469020010B50446FFF7D6FF0D
:104F80002046902107F077FB204610BD73B50546FB
:104F9000022401260C4806F0D7FB01940096234614
:104FA00005F17402094906F04BF850B1064806F0C5
:104FB000CBFB01940096234605F17602044906F0E6
:104FC0003FF802B070BD00BFDA4E02002F6202004F
:104FD0003D6202002DE9F04104460E46C06889009A
:104FE0000AF0A6FC4FF00008A568E060AF00AE42F2
:104FF0000DD90C20FDF7B4FCE368C0F80080C0F8C0
:10500000048080F808800135D8510437EFE76660E6
:10501000BDE8F081F7B50025044604260B464FF4A1
:1050200080520095244905F029FD244B66632360D6
:10503000A563E5632564022104F13400FFF7CAFF8C
:1050400026656565A565E565284660210AF070FC62
:10505000A56DE065AE00172D0CD81020FDF780FC83
:1050600007461022002109F0D9F9E36D01359F515F
:105070000436F0E718236365012384F870300023B9
:105080000022A4F87430A4F87630A3670027002328
:105090000B4EC4E92023C4E9226706F00FFF4FF44A
:1050A0007A72002308F040FA80197941C4E920019E
:1050B000204603B0F0BD00BF5769020084690200BA
:1050C000C0D40100F7B505461A4806F03DFBB5F817
:1050D0007660044616B9002003B0F0BD05F071FFFC
:1050E0008642F8D1A96F204605F083FF07460028C5
:1050F000F1D111480AF0B2FB10490E4808F06AFEDF
:105100000646A8B1A96F204605F066FF3146204645
:1051100006F03EFC304608F003FC09480AF09EFB0E
:10512000084B3A46009339463B46012004F06CFF99
:105130000120D1E7CD5F0200C0610200FC5A0200ED
:10514000DA610200F36102002DE9F0410F7A1446A2
:105150004D680E683FB3082A19D1284605F05DF85E
:10516000002812DD13494FF0FF323046FDF7B0F949
:105170000121284605F050F9336821463046BDE844
:10518000F0415B684FF0FF3218470724F4E70A2A22
:10519000F2D00D2AF0D02146284605F05EFA002F05
:1051A000EAD1BDE8F0810A2AFBD00D2AF3D1BDE88F
:1051B000F08100BF10620200F8B5044614200F46CB
:1051C0001546FDF7CDFB8021064605F0F5F9A16BEC
:1051D000E36B8B4206D3636BC91803D204F134002E
:1051E000FFF7F8FEE36B226C591C52F82330E163A1
:1051F0001F605E601D72F8BD2DE9FF47CF6B06464C
:105200000D4601AC77B94FF47A70FBF713FE0197A6
:105210006760A76094E8070086E80700304604B09E
:10522000BDE8F0870B6C0DF110081B6893E80700D0
:10523000002384E8070008F80D3DFBF7CBFC0027AE
:105240008146EB6B9F425CD22B6C4FEA870A53F886
:1052500027301868037C002B51D0036800221B689C
:105260004146984700284AD0EB6B9F4244D22B6CB2
:1052700053F80A3093E8070084E807009DF80320FC
:1052800021462846FFF760FF06F018FE4FF47A72B9
:10529000002308F049F9D5E9222380185941C5E9CE
:1052A0002001029804F0B9FF0746029804F0B8FF05
:1052B00001388742AEDAD5E92223134329D006F01C
:1052C000FDFD4FF47A72002308F02EF9D5E9202372
:1052D000994208BF90421CD306F0F0FD4FF47A7259
:1052E000002308F021F9D5E9222380185941002331
:1052F000C5E9200101938DE705F14403BAE70137C1
:105300009FE7FBF767FC8145CBD10220FBF792FDBD
:10531000C7E79DF803300A2B8FD17BE72DE9FF41CA
:10532000054627480AF026FA294601A8FFF764FF38
:10533000019C54B92846FFF7C5FE10B921480AF070
:105340008DFA012004B0BDE8F081029E304604F0E1
:1053500064FF0028F5DD06F0B1FD4FF0030805F10C
:10536000500E074620B3B5F8743022460133A5F835
:1053700074303146704605F021FD042300258DF878
:1053800000808DF801808DF802308DF8033023689D
:105390001DF805105B684FF0FF3220460135984735
:1053A000042DF4D106F08AFDC11B07480AF0E2F98A
:1053B000304604F037FF236820469B689847C0E7D3
:1053C00013620200C25302001962020038B5064C93
:1053D000236833B92C20FDF7C3FA0546FCF784FC9B
:1053E0002560206838BD00BF80C4072010B5044682
:1053F000FFF7ECFF03682146BDE810405B684FF003
:10540000FF321847002313B502AC04F8013DFFF743
:10541000DDFF03684FF0FF321B68214698479DF877
:10542000070002B010BDFFFF2DE9F04100258AB052
:1054300000F15004064600952046674B674A6849CC
:1054400005F0D8FB00952046664B674A674905F092
:10545000D1FB00952046664B664A674905F0CAFBBA
:1054600000952046654B664A664905F0C3FB0095EA
:105470002046654B654A664905F0BCFB0095204611
:10548000644B654A654905F0B5FB00952046644BC1
:10549000644A654905F0AEFB00952046634B644ABB
:1054A000644905F0A7FB00952046634B634A6449B5
:1054B00005F0A0FB00952046624B634A634905F066
:1054C00099FB00952046624B624A634905F092FBC6
:1054D00000952046614B624A624905F08BFB0095BE
:1054E0002046614B614A624905F084FB00952046E5
:1054F000604B614A614905F07DFB00952046604B99
:10550000604A614905F076FB009520465F4B604A92
:10551000604905F06FFB009520465F4B5F4A60498C
:1055200005F068FB009520465E4B5F4A5F4905F039
:1055300061FB009520465E4B5E4A5F4905F05AFBD1
:10554000009520465D4B5E4A5E4905F053FB009591
:105550005D4B5E4A5E49204605F04CFBFFF736FF87
:105560004FF4807320224FF4164105460127FCF7C3
:105570009BFB2F7480465748FDF7C0FA5648FDF74D
:10558000B7FA3A4629463046FFF716FE534806F06A
:10559000DBF8074605F015FDA6F8760080B2FDF7AA
:1055A000E1F90146B067384605F016FD082203A967
:1055B00005A804F00BFE05A8494905F079F82A462C
:1055C00005A9204605F0FAFB05A804F013FE4046A5
:1055D0000AB0BDE8F08100BF4A6202008C6202009E
:1055E00049400100816202009162020031410100E4
:1055F00099620200A7620200E54B0100AE62020060
:10560000EF62020055410100F462020050630200A3
:105610003144010054630200E2630200B14301001F
:1056200096630200E163020041480100E563020065
:105630001364020031450100166402003B6402005D
:10564000B5460100416402006E6402002D4701006E
:1056500071640200597902008947010096640200D2
:10566000B9640200F1460100BC6402008F650200CB
:105670008D4D010093650200D66502007D49010051
:10568000DE650200F1650200394A0100F86502009A
:10569000F766020019420100FB6602002367020060
:1056A000AD4B010029670200D14E0200153B0100FD
:1056B000536702004768020041370100106802008A
:1056C000F35E02008D3601004C6802004D69020055
:1056D000694A010005540100ED530100CD5F02004D
:1056E000E455020010B5044C23681BB90120FDF7F6
:1056F00037F92060206810BD28C5072013460A46E8
:1057000001790068FCF791BD1FB5002204AB23F8B6
:10571000042D02220479009200680A462146FCF713
:105720006DFD9DF80C009DF80D3043EA002004B09B
:1057300010BD10B5044619222A21FFF7DFFF0D2204
:1057400021792068FCF746FDA0F12A035842584110
:1057500010BDFFFF044A13881F2BDFBF581C1080A9
:10576000024A42F823107047CCC507204CC50720D9
:10577000F0B5154E3388012B23DD144A0020154661
:10578000013B984208DA52F8041F013052F8044CE9
:10579000091B42F8041CF4E700214FF0010E0C46EF
:1057A000686800EB50008AB2934208DD55F8227019
:1057B0000131B8423CBF0EFA02F21443F3E7044B46
:1057C0001C6000233380F0BDCCC507204CC50720EA
:1057D000D0C5072008B50121022006F009FA084BC0
:1057E00001209A6A22F007029A629A6A42F006023F
:1057F0009A62044AD36843F03003D36008BD00BF07
:105800000080004000C0024008B5044B417101F027
:105810007F015A5C0321FFF771FF08BD9C690200FC
:1058200008B5044B817101F07F015A5C0221FFF73A
:1058300065FF08BD9C69020038B50446017900681F
:10584000FCF70BFD054688B1002206212046FFF734
:1058500055FF002207212046FFF750FF2E2120464A
:10586000FFF7D2FF2E212046FFF7DAFF284638BD8A
:1058700070B56424B1FBF4F303FB14140A21E4B201
:10588000B4FBF1F501FB15413031C9B20646FFF713
:10589000C7FF092C88BF05F130013046BDE87040D4
:1058A00094BF2021C9B2FFF7AFBF01207047FFFFAF
:1058B00038B50C460546FBF75FFE012204F00F03E6
:1058C0002B700E4B14F0010F14BFDA619A610222A3
:1058D00014F0020F14BFDA619A61102214F0040F61
:1058E00014BFDA619A614FF4807214F0080F14BF8C
:1058F000DA619A61BDE83840FBF74EBE20C009204E
:10590000012070470220FCF7EDBA01207047FFFF2D
:10591000044B5B69180B00F00C00C3F341231843E0
:10592000704700BF20C0092010B504468122012124
:10593000FFF7E4FE012221792068FCF74BFC10F010
:10594000600F14BF0120002010BD38B500210446AF
:10595000FFF7DAFE812205B201212046FFF7CEFED5
:10596000102095FBF0F007F0F5FB4FF0765107F0B3
:1059700045FCA16807F03AFB38BDFFFF08B5FFF70B
:10598000E4FF054907F03AFC044907F0EBFC4FF04F
:10599000844107F02BFB08BD000010410000A0402F
:1059A0002DE9F04FADF2546D0C46904601460122B0
:1059B00082A8994601F07CF9824650B90A22214614
:1059C0000DF22C4001F074F9824638B182A801F042
:1059D000D9FB50460DF2546DBDE8F08F6C4605467C
:1059E000064607462060019006F068FA4FF47A7286
:1059F000002307F099FD234683464FF4007202A965
:105A000082A801F0ECF9824608B922689AB9B8F187
:105A1000000F01D0C8F80070B9F1000F01D0C9F82B
:105A20000060DDF8783603B11D6082A801F0AAFBA2
:105A30000DF22C40CBE706F041FA4FF47A720023C6
:105A400007F072FDB0EB0B00074406F037FA4FF495
:105A50007A72002307F068FD01AB8346226802A931
:105A60000DF22C4001F073FA82460028CFD1019943
:105A700022689142CBD106F021FA00234FF47A72CA
:105A800007F052FD2368B0EB0B0006441D44ABE762
:105A9000F0B51D460023ADF50B7D0E4617460146B9
:105AA000012201A8009301F003F9044670B91DB169
:105AB000294601A801F078FB6B463A46314601A819
:105AC00001F08DF9044601A801F05CFB20460DF5BC
:105AD0000B7DF0BDF0B51D460023ADF50B7D0E46E8
