:020000021000EC
:10000000E03F082095010100FB000100E100010034
:10001000090101001901010029010100000000008F
:10002000000000000000000000000000E15B010093
:100030003901010000000000415C0100590101008C
:10004000057A0100057A0100057A0100057A0100B0
:10005000057A0100057A0100057A0100057A0100A0
:10006000057A0100057A0100057A0100057A010090
:10007000057A0100057A0100057A0100057A010080
:10008000057A0100057A0100057A0100057A010070
:10009000057A0100057A0100057A0100057A010060
:1000A000057A0100057A0100057A0100057A010050
:1000B000057A0100057A0100057A0100057A010040
:1000C000057A0100057A0100057A0100F0BB020003
:1000D00000C007200003000000C30720F004000058
:1000E00004207146084203D0EFF3098007F0A8BC52
:1000F000EFF3088007F0A4BC704708B5014800F092
:100100009EFEFEE73B71020008B5024800F097FE34
:10011000FEE700BF4671020008B5024800F08FFEFE
:10012000FEE700BF5171020008B5024800F087FEEB
:10013000FEE700BF5C71020008B5024800F07FFED8
:10014000FEE700BF6971020008B5024800F077FEC3
:10015000FEE700BF7771020008B506F0ABFB05F0C3
:1001600091FDBDE8084006F0B9BB0B4610B5401A3A
:100170005C1AA24203D9C45843F8044BF8E710BDF7
:100180000346002210B51C1AA14202D943F8042BE1
:10019000F9E710BD154807F07DFA144807F07DFA1D
:1001A000134C144DAC4209D3134DAC420ED254F84B
:1001B000080B54F8041CFFF7E3FFF6E794E803008C
:1001C0000C3454F8042CFFF7D0FFEBE70DF0FAFFE6
:1001D00007F072FC03F08CFD0CF0FEF94FF41640B2
:1001E00007F07EFD054800F02AFEFEE7E03F08200C
:1001F000CC000100D8000100E00001008B7102007A
:1002000008B542684B689A4207D0096800680FF049
:1002100041FF003018BF012008BD002008BD08B50F
:100220000B46016818460FF035FF003018BF01205B
:1002300008BDFFFF2DE9F743894690461F46BDF8EC
:100240002850064620B90025284603B0BDE8F083B3
:100250000029F8D0002AF6D0002BF4D014200EF09C
:1002600041F904460028EED09DF82C30002D03748F
:1002700008BF01250023C560C0F80090C0F80480C5
:100280008760009302460949706801F07AFF0546CD
:1002900018B920460EF02EF9D6E72146706801F015
:1002A00028FF05460028CFD1F3E700BF0102010077
:1002B00013B50A4640B149B10C78002344B100930C
:1002C0000449406801F047FF02B010BD0846FBE753
:1002D0002046F9E71F02010037B50D4600F02EFB5E
:1002E00048B155B12C7800234CB100932A460549FA
:1002F000406801F030FF03B030BD2846FBE72046E0
:10030000F9E700BF1F0201002DE9F3471446FFF78C
:10031000E3FF8046002800F0DF8098F810300430BA
:10032000013B85C807FB0207072B00F2D580DFE8F9
:1003300003F0224B70ABD395D30405464FF0000970
:10034000674EBD4228D2214630460FF01EFF221ACA
:10035000D8F8043050425041187023461A781C4691
:10036000013312B12C2AF9D11C46D8F808304FF0CD
:1003700001091D44E5E700230646994602ADDFF872
:1003800064A145F8043DBE4206D22A4651462046A5
:100390000FF0D6FD012803D0484602B0BDE8F08733
:1003A000D8F80820294630460EF0DBF823461A78A4
:1003B0001C46013312B12C2AF9D11C46D8F808305A
:1003C0004FF001091E44DEE700230546994602AEC0
:1003D000DFF814A146F8043DBD42DDD23246514655
:1003E00020460FF0ADFD0128D6D1D8F808203146BF
:1003F00028460EF0B6F823461A781C46013312B18F
:100400002C2AF9D11C46D8F808304FF001091D44B8
:10041000E2E74FF00009054602AEDFF8D0A006F88B
:10042000049DBD42B8D23246514620460FF088FDA9
:100430000128B1D1D8F80820314628460EF091F8AD
:1004400023461A781C46013312B12C2AF9D11C46D6
:10045000D8F808304FF001091D44E2E700210EF002
:10046000A5F820460FF028FED8F80830D8F8045038
:1004700098420246214628BF03F1FF3228460EF07B
:1004800070F84FF0010987E7002305464FF0000997
:1004900002AEDFF85CA046F8043DBD42BFF47CAF7D
:1004A0003246514620460FF04BFD01287FF474AFD1
:1004B000D8F80820314628460EF053F823461A781B
:1004C0001C46013312B12C2AF9D11C46D8F8083049
:1004D0004FF001091D44E0E74FF000095CE700BF61
:1004E0008F4D0200FE4C0200364D0200554D0200B9
:1004F000824D0200037C2DE9F74F013B05460C4677
:100500001646072B00F2F781DFE813F008008B0096
:100510000D017801D40147012A014E018368012BA6
:1005200020D14768CA4A97F90030314620460FF07B
:10053000AFFCDFF85493C7F1010807EB0803EA6842
:100540009BB2934203D3012003B0BDE8F08F204655
:100550000FF0B2FD17F9013F311A4A4620440FF05F
:1005600097FCEAE7022B1BD1D0F80480B94AB8F90E
:100570000030314620460FF08BFC0127DFF808934E
:10058000EB689F42DFD220460FF096FD0137311A0B
:1005900038F9023F4A4620440FF07AFCBFB2EFE739
:1005A000042B1BD1D0F80480AB4AD8F80030314678
:1005B00020460FF06DFC0127DFF8D092EB689F42D8
:1005C000C1D220460FF078FD0137311A58F8043FA8
:1005D0004A4620440FF05CFCBFB2EFE7082B40F026
:1005E0008A81D0F804803146D8E900232046CDE93D
:1005F00000239A4A0FF04CFC0127DFF89492EB6835
:100600009F42A0D220460FF057FDF8E90223311A8D
:10061000CDE9002320444A4601370FF039FCBFB230
:10062000EDE78368012B1CD147688D4A3B78314642
:1006300020460FF02DFCDFF85C92C7F1010807EBB4
:100640000803EA689BB29342BFF47DAF20460FF0E7
:1006500033FD17F8013F311A4A4620440FF018FCC9
:10066000EDE7022B1CD1D0F804807E4AB8F80030A8
:10067000314620460FF00CFC0127DFF81892EB689A
:100680009F42BFF460AF20460FF016FD0137311ACC
:1006900038F8023F4A4620440FF0FAFBBFB2EEE7BB
:1006A000042B1CD1D0F804806F4AD8F800303146B2
:1006B00020460FF0EDFB0127DFF8DC91EB689F424D
:1006C000BFF441AF20460FF0F7FC0137311A58F85C
:1006D000043F4A4620440FF0DBFBBFB2EEE7082B95
:1006E00040F00981D0F804803146D8E90023204643
:1006F000CDE900235D4A0FF0CBFB0127DFF89C9189
:10070000EB689F42BFF41FAF20460FF0D5FCF8E91D
:100710000223311ACDE9002320444A4601370FF065
:10072000B7FBBFB2ECE74768514A3B7831462046F9
:100730000FF0AEFBDFF86891C7F1010807EB080383
:10074000EA689BB29342BFF4FEAE20460FF0B4FCC1
:1007500017F8013F311A4A4620440FF099FBEDE7A4
:100760004768444A3B78314620460FF091FBDFF85A
:100770003491C7F1010807EB0803EA689BB2934282
:10078000BFF4E1AE20460FF097FC17F8013F311A95
:100790004A4620440FF07CFBEDE74368364A314679
:1007A00020460FF075FBCEE6D0F804A0334F9AF840
:1007B0000030DFF8F480324A002B14BF3B4643463A
:1007C000314620460FF064FBD146DFF8E0B0CAF1B5
:1007D00001034B44EA689BB29342BFF4B4AE204697
:1007E0000FF06AFC19F8013F311A002B14BF3B4689
:1007F00043465A4620440FF04BFBE8E7D0F80490FC
:100800000127D9F800000CF0EFFB1E4ACDE90001EA
:10081000314620460FF03CFBDFF894A0EB689F4286
:10082000BFF491AE20460FF047FCA6EB000B04EBA3
:10083000000859F8040F0CF0D7FB0137CDE900018F
:100840005246594640460FF023FBBFB2E6E700BFD1
:10085000DE4C0200EA4C0200F34C0200024D0200A2
:10086000134D0200204D02002A4D02003A4D0200B5
:100870004C4D0200584D0200624D02008F4D0200A7
:100880006C4D0200784D0200E64C0200FD4C020067
:100890000D4D02001C4D0200354D0200464D020078
:1008A000544D0200554D0200D84C0200744D020018
:1008B000814D0200D0F804803146D8E9002320465B
:1008C000CDE900230D4A0FF0E3FA0127DFF830905D
:1008D000EB689F42BFF437AE20460FF0EDFBF8E91E
:1008E0000223311ACDE9002320444A4601370FF094
:1008F000CFFABFB2ECE7002026E600BF854D02002C
:10090000814D020038B514461D46FFF7E5FC28B1BD
:100910002A462146BDE83840FFF7ECBD38BD10B58A
:100920000C4611461A46A047012010BD08B50068C4
:100930000FF0B0FB003018BF012008BD07B5002341
:1009400030B10246044800930449006801F003FCFA
:1009500003B05DF804FB00BF00C307202D090100B0
:10096000F8B5064610B900242046F8BD0378002BE0
:10097000F9D0154D2B6813B901F0AEFB2860304655
:10098000FFF7DCFF07460028EDD108200DF0AAFD97
:1009900004460028E7D080E8C00001F09DFB6060BD
:1009A00018B920460DF0A6FDDDE72868214601F0C4
:1009B000A0FB05460028D7D160680DF09BFD2046BE
:1009C0000DF098FD2C46CFE700C3072007B50B4676
:1009D00030B10092024604480449006801F0D1FB9E
:1009E00003B05DF804FB00BF00C307201F0901002E
:1009F0002DE9F0430646C1B0154698460C4600293D
:100A000050D0114647680068A04729462648A047AD
:100A1000B268264968460FF06FFA29466846A04733
:100A2000F268224968460FF067FA29466846A047EF
:100A30001F49327C68460FF05FFA29466846A04796
:100A4000B8F1000F0FD069464FF480723046FFF7BF
:100A500051FD29466846A04716482946A04701206F
:100A600041B0BDE8F0833A78134968460FF044FA84
:100A700029466846A047B368F668DFF840905E43B1
:100A800007F101080136A6EB08033B44012BE3D92B
:100A9000494618F8012B68460FF02EFA2946684699
:100AA000A047F0E70846DBE7DC670200944D020050
:100AB000994D0200C06902009E4D02009D4D02004A
:100AC00070B50D4604460FF0F7FA2B460246012199
:100AD0002046BDE870400DF067BBFFFFF0B50C4647
:100AE00087B017461D46064648B341B31022002181
:100AF00002A80DF05BFD706801F0F8FA114902469A
:100B000002A80FF0F9F929460F48A0472946306896
:100B1000A04729460D48A047294602A8A0470097AC
:100B20002B4622460A49706801F02BFB29460948EA
:100B3000A04729463068A04729460748A04707B084
:100B4000F0BD00BFA7610200A34D0200DC670200F8
:100B5000F1090100AA4D0200C06902004B688A68D1
:100B60000968FFF7BBBFFFFF1FB501900291039219
:100B700001A900220248FFF729FF05B05DF804FB38
:100B80005D0B01000B4619B100220249FFF7A6BF19
:100B9000704700BFC10A01002DE9F04FC9B008AE8F
:100BA00005468022002130460DF000FD0024DFF8CC
:100BB0009CA12A467F2130460DF0DCF818B920466A
:100BC00049B0BDE8F08F604930460FF0DEFA86424A
:100BD000EFD13A210FF050FA00F101083A214046D6
:100BE0000FF04AFA07460028E3D00023037040467E
:100BF000FFF7A4FE01900028DBD0781C0CF0EBFE80
:100C000080460DF1A009B8F1000F01D10124D0E711
:100C100000248022002148460DF0C8FC27462846C3
:100C20000DF03EF8431C19D03A2819D10137032F93
:100C300016DD002407AA51464846079410F015F91E
:100C400007AA51460746204610F00FF907AA834627
:100C50005146204610F009F904463FB90024AEE79A
:100C600009F8040001347F2CD9D1E2E7BBF1000F71
:100C7000F4D00028F2D058460CF0ADFE8346204652
:100C80000CF0A9FE394600FB0BFB0198FFF710FBA7
:100C900080B18268C36853439B450BD1476807EB1B
:100CA0000B034FF0FF3B0393039B9F4205D1BBF126
:100CB0000A0FD3D108F1FF38A5E728460CF0F0FF62
:100CC000044628460CF0ECFF029028460CF0E8FFA2
:100CD000B0F1FF3F8346C1D00DF092FBE3B25A1C46
:100CE000815C480712D5303C0DF08AFB9DF8083036
:100CF000E4B25A1C815C24014907E4B215D5029B79
:100D0000303B1C44E4B207F8014BCDE70593049255
:100D10000DF076FB049A059B825C02F00302012A27
:100D200008BF2033A3F15704DEE7049202930DF0CD
:100D300067FB049A029B825C02F00302012A08BF4F
:100D40002033573BDDE700BFA34D0200DC67020004
:100D50002DE9F34100240746904601940D4629B140
:100D600020B1786801F0C2F9844202D302B0BDE834
:100D7000F08101AA2146786801F0D7F978B1C368FB
:100D800086685E43B8F1000F06D02B684168324692
:100D900008EB03000DF0E5FB2B681E442E600134C8
:100DA000DFE72DE9F74300248846174601940646FD
:100DB000C0B1706801F09AF9844213D201AA2146A9
:100DC000706801F0B2F990B1C3688568D7F80090F7
:100DD0005D4341682A4608EB09000DF0B3FB20B1E2
:100DE00000233B6003B0BDE8F0834D443D60013417
:100DF000DFE707B5002202A941F8042DFFF7A8FF9D
:100E0000019803B05DF804FB07B5002202AB43F87C
:100E1000042D0A461946FFF79BFF019803B05DF8C1
:100E200004FB002307B502AA42F8043DFFF7B9FF0F
:100E30000198003018BF012003B05DF804FB10B525
:100E4000044604F0E1FE013C14F8010F18B9BDE8B6
:100E5000104004F0E9BE06F07FFFF5E70FB470B56F
:100E60004FF48075C2B046AC54F8046B2A4600219A
:100E700002A80DF09BFB23463246294602A80194A6
:100E800010F02AFB044602A8FFF7D9FF204642B023
:100E9000BDE8704004B0704710B5012304462370CC
:100EA0000023002AD4BF1A4602F1FF32A16008468F
:100EB000E3602361626000210DF078FB204610BDE5
:100EC00038B50446806818B123780BB90DF012FBD1
:100ED000E56835B12846FFF7F3FF142128460BF0EB
:100EE00092FC204638BD80680FF0E6B84068704735
:100EF000002283681A7070470EB403B503AA52F833
:100F0000041B8068019210F019FB02B05DF804EB3D
:100F100003B070470CB4F7B5002408AB02AD53F82A
:100F2000047B45F8044D2A4680680E4600930FF076
:100F30009CFF78B13B1B002B0CDD009B1A1D1B682E
:100F4000009203B118602A46314600200FF08DFF51
:100F50000134EEE7204603B0BDE8F04002B0704730
:100F600008B50B46816818460FF094F8B0FA80F087
:100F7000400908BD08B580680FF051F8B0FA80F05C
:100F8000400908BD2DE9F74F0F788A46A7B34FF007
:100F9000FF35866833788BB333787BB3384610F0EF
:100FA00023F8014630460FF067F838B9384610F09C
:100FB00028F8014630460FF05FF8E8B10446851B7B
:100FC0000AF10108461C14F8010FC14688B198F8CF
:100FD00000B008F10108BBF1000F0AD010F004F8CE
:100FE0000190584610F000F8019B8342EBD04FF07F
:100FF000FF3599F80030CEE74FF0FF35284603B0B3
:10100000BDE8F08F08B5FFF7BDFF013018BF012024
:1010100008BD10B5846820460FF0B7F808B1001B72
:1010200010BD4FF0FF3010BD70B5044608460D46A8
:101030000FF042F806462046FFF755FF864208DCCF
:1010400032462946A0680FF066F8B0FA80F04009F1
:1010500070BD002070BD70B5054608460C460FF007
:101060002BF806462846FFF73EFF864208DC32464C
:10107000A96820460FF028F8B0FA80F0400970BD4A
:10108000002070BDF8B5044608460E4617460FF01E
:1010900013F805462046FFF726FF85420CDCA368BF
:1010A000314620465D5DFFF7D6FF30B1BD4204D02A
:1010B000B5FA85F04009F8BD0020F8BD38B50C46FA
:1010C0000546FFF710FF002C024609DDA04207DBB2
:1010D000A868121B013201190DF04EFA012038BD2B
:1010E000002038BD38B50C460546FFF7FCFE00234E
:1010F000A042A1BFAA68001B13540120B8BF184624
:1011000038BD70B50D4606461446FFF7ECFE002DBF
:1011100011DBA8420FDD002C0DDD421B9442A8BF5D
:101120001446B068121B2C440119013228440DF0FA
:1011300023FA012070BD002070BD70B505460E4633
:10114000FFF767FF431C044609D030460EF0B4FF9A
:10115000214602462846BDE87040FFF7D2BF002076
:1011600070BDF8B585680F462B460024591B13F84F
:10117000016B3EB1BC4203D09642F7D10134F5E792
:10118000FFF79CFF201C18BF0120F8BDF8B50646EC
:101190000D46FFF7A8FE00240746BC420EDA28469B
:1011A0000EF08AFF2B465A1B904207DDB16813F8F8
:1011B000012B095D9142F6D10134EEE72CB12146B5
:1011C0003046BDE8F840FFF779BFF8BDF8B50546F1
:1011D00008460C460EF070FF07462846FFF783FED0
:1011E0000026013800280DDB23461A1B974209DD33
:1011F000AA6813F801EB1118125C7245F5D10E7054
:101200000138EFE7F8BDFFF7ABBE80687047806834
:101210000CF0E1BB38B50C460546FFF764FEA04272
:10122000A868C8BF001938BD037870B50546FBB97A
:10123000B1B10131102491FBF4F4AE680134240102
:101240006C607EB920460DF04DF9A86018B12246B9
:1012500031460DF0ABF9A868003018BF012070BD11
:101260000421E7E7611C30460EF02AFCA860F2E793
:10127000002070BD0022027042608260C260026184
:10128000FFF7D2BF10B50446FFF7F4FF204610BDAC
:1012900043688B4201DAFFF7C7BF012070470EB4E5
:1012A000F3B50646002407AB53F8047B0093B068FF
:1012B00080B17568009B01353A462946019310F0CC
:1012C0000BF98542044605DC411C3046FFF7E0FF80
:1012D0000028ECD1204602B0BDE8F04003B07047D2
:1012E00038B505460C46FFF7FEFD6B68211899429C
:1012F00005DD2846BDE838402031FFF795BF0120C5
:1013000038BD70B5054608460E460EF0D5FE0146BE
:101310002846FFF7E5FF044618B13146A8680EF0ED
:101320009CFE204670BD002307B5ADF8043002AB2B
:1013300003F8041D1946FFF7E4FF03B05DF804FB52
:1013400070B5044608460D460EF0B6FE63680146C9
:1013500098420DDD2046FFF767FF064640B96268F8
:101360002946A0680EF0E9FEA2686368D65470BDF5
:101370002946A068BDE870400EF096BEFFF7E0BFBA
:10138000002313B50C4602A941F8043D006805F09E
:10139000C5FC019B1BB1236843F0010323600120BE
:1013A00002B010BD30B5044685B001A80D4601F06D
:1013B00021FB9DF80630227903F01F039A421BD1CE
:1013C0009DF80530627903F03F039A4214D19DF8ED
:1013D0000430A27903F03F039A420DD1002304A9FF
:1013E00041F8103D2368186805F098FC009B1BB17C
:1013F0002B6843F001032B60012005B030BDFFFFD7
:1014000030B50025234A87B01378234C43F00103FD
:10141000137003A8029501F0EDFA2B46009502AA7D
:101420001E49206800F0ADFE9DF80C3013F03F031C
:101430001BD1009302AA1949606800F0A2FE9DF832
:101440000D3013F03F0310D1009302AA1349A06896
:1014500000F097FE9DF80E3013F01F0305D10093A6
:1014600002AA0E49E06800F08CFE00230C480093AD
:1014700002AA0C49006800F084FE029B3BB14FF0C9
:101480008052094B1A60BFF34F8FBFF36F8F07B0C5
:1014900030BD00BF0040024004C30720811301009B
:1014A00014C30720A513010004ED00E02DE9F84F57
:1014B0001C4F04468846002B18BF1F46914672B346
:1014C00069B3436882689A421CD305685D1919D2D2
:1014D000A900C0680EF0F4FAA668E0604FEA860A38
:1014E000B5420ED9102005F0F3FF834610220021EB
:1014F0000DF05CF8E368013643F80AB00AF1040A1B
:10150000EEE76560A368E268591C52F823300A9A36
:10151000A160C3F800905F60C3F80880DA60BDE89E
:10152000F88F00BFC16902002DE9F04F0C4693B05F
:1015300080464FF0FF321F49204601F065F9002533
:10154000DFF87890DFF878A0DFF878B0D8F80830C6
:101550009D4226D2D8F80C3053F825707B68184687
:1015600001930EF0A9FD2028019B14D902AE3A6820
:10157000514630460EF0C0FC0A2130460EF0F2FD16
:10158000864202D259460EF08FFD3146204601F0C8
:1015900085F90135DAE73A684946204601F07EF9D7
:1015A000F7E74FF0FF320449204601F041F913B04C
:1015B000BDE8F08F2A4E02005D4E0200514E02003F
:1015C0003E4E0200CD7102002DE9F041054608466D
:1015D0000F461646FFF787FC002823DD0024AB6882
:1015E0009C421BD2EB68384653F82480D8F8001090
:1015F000FFF7C0FC80B1D8F804305BB11A780C4911
:10160000002A18BF19464FF0FF323046BDE8F041BE
:1016100001F00EB90649F6E70134E0E74FF0FF327A
:101620000449F2E731462846BDE8F041FFF77CBFA8
:10163000AF4D0200D34D020038B50D4600242846B8
:10164000FFF751FC844208DA21462846FFF7E2FD05
:101650000378202B01D00134F1E721462846FFF71B
:101660002DFD2846BDE838400149FFF78FBD00BF7A
:10167000755402002DE9F04F0C4691B051490646D1
:1016800020461546FFF7A2FD20224F492046FFF7CE
:10169000F9FC074600284CD18146B368994556D3DA
:1016A0004FF00009DFF82CB1B368994580F08280D3
:1016B0002022F3680DEB020153F8298003A8FFF7FD
:1016C000EBFBD8F8001003A8FFF758FE002301AA8F
:1016D0005946204601930293FFF70EFC01A80EF035
:1016E000EBFC012860D901A903A8FFF7B4FC8246EE
:1016F000002859D0D8F8002021463046FFF79CFF3B
:10170000D8F80830D8F80C2029462046984760B908
:101710004FF0FF322D49284601F08AF84FF0FF3292
:10172000D8F80410284601F083F803A8FFF7C8FB97
:1017300035E0254A21463046FFF77EFF2A462146FE
:101740003046FFF741FF384611B0BDE8F08FF3682F
:10175000202253F829802046D8F80010FFF792FC89
:101760008246F0B1D8F8002021463046FFF764FFEA
:10177000D8F80830D8F80C20294620469847074664
:101780000028E0D14FF0FF321049284601F050F810
:101790004FF0FF32D8F80410284601F049F85746B8
:1017A000D1E709F1010978E703A8FFF789FB09F1FF
:1017B000010979E74FF0FF320549284601F038F872
:1017C000C1E700BFF84D0200FB4D0200004E0200D1
:1017D000D34D0200254E02000120704701207047C2
:1017E00001207047936810B4013B002B936008DA26
:1017F0009469A34202DBCBB20A2B02D110BC0FF0DA
:10180000A7BE1368581C10601970C8B210BC70478E
:101810000A4B70B51B780D467BB1094E441E14F877
:10182000011F21B130688268FFF7DCFFF7E725B1BF
:101830002846BDE870400EF0D9B870BD1CC3072023
:10184000E4C0072070B50C460B4E451E15F8011F6D
:1018500021B130688268FFF7C5FFF7E724B1204661
:10186000BDE870400EF0C2B8034B0A21BDE87040DD
:1018700018688268FFF7B6BFE4C007203F4B2DE928
:10188000F7431A68036904469A4236D100273D4659
:1018900000213B48FFF7BCFF3A49606AFFF7B8FFF9
:1018A00000213948FFF7B4FF384BDFF8EC901E6891
:1018B0008EB1D6F800800137D8F8003040461B6959
:1018C000766898470028F3D14946D8F82400FFF7F6
:1018D000B9FF0125ECE755B92D4EAF420DD00023DD
:1018E00030681A46194605F045F90135F5E73146E5
:1018F0002848FFF7A7FF04F0AFFB002324484FF070
:10190000FF321946006805F03DFA04F0BDFB02AE57
:1019100046F8040D04F0B8FB0546DFF880806068E7
:1019200018B1E16805F007FBA0602368A16A5B6954
:1019300020469847074630B9606A4146FFF782FF64
:10194000384604F045FDA3690133A361236A1BB146
:1019500004F09AFB854206D3E1690029DFD03046C6
:1019600004F096FCDBE704F08FFB256A0544206950
:1019700004F0C0FE80006061EEE700BF2CC30720CA
:10198000665002006A5002009750020018C30720F8
:1019900028C30720DD500200C45002000551020098
:1019A0002DE9F74F594D8046296839B95848FFF756
:1019B00049FF0124204603B0BDE8F08F4FF0000935
:1019C0004C4600215348FFF723FFDFF878B12E681B
:1019D000DFF874A1CEB13768766807F11003FA6AB0
:1019E000019397F83030C2F38F020093796A3B4637
:1019F000584609F1010904F001FA0028EAD15146DC
:101A0000786AFFF71FFF0124E4E73146484605F0F6
:101A1000A8F8414B186020B931464048FFF712FF43
:101A2000012400213E48FFF7F3FEDFF820912E68E5
:101A30006EB1376876683B6838469B6898470028DF
:101A4000F6D14946786AFFF7FDFE0124F0E73146FA
:101A50003448FFF7DDFE2F6887B3C0CF33683046C8
:101A6000DB68984700284CD0B8F1000F23D04FF026
:101A700001094FF0020A706AFEF772FF042306F1B3
:101A8000140229498DE800068346FEF7D3FB8DE852
:101A9000000600284FF0040306F1180223495846B7
:101AA00008BF4C46FEF7C6FB28B92149706AFFF70C
:101AB000C9FE0124D0E7002CCED0F6E739461D48F8
:101AC000FFF7A6FE1C491D480CF04CFA064620B153
:101AD000FFF762F830460BF0EBFF00212A680D4655
:101AE000174B186842B117685268FE6AB542F9D2BE
:101AF000386935460121F5E700293FF45BAF1860EE
:101B000058E7B8F1000FD0D04446B0E718C307201B
:101B1000394F0200674F020028C30720994F020087
:101B2000BC4F0200EB4F0200105002001B5002009D
:101B30002550020049500200DE5D0200E26602000C
:101B40002CC307207D1801007E4F0200D74F0200F2
:101B500010B5044638B1082005F0BAFC024B046009
:101B60001A681860426010BD18C307200B4B10B5EF
:101B700018700846FFF714FF044658B90146084894
:101B8000FFF746FE04F036FA21460648BDE810404D
:101B9000FFF758BE00210448F8E700BF1CC3072028
:101BA000C44E0200DF4E0200034F020070B50B4D21
:101BB0004FF47A76056000254560856005614561D2
:101BC0008561C5614EF6602541620499C660056273
:101BD0008162C26280F8303070BD00BFAC4E02003E
:101BE000044B1A6890423ABF5B6853F8200000200B
:101BF000704700BF20C30720002337B502AC44F86C
:101C0000043D0D4D40B9034602462146286805F0C3
:101C1000B9F8019803B030BD0A222146286805F0C2
:101C2000B1F803460028F4D104490A8801320A8039
:101C30004FF0FF32E9E700BF34C3072030C307206D
:101C4000F0B50024ADF50D7D0D460746029405F074
:101C500049FE4FF47A7200230BF02EFD4FF4097207
:101C60000646214603A80CF0A1FC002D38D0122214
:101C70001C4903A808F0ACF9044668BB069903A800
:101C800008F022FC044630B902AB2A46394603A8C4
:101C900008F0EDFA044603A808F004FC05F022FE63
:101CA0004FF47A7200230BF007FD0F4B801B1A884C
:101CB0009042029A88BF188095420CBF01260026E8
:101CC00006D0059B2146009308482B460DF01AFECE
:101CD00030460DF50D7DF0BD05480DF013FEDDE736
:101CE0002C46DBE79B51020038C30720B9510200A4
:101CF000A55102002F4B2DE9F74F1D68DFF8BC906E
:101D00002E46DFF8BCA005F58068002302AF47F837
:101D1000043D4EF660223946D9F8000005F032F84D
:101D200008B1019B2BB9711B2846FFF789FF2E468E
:101D3000EBE7D9F8000005F0F3F8BAF80030019CA1
:101D40000130984288BFAAF8000020460EF0B4F98E
:101D50000A230021235400F1010B019A06EB0B0426
:101D600002F80B10A04501991FD8A8EB06023046D7
:101D70000CF0F7FBA4EB08044FF480612846FFF752
:101D80005FFF3CB10199ABEB040B22465944284656
:101D90000CF0E7FB2C44084800234FF0FF32394693
:101DA000006804F0E7FE2646AFE75A4630460CF0DE
:101DB000D8FBF0E750C3072034C307204CC30720EB
:101DC00032C3072073B502AC44F8040D0D4649B187
:101DD00000234FF0FF3221460A48006804F0CAFE93
:101DE00002B070BD06460EF067F90A233354019B1A
:101DF000411C5D540198FFF723FF2B462A462146DC
:101E00000148EAE74CC3072034C3072007B504F0B4
:101E100081FC02280CD1084B1B684BB100230748FA
:101E200002A941F8043D4FF0FF32006804F0A2FE21
:101E300003B05DF804FB00BF50C307204CC307206C
:101E400003289ABF024B53F820000020704700BFC0
:101E50003CC30720014B1888704700BF30C30720E0
:101E6000014B1888704700BF38C30720014B188802
:101E7000704700BF32C307202DE9FF412B4C80463D
:101E80002568002D4AD14FF4806003950CF02AFBA1
:101E9000274E2060A8B92068002842D1336863B17A
:101EA0000A24002303A91A46306804F06BFF10B11E
:101EB00003980CF01FFB013CF3D11E480DF096FD7A
:101EC0002CE02A4604210A2004F032FE1A4F2A464A
:101ED000386004210A2004F02BFE3B683060002BA0
:101EE000D9D00028D7D00A2596200CF0FBFA039011
:101EF0000028D0D0002303A91A46306804F03AFE27
:101F0000013DF1D10195CDF800802B464FF4C07210
:101F10000A490B4803F072FF0028BCD004B0BDE8AA
:101F2000F0810CF0E7FA00232360B7E750C30720E5
:101F300034C307204F5102004CC307204851020010
:101F4000F51C0100012303FA00F0044B1A7811B1CB
:101F500010431870704722EA0000FAE700C007201B
:101F60002DE9F04F9A46454B97B01B6806460C4644
:101F70001546002B7CD00FA800F03CFD05F0B2FC0C
:101F80004FF47A7200230BF097FB814604F0C2FBFA
:101F90003B4B821ED2F1000816AF48EB02080FCB74
:101FA00007E90F00002C66D02F2120460EF0DAF84A
:101FB00020B95C2120460EF0D5F800B1441CDFF8B2
:101FC000D4B04046002D08BF5D46FFF715FE9DF8D2
:101FD0003E1095F800C001F01F0E9DF83D109DF8D1
:101FE000412001F03F010B919DF83C109DF84030DD
:101FF00001F03F010C9116A901EB860151F8101C6C
:1020000003F01F030D911F49CDF800E0BCF1000F54
:1020100008BF594607910D9902F00F0204910C99DF
:10202000CDF820A002910B990695019105941649CF
:10203000CDF80C9007460DF05FFF21ABC0F1950184
:10204000209A38440E930FF047FA104A414652F84E
:1020500026303846013342F82630FFF7B3FE0C4BEA
:102060001B7843FA06F6F30702D538460DF0BEFC9E
:1020700017B0BDE8F08F074CA1E700BF50C30720A1
:1020800038510200964F0200745102003CC30720F1
:1020900000C00720C16902000FB40E4B37B51B68A2
:1020A00093B104F037FB831E5C425C412046FFF78E
:1020B000A3FD054607AB9521069A01930FF00CFA94
:1020C00021462846FFF77EFE03B0BDE8304004B04D
:1020D000704700BF50C3072008B50C200CF002FA6F
:1020E00018B1002303604360836008BD00B18068BD
:1020F000704738B50D46044608B9002038BD0820A1
:102100000CF0F0F90028F8D0002343602368056044
:1021100033B92060A36860600133A360012038BD3B
:102120006368002BF6D05860F4E798B12AB121B16A
:10213000106878B14368136008E0006841B100B9E5
:10214000704740680139F9E7002AF3D10068704709
:102150000028F9D17047F8B50D4616461F4608B954
:102160000020F8BD0029FBD00468002CF8D0069BA5
:102170003A4631462068A84708B92068F8BD646827
:10218000F3E7F8B50D4616461F4608B90120F8BD1D
:102190000029FBD00468002CF8D0069B3A46314653
:1021A0002068A84708B16468F5E7F8BD70B5064631
:1021B00005F098FB841941F1000505F093FBA94255
:1021C00008BFA042F9D370BD08B504F0A3FA831E7E
:1021D0005842584108BD10B50446FFF7F5FF20B13D
:1021E0002046BDE8104004F07FB84FF47A70604399
:1021F000BDE81040FFF7DABF37B5044615468DF845
:10220000071004F087FA022809D063699DF80720B7
:102210001A701A7D5206FCD5012003B030BD002390
:102220002A460DF10701E06904F0A4FC0028F4D06F
:1022300063691B7D5B06EFD500230DF107011A468C
:10224000E06904F09FFD0028E6D063699DF807204F
:102250001A70E1E710B50446024B036000F06AFB18
:10226000204610BD2052020010B50446FFF7F2FFD1
:1022700020462C210AF0C7FA204610BD10B50446AE
:1022800004F048FA022807D1E06904F049FE18B1C9
:10229000012004F029F8F7E7012010BDF8B5064643
:1022A00014460F4609B90020F8BD8369002BFAD007
:1022B00004F030FA022809D1002322463946B069D9
:1022C00004F060FD003018BF0120F8BD05F00AFBE6
:1022D0004FF47A7200230BF0EFF900250444002339
:1022E00039461A46B06904F04DFD58B905F0FAFABE
:1022F0004FF47A7200230BF0DFF98D4208BF84425D
:10230000EDD2D0E70120F8BD802310B54469090162
:102310002373006AB0FBF1F00AF044FE064B002282
:102320000AF004FD0AF0B4FE80B2030A237103230D
:10233000C0B22070237310BD0000E03F002373B5CE
:10234000426901938DF803309368044603F00E034D
:10235000042B21D00C2B1FD0022B3FD1C06904F0DD
:10236000E8FDE38C984203D9E06904F0E2FDE084E3
:102370001026002501AA0DF10301E06904F09CFD7F
:1023800000282ED15DB34FF080521B4B1A60BFF373
:102390004F8FBFF36F8F22E003F07CFE0025A06219
:1023A00063691A7DD2070ED51B7801AA8DF8033018
:1023B0000DF103010023A06904F070FC019B002BC8
:1023C00018BF0125ECE7A06904F0B3FDA38C984287
:1023D000D8D9A06904F0ADFDA084D3E7137D02B085
:1023E00070BD63699DF803201A70019B002B18BF14
:1023F0000125013EC6D0BDE704ED00E038B5044636
:102400000D4600F087FA064B6561236000232046E5
:10241000A361E3612362A384E384A36238BD00BFA8
:102420002052020070B516461D46254A43690446EF
:10243000934201622FD10121032005F0EDF8202203
:10244000204B31461A604122636920461A721A7A7B
:1024500042F006021A72FFF757FFA26942B9082D2F
:1024600028464FF00101B8BF082004F061FBA061CD
:10247000E2693AB9049801210828B8BF082004F09D
:1024800057FBE061072263695A60A3690BB1E369F6
:10249000A3B9002070BD0C4A934205D10121182038
:1024A00005F0BAF88022CBE7084A9342F1D1012126
:1024B000192005F0B1F84FF48072C1E7012070BD1A
:1024C00000C0004000E100E00080094000C0094079
:1024D0002DE9F04790F8055104468A46174699467B
:1024E000089EDDF824801DB100252846BDE8F08750
:1024F0000AB9002EF8D004F00DF9022835D00023D7
:10250000202284F81131D4F80031C4F81471C4F8D1
:102510001C6184F810A1C4F81891C4F820811A60D5
:1025200005F0E0F94FF47A7200230BF0C5F810F5CE
:102530007A7641F100070023D4F80C011A461946B7
:1025400004F020FC28B194F81151B5FA85F56D0915
:10255000CBE705F0C7F94FF47A7200230BF0ACF823
:102560008F4208BF8642E6D2EDE700234FF47A722D
:102570001946D4F8080104F005FC0028B4D0002363
:10258000D4F80C011A46194604F0FCFB0023202164
:10259000D4F8002184F810A184F81131C4F8147122
:1025A000C4F81891C4F81C61C4F82081D4F80C0157
:1025B00011604FF47A72194604F0E4FB20B194F8EC
:1025C0001151B5FA85F56D090023D4F808011A46B2
:1025D000194604F0CFFA88E710B441F0010110BCAD
:1025E000FFF776BF7FB500238DF8173001238DF8F4
:1025F0000F200DF11702009201930DF10F02FFF76A
:10260000EBFF9DF8170007B05DF804FB1FB504ACA5
:1026100004F8012D069A0093019201232246FFF748
:10262000DBFF04B010BD13B5002401F0FE010194DE
:102630000094FFF74DFF02B010BD07B58DF80420E0
:102640008DF8053001AA0223FFF7EDFF03B05DF816
:1026500004FB07B58DE80C00002341F001011A4688
:10266000FFF736FF03B05DF804FB002307B502AAAD
:1026700002F8013DFFF7EDFF03B05DF804FBFFFF3B
:1026800038B500250446C0F8001180F80551012036
:1026900004F0F2FA0322C4F808012946012004F0EC
:1026A00047FAD4F800310C4AC4F80C0193420CD01C
:1026B00002F5882293420AD0A2F50422934208D15F
:1026C0000A2384F80431204638BD0B23F9E70C2394
:1026D000F7E76323F5E700BF00C0054090F9043138
:1026E00070B50B2B05460C46164635D00C2B36D054
:1026F0000A2B37D10121072004F08EFFB6F57A7F2F
:1027000098BF4FF47A714FF06C0294BF7143164931
:10271000D5F80031B4FBF1F19A6128226420490810
:102720004A43B2FBF0F21A613C2251430022B1FB52
:10273000F0F15961DA601A625A629A62402201200D
:102740001A6095F90431094A590903F01F0300FA88
:1027500003F342F8213070BD01211320CCE70121A1
:102760001A20C9E7002070BDA086010000E100E04A
:102770000822D0F800319A6170472022D0F8003149
:102780001A6070472022D0F800319A617047042205
:10279000D0F800311A6070470422D0F800319A61F5
:1027A00070472022D0F800319A6110221A60082266
:1027B0009A611A68D206FCD490F81031DB074CBF3E
:1027C0000123022380F830317047FFFF13B5044620
:1027D00009F08EFD88B1002302A941F8043DD4F828
:1027E0000C0104F09BFA019B3BB14FF08052044B6B
:1027F0001A60BFF34F8FBFF36F8F02B010BD00BFE1
:1028000004ED00E00120704770B50546164609B991
:10281000002070BD4C1E14F8011F39B12B683246E0
:102820005B68284698470028F5D1F1E7012070BD84
:1028300038B504461546FFF7E7FF2A462046BDE8AF
:1028400038400149FFF7E0BFF84D02002DE9F7439A
:10285000002407460D469046994602AE06F8014D03
:102860003B684A461B6831463846984778B19DF820
:1028700007200D2A03D00A2A1CBF2A700135013413
:10288000444509DA0A2AEBD100232B7001E0002C21
:10289000FAD103B0BDE8F0830020F5E70EB433B5FC
:1028A000044603F037FF022806D100234FF0FF3221
:1028B0001946E06804F066FA06AB0093009B059A9F
:1028C0002189606801930EF007FE2389054698422E
:1028D0000ADB20F00F01103189B2218160680DF010
:1028E000EFF860600028E9D14FF0FF3261682046C0
:1028F000FFF78AFF03F00EFF022805D10023E068EE
:102900001A46194604F036F9284602B0BDE83040B0
:1029100003B07047064B10B50360002304464360C4
:1029200003810374012004F0A7F9E060204610BD84
:1029300050520200044B10B504460360406808B1D1
:102940000BF0D8FD204610BD5052020070B5184B58
:102950000E465C69174B05461A6C1A2022F4700269
:102960001A641A6C04F4406442F420021A64996EEA
:1029700041F440619966196821F470011960196881
:1029800041F420011960032104F060FE04F02CFFE3
:10299000B4F5406F06D13246C1082846BDE8704004
:1029A000FFF79CBE0123002085F8053170BD00BFF4
:1029B00000C0092000C0024010B504460249FFF7DC
:1029C0005FFE204610BD00BF00000A4038B5084C2D
:1029D00023683BB94FF4947004F07AFD0546FFF785
:1029E000EBFF25602068BDE83840FFF7EFBE00BF71
:1029F00054C30720F0B587B06C460F4D074695E8E5
:102A000007008DE8070003AE95E8070086E8070099
:102A10000C22314620460BF095FD38B903CC3860C6
:102A200020687960B860384607B0F0BD95E80700C7
:102A300084E80700E8E700BF144002400022184B7A
:102A40001A720278C2F3050283F820204278C2F39A
:102A5000050283F824208278C2F3040283F8282038
:102A6000C278C2F3020283F830200279C2F3040272
:102A700083F82C204279C2F3030283F83820C1790D
:102A8000827901F00F0142EA0122417A9A87027AA3
:102A900001F00F0142EA01229A8601221A72704760
:102AA000004002401FB50121092004F0B5FD0122BC
:102AB0002F4B01A81A72FFF79DFFBDF80A3003F6ED
:102AC0002603C3F30B030F2B1ED89DF8053003F02C
:102AD0003F033B2B18DC9DF8043003F03F033B2BF6
:102AE00012DC9DF8063003F01F03172B0CDCBDF839
:102AF0000C30C3F30B03B3F5B77F05DA9DF809304B
:102B000003F00F030C2B2FDD01229DF8083001A8E4
:102B100062F304038DF808309DF8093062F3030373
:102B200040F2DA728DF80930BDF80A3062F30B0317
:102B3000ADF80A309DF807306FF302038DF80730C7
:102B40009DF806306FF304038DF806309DF80530CC
:102B50006FF305038DF805309DF804306FF305031E
:102B60008DF80430FFF76AFF05B05DF804FB00BF85
:102B70000040024007B501A80EF022FA01A80AF0B1
:102B800037FF03B05DF804FB08B501211D2004F0F8
:102B900043FD0122024B1A631A6BD207FCD508BD14
:102BA000004000504FF0FF3337B5B1F5805F01931F
:102BB0004AD2274B1C69E50748D4264C2469E40710
:102BC00044D4254CE5686D0735D40325234CA56016
:102BD0002561234D1D60002A2FD001AC5C6041F0BF
:102BE0000044DC6000249C6041F206041C61194C26
:102BF0003AB3206041F080610022E1606560A2602C
:102C00004FF4086222611A6942F001021A612269D6
:102C100042F001022261104A516A41F003015162FF
:102C2000D868C0F30B000028FAD1536A23F00303DD
:102C3000536203B030BDA568C4E7586041F0084452
:102C4000CFE701AA2260D7E70120F2E70220F0E7F0
:102C5000204100500041005000000340004000505F
:102C60000800034070B590F853508AB0044605B987
:102C7000457C284605F084FD002294F8523084F803
:102C8000522094F8542006460092012104F13A02A1
:102C9000284605F0A3FB044670B1314602A806F0B1
:102CA000F5F848B19DF80C3003F0C003C02B03D1F8
:102CB0009DF80830AB4200D0002420460AB070BD19
:102CC00010B50446024B0360FFF734FE204610BDEA
:102CD000C852020010B50446FFF7F2FF2046582103
:102CE00009F091FD204610BD10B590F85240621CCD
:102CF000D2B20444172A80F8522084F83A1002D93C
:102D000003689B689847012010BD70B50E46037E8E
:102D100090F8311004469942B4BF012500250BDB21
:102D20001146113006F0AAF830B10023257E84F850
:102D30003130ED1A18BF01253DB194F831305A1CDD
:102D400084F831201C44637E3370284670BDFFFF39
:102D500070B50446FFF7DEFD0C4B002523602126ED
:102D60000323324684F85430294684F8535004F142
:102D700011000BF01BFC3246294604F132000BF027
:102D800015FC072005F0FAF9204670BDC852020074
:102D900010B50A4C23681BB9012003F06DFF2060B9
:102DA00003F0B8FC022808D1002320684FF0FF325E
:102DB000BDE81040194603F0E5BF10BD58C3072019
:102DC00010B503F0A7FC022808D1BDE8104000238D
:102DD00003481A461946006803F0CCBE10BD00BF78
:102DE00058C3072010B50446024B0360FFF7A2FD4D
:102DF000204610BD2052020010B50446FFF7F2FF36
:102E000020462C2109F0FFFC204610BD10B50446D9
:102E10000349FFF7F3FA034B2046236010BD00BFC0
:102E2000008009403053020038B5074C236833B99D
:102E30002C2004F04DFB0546FFF7E8FF25602068D5
:102E4000BDE83840FFF77ABA5CC30720074A136829
:102E500023F0E06323F0FF0313600123116803FAFA
:102E600000F041F08071084310607047004003405B
:102E7000002307B50D4A019352680D48C2F30B12A7
:102E8000ADF802200DF1020101AA006803F006FF6F
:102E9000019B3BB14FF08052064B1A60BFF34F8F3E
:102EA000BFF36F8F03B05DF804FB00BF0040034029
:102EB00064C3072004ED00E010B504F095FC012187
:102EC000C4080C2004F0A8FB03210C2004F0BEFB76
:102ED0004FF40013104A114913600223B4FBF3F0BE
:102EE000884214D8116841EA03231360012003F0DB
:102EF000C3FE0B4B002218600221012003F018FED4
:102F00004FF48002074B1860074B1A6010BD023364
:102F1000B3F5807FE2D1E9E7004003403F5DC600A2
:102F200060C3072064C3072000E100E0F7B5002478
:102F300007280546ADF806401DD803F0EBFB022834
:102F4000154E1CD1154F23464FF0FF3221463868ED
:102F500003F018FF2846FFF779FF23464FF0FF32B2
:102F60000DF10601306803F00DFF2346224621468D
:102F7000386803F0FFFDBDF8060003B0F0BD284639
:102F8000FFF764FF00230DF106011A46306803F0D5
:102F9000F9FE0028F6D0EEE764C3072060C30720DF
:102FA00008B5044B1B689847034A137A43F00103A2
:102FB000137208BD68C3072000000B4010B504461B
:102FC000024B0360FFF7B6FC204610BD2052020002
:102FD00010B50446FFF7F2FF20462C2109F013FC40
:102FE000204610BDF7B50D460D4904460868164643
:102FF00020F0F000086008681F4640F050000860AC
:103000000121032004F022FB04F0EEFB00970146AF
:1030100033462A462046FFF705FA03B0F0BD00BF4D
:1030200000C0024010B504460349FFF7E7F9034B1F
:103030002046236010BD00BF00C00040985302002E
:1030400038B5074C236833B92C2004F041FA054603
:10305000FFF7E8FF25602068BDE83840FFF76EB94C
:103060006CC3072070B505460E4614460CB12B689C
:1030700003B970BD2268134208D06368984722687C
:103080002B6823EA02032B6023683360A468EDE712
:10309000F8B5012484400F4616461D4610D079B17C
:1030A0000C200BF01FFA58B14FF40012336880E87F
:1030B000900083602B6830601C43024B2C601A60C8
:1030C000F8BD00BF00E100E01FB5184C1849636867
:1030D00068460093A3680193636A0293A36A03930B
:1030E000144B1A68FFF7BEFF134B11491A6801A869
:1030F000FFF7B8FF114B12491A6802A8FFF7B2FF99
:10310000104B0F491A6803A8FFF7ACFF009B0BB9DF
:10311000019B13B14FF0FF33E360029B0BB9039B9C
:1031200013B14FF0FF33E36204B010BD8080024062
:103130008C80024074C3072070C307207CC3072023
:10314000AC80024078C3072010B414460029064A18
:103150000649074B18BF1346064A18BF0A462146C0
:1031600010BCFFF795BF00BF9480024070C30720DA
:103170009080024074C30720026830B5D36913F011
:10318000040310D002F1300301F1100451F8045B84
:10319000A14243F8045BF9D1438A013343822123DE
:1031A0000120536030BD184630BDFFFF2DE9FF41BF
:1031B000264C450154F805806719D8F80C60D8F8FA
:1031C00008303343D90716D5786803F0B2FEFB897F
:1031D00008F1200198424FF0000388BFF881671979
:1031E0001A46786803F05AFD58B3BB8A0133BB8294
:1031F0000423C8F8043040F202631E4212D067195B
:10320000B86803F096FE3B8A0022984288BF388255
:1032100067196946B86803F04FFE18B16946384629
:10322000FFF7AAFFB20603D563199B69304698479A
:10323000330703D52C44E3693046984704B0BDE812
:10324000F081BB890133BB81D2E700BF04C00720F6
:10325000084B10B5D3F8C440A20402D50020FFF7F4
:10326000A5FF630404D5BDE810400120FFF79EBF11
:1032700010BD00BF00C00F401FB50446054B0DF147
:10328000100E0FCB0EE90F000EEB840454F8100C57
:1032900004B010BDAC530200F7B50F460646FFF769
:1032A000EBFF17230124162202218DF803308DF83D
:1032B000073002AB1E448DF802208DF801108DF806
:1032C000004005468DF8051016F8080C21468DF8CB
:1032D00006208DF8044004F09FF9214616F8040CEE
:1032E00004F0B4F90023AB606C602B6704F07CFA47
:1032F000034BB0FBF3F04743EF6003B0F0BD00BFFA
:1033000040420F0010B50446024B0360FFF712FB6A
:10331000204610BD2052020010B50446FFF7F2FF10
:1033200020462C2109F06FFA204610BD10B5044646
:103330000349FFF763F8034B2046236010BD00BF2D
:1033400000C009401054020038B5074C236833B957
:103350002C2004F0BDF80546FFF7E8FF2560206843
:10336000BDE83840FEF7EABF80C3072038B5044601
:103370000025104B0360636DE06DAB4206D950F839
:103380002500102109F03FFA0135F4E708B104F0F7
:10339000A5F80025A36B206CAB4206D950F8250098
:1033A0000C2109F030FA0135F4E708B104F096F881
:1033B000204638BDE85B020010B50446FFF7D6FF93
:1033C0002046902109F01FFA204610BD73B505462E
:1033D000022401260C48FDF7B1FA01940096234619
:1033E00005F174020949FCF725FF50B10648FDF7C5
:1033F000A5FA01940096234605F176020449FCF7EC
:1034000019FF02B070BD00BFEC51020093540200DE
:10341000A15402002DE9F04104460E46C06889001F
:103420000CF04EFB4FF00008A568E060AF00AE4224
:103430000DD90C2004F04CF8E368C0F80080C0F807
:10344000048080F808800135D8510437EFE76660C2
:10345000BDE8F081F7B50025044604260B464FF47D
:10346000805200952449FEF7A1FB244B666323603C
:10347000A563E5632564022104F13400FFF7CAFF68
:1034800026656565A565E565284660210CF018FB95
:10349000A56DE065AE00172D0CD8102004F018F8CB
:1034A0000746102200210BF081F8E36D01359F5192
:1034B0000436F0E718236365012384F87030002395
:1034C0000022A4F87430A4F87630A3670027002304
:1034D0000B4EC4E92023C4E9226704F003FA4FF439
:1034E0007A7200230AF0E8F880197941C4E92001D2
:1034F000204603B0F0BD00BFBB5B0200E85B0200EA
:10350000C0D40100F7B505461A48FDF717FAB5F81B
:103510007660044616B9002003B0F0BDFDF769FCE3
:103520008642F8D1A96F2046FDF77BFC07460028AC
:10353000F1D111480CF05AFA10490E480AF012FD68
:103540000646A8B1A96F2046FDF75EFC314620462D
:10355000FDF718FB30460AF0ABFA09480CF046FAC2
:10356000084B3A46009339463B460120FEF7F8FCEB
:103570000120D1E7E2660200245402001162020039
:103580003E540200575402002DE9F0410F7A1446D0
:103590004D680E683FB3082A19D12846FDF7A3FCF1
:1035A000002812DD13494FF0FF323046FFF72CF9A7
:1035B00001212846FDF796FD336821463046BDE8D7
:1035C000F0415B684FF0FF3218470724F4E70A2AFE
:1035D000F2D00D2AF0D021462846FDF7A4FE002F98
:1035E000EAD1BDE8F0810A2AFBD00D2AF3D1BDE86B
:1035F000F08100BF74540200F8B5044614200F4651
:10360000154603F065FF80210646FDF73BFEA16BE2
:10361000E36B8B4206D3636BC91803D204F1340009
:10362000FFF7F8FEE36B226C591C52F82330E1637C
:103630001F605E601D72F8BD2DE9FF47CF6B064627
:103640000D4601AC77B94FF47A7002F04DFE019748
:103650006760A76094E8070086E80700304604B07A
:10366000BDE8F0870B6C0DF110081B6893E80700AC
:10367000002384E8070008F80D3D02F005FD00274F
:103680008146EB6B9F425CD22B6C4FEA870A53F862
:1036900027301868037C002B51D0036800221B6878
:1036A0004146984700284AD0EB6B9F4244D22B6C8E
:1036B00053F80A3093E8070084E807009DF80320D8
:1036C00021462846FFF760FF04F00CF94FF47A72A8
:1036D000002309F0F1FFD5E9222380185941C5E9FB
:1036E00020010298FDF7FFFB07460298FDF7FEFB5D
:1036F00001388742AEDAD5E92223134329D004F0FA
:10370000F1F84FF47A72002309F0D6FFD5E92023AF
:10371000994208BF90421CD304F0E4F84FF47A7247
:10372000002309F0C9FFD5E922238018594100235D
:10373000C5E9200101938DE705F14403BAE701379C
:103740009FE702F0A1FC8145CBD1022002F0CCFD25
:10375000C7E79DF803300A2B8FD17BE72DE9FF41A6
:10376000054627480CF0CEF8294601A8FFF764FF6C
:10377000019C54B92846FFF7C5FE10B921480CF04A
:1037800035F9012004B0BDE8F081029E3046FDF716
:10379000AAFB0028F5DD04F0A5F84FF0030805F1B9
:1037A000500E074620B3B5F8743022460133A5F811
:1037B000743031467046FDF75DFF042300258DF817
:1037C00000808DF801808DF802308DF80330236879
:1037D0001DF805105B684FF0FF3220460135984711
:1037E000042DF4D104F07EF8C11B07480CF08AF8D0
:1037F0003046FDF77DFB236820469B689847C0E76D
:1038000077540200C16902007D54020038B5064CAD
:10381000236833B92C2003F05BFE0546FFF702FC5A
:103820002560206838BD00BF6CC3072010B5044672
:10383000FFF7ECFF03682146BDE810405B684FF0DE
:10384000FF321847002313B502AC04F8013DFFF71F
:10385000DDFF03684FF0FF321B68214698479DF853
:10386000070002B010BDFFFF2DE9F04100258AB02E
:1038700000F15004064600952046674B674A6849A8
:10388000FDF714FE00952046664B674A6749FDF731
:103890000DFE00952046664B664A6749FDF706FE19
:1038A00000952046654B664A6649FDF7FFFD009589
:1038B0002046654B654A6649FDF7F8FD00952046B0
:1038C000644B654A6549FDF7F1FD00952046644B60
:1038D000644A6549FDF7EAFD00952046634B644A5A
:1038E0006449FDF7E3FD00952046634B634A644954
:1038F000FDF7DCFD00952046624B634A6349FDF706
:10390000D5FD00952046624B624A6349FDF7CEFD26
:1039100000952046614B624A6249FDF7C7FD00955C
:103920002046614B614A6249FDF7C0FD0095204683
:10393000604B614A6149FDF7B9FD00952046604B37
:10394000604A6149FDF7B2FD009520465F4B604A31
:103950006049FDF7ABFD009520465F4B5F4A60492B
:10396000FDF7A4FD009520465E4B5F4A5F49FDF7D9
:103970009DFD009520465E4B5E4A5F49FDF796FD32
:10398000009520465D4B5E4A5E49FDF78FFD009530
:103990005D4B5E4A5E492046FDF788FDFFF736FF26
:1039A0004FF4807320224FF4164105460127FFF79C
:1039B00019FB2F748046574803F066FB564803F006
:1039C0005DFB3A4629463046FFF716FE5348FCF7A2
:1039D000B5FF0746FDF70DFAA6F8760080B203F0B2
:1039E00079FD0146B0673846FDF70EFA082203A9B3
:1039F00005A8FDF751FA05A84949FDF7BFFC2A467D
:103A000005A92046FDF736FE05A8FDF759FA404600
:103A10000AB0BDE8F08100BFAE540200F0540200CD
:103A2000B9420100E5540200F5540200A14301002F
:103A3000FD5402000B550200554E010012550200C4
:103A400053550200C543010058550200B455020009
:103A5000A1460100B8550200465602002146010069
:103A6000FA55020045560200B14A010049560200CB
:103A700077560200A14701007A5602009F560200C5
:103A800025490100A5560200D25602009D490100B9
:103A9000D55602009D7B0200F9490100FA5602004A
:103AA0001D5702006149010020570200F357020030
:103AB000FD4F0100F75702003A580200ED4B01009C
:103AC0004258020055580200A94C01005C580200FF
:103AD0005B590200894401005F59020087590200C6
:103AE0001D4E01008D590200655C02002556010043
:103AF000B7590200AB5A020051520100745A020039
:103B0000086602009D510100B05A0200B15B02003C
:103B1000D94C0100453801002D380100E266020051
:103B2000FB4D020001480BF061BF00BFBB5F02000C
:103B300038B504460D4603F057FE074BB0FBF3F0D3
:103B40000223B0FBF3F2AA4204D9B3F5807F01D07F
:103B50000233F6E7236138BD40420F007FB500F223
:103B600035260C460122314606F0F4F9054638BBED
:103B7000039002AA03A9304606F0BFFD40BB02989D
:103B8000039B827803FB02F183691248023B5A438C
:103B90005208B2F5004F38BF01200F4B24BF034637
:103BA0004FF480604908B1FBF0F1B2FBF0F20091F4
:103BB0000193214609480BF0A5FE012004B070BD19
:103BC000074B2A46214607480BF09CFE0020F5E7EC
:103BD000054BF6E7F95F0200F65F020003600200A2
:103BE0000060020031600200FC5F020070B5104D01
:103BF000104E2C78BFF35B8F14F0010415D12846CA
:103C000008F003FE88B14FF40E7003F061FC30231E
:103C100080F835323A2380F8344280F8363280F822
:103C200037423060284608F0FCFD306870BD00BFA8
:103C3000A8C30720ACC3072038B5064C23683BB99E
:103C40004FF4947003F044FC0546FEF7B5FE256082
:103C5000206838BD54C3072038B5074C23684BB9DA
:103C6000082003F035FC0546FFF7E6FF40232860F7
:103C70002B712560206838BD94C3072038B5054CEA
:103C8000256825B9012003F023FC05702060206819
:103C900038BD00BF90C3072038B5084C23685BB916
:103CA0000C2003F015FC0546FFF7C6FF90232B718F
:103CB00000232860AB602560206838BD84C30720DE
:103CC00010B5044C23681BB9012003F001FC2060EF
:103CD000206810BD8CC3072010B5044C23681BB9A5
:103CE000012003F0F5FB2060206810BD88C3072089
:103CF0004023B649F0B58B614FF00073B44A0725F5
:103D000093614FF480338B61B24B02241868ADF598
:103D1000057D20F0F0001860186840F05000186031
:103D2000186820F440501860086840F040000860AF
:103D3000186820F47C201860186840F42820186067
:103D4000186820F470001860186840F420001860AB
:103D5000186820F040401860186840F00040186073
:103D6000586820F03C005860586840F028005860BF
:103D7000586820F003005860086840F480300860FC
:103D8000586820F440505860086820F480000860AB
:103D9000D96821F44031D960116841F08071116017
:103DA000596821F440215960596841F480215960D3
:103DB0009868894901409960116841F4897141F01E
:103DC00001011160996821F470119960996821F0DE
:103DD00070419960116821F446411160D96821F061
:103DE0003001D960D96841F03001D960D96821F437
:103DF0007011D960136843F000731360136823F0E7
:103E000080631360FFF758F801210A2003F004FCD7
:103E100001210A2003F01AFC70480121056044606A
:103E2000FFF786FEFEF7B0FE0121152003F0F4FB3C
:103E30000121152003F00AFC694801210560446056
:103E4000FFF776FEFFF7F8FE6421FEF77FFD10B95D
:103E500064480BF0CBFD03F01BFD04F0E9FF10B943
:103E600061480BF0C3FD6148FCF77AFD6048FCF740
:103E700077FD4FF4FA60FEF7AEF9FFF753FE03F05B
:103E8000B3FC09F02BFA5B4909F034FB09F0ACF8FC
:103E900002460B4658480BF035FD03F0FDFD0528A2
:103EA00004AC14D100236360544B1B682360FFF7FC
:103EB00039FE534B5348D96C1A6D5B6D00940BF06F
:103EC00021FDFFF72FFE41F28830FEF784F9FFF75E
:103ED0008DFE4D49FFF742FE054668BB4B480BF08F
:103EE00011FD07F0D9FEFFF781FE29462A4600F2B0
:103EF000352006F0FDFD464B464A00280CBF104613
:103F000018460BF073FDFFF771FE3F49FFF726FEE1
:103F100090B941480BF06AFD07F040FE01463F486A
:103F20000BF0F0FC07F02AFE054607F037FE00FB19
:103F300005F13B480BF0E6FC3A4E3B4F3378BFF3BC
:103F40005B8F13F0010516D1304608F05EFC90B18E
:103F50004FF40E7003F0BCFA012380F834323123A1
:103F600080F835323A2380F8375280F8363238609C
:103F7000304608F056FC2D4938682D4DFFF7EEFD10
:103F800018211648FFF7D4FDFFF7CCFD2B684BB97D
:103F9000082003F09DFA0646FFF74EFE38233060F6
:103FA00033712E60286807F014FF064610B92148C7
:103FB0000BF01CFDFFF770FE08F032F805460028F4
:103FC0003CD11D480BF012FD2E4637E000C0092001
:103FD00020C0092000C00240F0FCFCFF00000340AC
:103FE00000800840185C0200495C0200E2660200A2
:103FF000EC510200002474496E5C0200444002400F
:1040000000400240865C0200FE5C0200065D020089
:10401000055C0200005C0200435D0200625D02007C
:10402000715D0200A0C30720A4C30720C56502007C
:104030009CC307208C5D0200A75D0200FFF70CFE09
:1040400007F04AFF054618B96D480BF0CFFC2E4625
:104050006C4D2B681BB9012003F03AFA28602868E0
:1040600007F008FFFFF72CFE07F0C6FFFFF706FE7C
:1040700007F06BFFFFF730FE07F0C3FFFFF7FEFD11
:10408000002107F065FF002E40F08180FFF74AFD18
:10409000FFF7E2FD2D2107F007FFFFF7DDFD2D21E2
:1040A00007F00EFFFFF7EAFDFF2107F051FF102296
:1040B000002120460AF07AFA00230F2221465248B6
:1040C00008F062F880B9204609F085FCC5B22846A0
:1040D00004F042F84D4A4E4B2946002818BF1346BB
:1040E000494A4C480BF00EFCFFF7EAFD07F086FF4B
:1040F000054600200CF064FF28440BF07FFC4FF4D1
:104100000072002120460AF051FA204603F000FC1C
:10411000214641480BF0F6FBFFF704FD8022002109
:1041200020460AF043FA204607F014FD2278FF2AC1
:104130003BD0214639480BF0E5FB4FF208031D68E0
:104140004FF20C031C684FF210031E684FF47043CB
:104150001A684FF20403AD0A1968A40A30480BF03C
:10416000D1FB2A4621462F480BF0CCFB31462E4886
:104170000BF0C8FBFFF7D6FC0120FDF77DFE2B48B6
:104180000BF034FCFFF7CEFC0DF5057DF0BDFFF71D
:1041900063FD0546FFF780FD07F06CFF09F06CFA40
:1041A000C1B2284607F0B4FE81E7FFF795FD07F09E
:1041B0002BFF09281FD11E480BF018FC21461D4873
:1041C0000BF058FD21461C480BF09CFB1B480BF0E4
:1041D0000DFC002303A91A4803930BF04BFD9DF837
:1041E0000C30592B03D1204607F092FCA5E7154867
:1041F0000BF0FCFBA1E714480BF0F8FB1348F7E7C2
:10420000C15D020098C30720DA5D02000B5C02006A
:10421000115C0200E05D02005A4E0200145E0200D2
:10422000315F02005D5F02008A5F0200A75F02004B
:10423000305E0200525E0200575E0200725E0200B3
:10424000B55E0200B95E0200D15E0200FF5E0200B0
:1042500038B50C46451E15F8011F31B123684FF0E3
:10426000FF325B6820469847F5E738BD70B5104DC2
:10427000104E2B78BFF35B8F13F0010416D1284644
:1042800008F0C3FA90B14FF40E7003F021F9012346
:1042900080F83432312380F835323A2380F83742BF
:1042A00080F836323060284608F0BBFA306870BDBE
:1042B000A0C30720A4C307202DE9F04FADF51B7D57
:1042C0000F46FCF7A4FF041E04DD02F0BFFA2046EF
:1042D00002F00AF80DF114094C462A4D4FF0640B18
:1042E0000FCD0FC42B6804AA2360002410210AA854
:1042F000049402F0B3F9244A824624493846FEF772
:10430000CDFA26464FF000080AADD0451CD06B69A7
:10431000A34215D1AA69049B16441BB1B3FBFBF35E
:10432000B2FBF3F3297B039202932B8C00949B0046
:10433000019359F821306A6815493846FEF7AEFAFC
:1043400008F101082435E0E701340A2CDAD16422AF
:10435000049B10499E1BB3FBF2F30096B6FBF3F3EC
:104360000D4A3846FEF79AFA01F09AFE102804D951
:1043700010220A493846FEF791FA01200DF51B7DFF
:10438000BDE8F08F64600200236602002866020028
:104390004F660200776602006C66020096660200B5
:1043A00010B50C46ADF5007D684603F0B1FA204625
:1043B0004FF0FF326946FEF73BFA01200DF5007D14
:1043C00010BDFFFF30B50C4691B02C490546FCF7F7
:1043D0002BFE002848D00CAB04930BAB03930AAB25
:1043E000029309AB019308AB009306AA07AB2449DB
:1043F0002846FCF781FD072802D0002011B030BD0F
:104400009DF83930069A0DA862F303038DF8393010
:10441000079A9DF8383062F304038DF83830089A13
:10442000BDF83A3062F30B03ADF83A30099A9DF8C3
:10443000363062F304038DF836300A9A9DF8353031
:1044400062F305038DF835300B9A9DF8343062F332
:1044500005038DF834300C9A9DF8373062F302036F
:104460008DF83730FEF7EAFAFEF784FB054902467D
:104470002046FEF713FA0120C0E700BF9E6202004B
:10448000A26202005A4E0200F7B50D46504904469A
:10449000FCF7B9FE064650B1FDF7B8FC4FF0FF320D
:1044A0004C492846FEF7C4F9012003B0F0BD4A4943
:1044B0002046FCF7A8FE60B3FDF7CCFC4749024656
:1044C0002846FEF7EBF9FDF7D1FC454902462846A0
:1044D000FEF7E4F9FDF7C4FC424902462846FEF720
:1044E000DDF93046FDF7ACFC04460120FDF7A8FCE1
:1044F00006460220FDF7A4FC07460320FDF7A0FCBA
:10450000009701903346224637492846FEF7C6F900
:10451000CAE736492046FCF787FD50B12022012129
:104520002046FCF71EFE2046FCF76FFEFDF7B4FDAB
:10453000BAE72F492046FCF777FD0646F8B92D4922
:104540002046FCF771FDD0B92046FCF75EFEF32350
:104550000090294A29490120FDF702FD2046FCF779
:1045600054FE274902462846FEF798F99CE70324A3
:1045700016E0022414E0234B24E0234B22E02349DD
:104580002046FCF73FFD0028F3D121492046FCF7E7
:1045900039FD0028EBD120461B49FCF733FD0446CA
:1045A00031462046FDF7CEFC1A4B1B4A002E08BFB1
:1045B0001A46002CDFD0012CDFD01549134B022CFA
:1045C00018BF0B4615492846FEF768F96CE700BF8F
:1045D00070610200766102008F6102009661020044
:1045E000AB610200C0610200DF6102000F620200E5
:1045F000136202001B620200B66802003D62020004
:1046000090620200EC510200F0540200F2510200EC
:10461000F7510200676102005F610200246202003C
:1046200030B5002489B004AB00930D4603AB0222E1
:10463000184903940494FCF76DFC022828D107ABB9
:10464000009305AA06AB0499039805940694079471
:1046500007F022FD024648B1049B0F49009328460B
:10466000039BFEF71BF9012009B030BD059A069B9C
:10467000002A08BF0122002B08BF01230799284602
:10468000B1FBF3F3B1FBF2F20449FEF707F9EAE7F5
:104690002046E9E7755402008E670200AD6702000C
:1046A0002DE9F0470E46ADF5856D38490546FCF716
:1046B00044FD374907462846FCF768FD344928463B
:1046C000FCF784FD2846FCF7A0FD0122014681A8E5
:1046D00005F07EFC044660B12846FCF796FD2D49A6
:1046E00002463046FEF7DAF801200DF5856DBDE88B
:1046F000F0870DF1040A01464FF40072504609F0AC
:1047000055FF009403F0EEF8804689466B464FF45F
:104710000072514681A805F0F2FC08B9009B23BB4A
:1047200081A805F0BFFECFB103F0DCF84FF47A7238
:10473000002308F0C1FF002305464FF47A7240467B
:10474000494608F0B9FF281A14BF03460123224640
:10475000B4FBF3F310493046FEF7A0F84FF0FF32F8
:104760000E493046FEF764F8BEE71C44002FCDD159
:104770003D46009B9D42C9D233681AF805105B681C
:104780004FF0FF32304698470135F2E7786002007B
:10479000755402008160020095600200C169020048
:1047A00000232DE9F04F0C46C1B0564905460E9343
:1047B000FCF729FD98B92846FCF727FD0646314647
:1047C00017A805F028FF054658B1034632464E4962
:1047D0002046FEF763F8012041B0BDE8F08F4B4E54
:1047E000EDE732464A492046FEF758F82F46DFF8F3
:1047F000309180230DF180080FA917A8CDF85480BF
:10480000169305F04BFF002863D19DF84530002B2F
:104810005FD09DF84410BDF84200CA065BBF0E9BF6
:104820000F9A44229B185BBF0E932D22013501374E
:1048300011F0010F14BF52232D2311F0020F14BFEA
:104840004FF0480E4FF02D0E11F0040F14BF4FF033
:10485000530C4FF02D0C11F0200F14BF4FF0410AF4
:104860004FF02D0ABDF840100DF1450BCDF824B0E6
:10487000C0F3451BC012069001F01F000B9305907A
:104880000F9BC1F34310491201F2BC71CDF804C073
:10489000CDF800E0089304900B9B0391CDF81CB079
:1048A0004946CDF808A02046FDF7F8FF4FF0FF324B
:1048B00018492046FDF7A8FF41464FF0FF32204639
:1048C000FDF7A2FF4FF0FF320E492046FDF7B0FF83
:1048D0008FE73A46104900950E9B2046FDF7DEFF14
:1048E0000DAA0EA9304605F008FF00287FF473AF2B
:1048F0000D9B0E9A9B7809495A4320465208FDF7B2
:10490000CDFF68E7C1690200DE670200DB670200D5
:10491000026802004A6802004E68020078680200DD
:104920001D68020070B50C460646FCF76EFC054695
:104930003046FCF76AFC05F0A3FF064A064B074920
:10494000002808BF13462A462046FDF7A7FF01208E
:1049500070BD00BF96650200A0650200C263020040
:1049600070B50C460646FCF750FC05463046FCF791
:104970004CFC05F026FF064A064B0749002808BFF5
:1049800013462A462046FDF789FF012070BD00BF6F
:1049900096650200A0650200A46802007FB50024AD
:1049A00003AB00930E4602AB02220F49029403941C
:1049B000FCF7B0FA022815D1029C039D2046294637
:1049C00006F007F8094B0A49224600280CBF0846A2
:1049D00018462B46009007493046FDF75FFF01203F
:1049E00004B070BD2046FBE775540200A0650200CC
:1049F000966502008C68020030B5ADF50D7D0C4661
:104A00000546FCF702FC0A22014603A805F0E0FA7D
:104A100058B12846FCF7F9FB214902462046FDF72C
:104A20003DFF01200DF50D7D30BD8DF80700029092
:104A300042F210737E221B492046FDF72FFF1A49D0
:104A40002046FDF72BFF194D236842F210721B68B8
:104A50000DF107012046984718B19DF807307E2BCD
:104A60000FD103A805F01EFDDBE7029B012B11D13E
:104A700023684FF0FF325B689DF807102046984787
:104A8000E2E702AB01220DF1070103A805F0EFFBFD
:104A90000028EAD029462046FDF700FFD4E700BFF2
:104AA000E9640200106502004865020068650200C2
:104AB00000232DE9F04FADF5437D06AC236005934F
:104AC0000E46009405AB02224049FCF723FA022867
:104AD0000AD04FF0FF323E493046FDF7A9FE0120D3
:104AE0000DF5437DBDE8F08F216819A805F093FD11
:104AF00028B1226837493046FDF7D0FEEFE7059927
:104B000019A805F088FD10B1059A3349F3E74FF471
:104B1000807242A907A8FCF7BFF94FF4807282A9FE
:104B20000CA8FCF7B9F92D4F0DF1880A4FF0800859
:104B300011A919A8CDF85CA0CDF8608005F0AEFDF4
:104B400010B99DF84D3033B90CA8FCF7B9F907A896
:104B5000FCF7B6F9C3E79DF84C5015F01005E7D106
:104B60000DF14D03059A394607A8FCF798FB22681A
:104B700039460DF14D030CA8FCF791FB07A8FCF793
:104B800044FB80460CA8FCF740FB119B814607A81C
:104B90000393FCF73AFB83460CA8FCF736FB2B4645
:104BA0002A4601460095584607F076FA0C4B0D4A06
:104BB0000D49002818BF1A46039B019200934246F4
:104BC0004B463046FDF76AFEB0E700BF7554020061
:104BD000B0600200F56002001A6102003A61020052
:104BE000A06502009665020040610200F8B50D461E
:104BF00023490646FCF707FB044698B1FFF736FB4E
:104C0000002200F23520114605F072FF4FF0FF320E
:104C10001C4B1D49002818BF19462846FDF708FE01
:104C20002046F8BD19493046FCF7EDFA044610B1AC
:104C3000FEF7DCFFE4E716493046FCF7E4FA0446E9
:104C400058B1FFF713FB012200F2352105F082F97C
:104C50004FF0FF320F4B1049DCE710493046FCF7AC
:104C6000D2FA04460028DBD0FEF7C0FF012200F292
:104C7000352105F06FF94FF0FF32094B0949C9E7BB
:104C8000F7650200996502008F6502000166020067
:104C90000E660200B6650200A665020017660200F5
:104CA000DB650200CD65020008B508464FF0FF3213
:104CB0000849FDF7BDFDFDF7A9F84FF4FA6001F0D2
:104CC00013FB4FF08043AA221A7200221A700120AF
:104CD00008BD00BF896402002DE9F041C4B0074659
:104CE0000C46FCF700F9024638B921463E48FBF76E
:104CF0003BFF012044B0BDE8F0813C493846FCF759
:104D0000AAF908B10122F0E739493846FCF77BFAE5
:104D10008046A0B13749384809F024F9054636489D
:104D2000FBF70CFE2946FBF72DFF284608F0C0FED6
:104D30004FF0FF3231492046FDF77AFDD9E730497F
:104D40003846FCF788F902AD03AE28B3C5F80080F9
:104D5000C6F8008043468DE86000032229493846A2
:104D6000FCF7D8F8032813D14FF48072414604A809
:104D700009F01CFC04AA4FF4807331682868FBF723
:104D8000C1FD4FF0FF3208B104A9D4E71E49D2E7B4
:104D90004FF0FF321D49CEE70DF11008286030605A
:104DA000C8F800002B468DE840010322154938461B
:104DB000FCF7B0F8032803D04FF0FF321449BAE7EC
:104DC000D8F8002031682868FBF79EFAD8F8003040
:104DD000009333682A6820B10E492046FDF75EFD36
:104DE00087E70D49F9E700BF51420100C0660200A4
:104DF000C666020011620200E2660200CB66020093
:104E0000E766020075540200EB66020015670200B7
:104E100046670200626702007367020010B5012056
:104E20000C46FCF7DDFE60B100231A46194601F07E
:104E3000A1FE4FF0FF3205492046FDF7F9FC0120A5
:104E400010BD4FF0FF320249F6E700BF9A6402003E
:104E5000B06402002DE9F04F604C91B023680E461B
:104E600033B92C2002F034FB0546FEF7DBF8256051
:104E70002768FEF7BBFE00240CAA0DA900F235201E
:104E80000D9405F03AFC00284FD10C9B0D9C9D78A9
:104E90009B696C43023B5D4364086D08504B1A6884
:104EA00098467AB90C2002F013FB8146FEF7C4FE47
:104EB000902389F804300023C9F80000C9F80830AD
:104EC000C8F80090D8F8000007F0D4F8814608F040
:104ED000ADFB0A9008F006FA0146484608F04CF986
:104EE000404908F053FA08F0A1FB81460DA802F0F2
:104EF000D9FD06F059FE002869D0FDF749FF4FF0B3
:104F0000000A06F03BFED3460346D0469A450B9373
:104F10000DD0504606F096FE804538BFD3460B9B19
:104F200038BF80460AF1010AF0E72546B6E7FDF7EB
:104F300047FF642303FB08F32B4ACDF80880B3FB3B
:104F4000F2F3C3F164030093CDF804B02B4622467C
:104F500026493046FDF7A2FC254C23681BB90120E9
:104F600002F0B6FA2060206807F048F80446FDF722
:104F700001FEFB8C0A9A0993BB8C1E4908939DF88D
:104F80003430019003F03F0307939DF835300094CF
:104F900003F03F0306939DF83630304603F01F03BD
:104FA0000593BDF83A30C3F30B0304939DF83830F2
:104FB00003F01F0303939DF8393003F00F030293AE
:104FC0004B46FDF76BFC012011B0BDE8F08F2B467E
:104FD000224609493046FDF761FCBDE76CC3072056
:104FE00084C3072000002041A0860100DE63020088
:104FF0008CC3072020640200126402002DE9F04FE8
:105000000C46C7B057498146FCF725F85649074674
:105010004846FCF720F8554983464846FCF71BF8FC
:1050200000260DF1100805AD824602960396C8F8D9
:1050300000602E60002F4BD0009503AB02AA4C49B4
:105040004846FBF759FF01280ADC4FF0FF32494977
:105050002046FDF7EDFB3746384647B0BDE8F08FF8
:105060004FF480790DF118084A463146404609F060
:105070009DFA2B6833BB01232B60FEF7DDFD2B6807
:105080009DF80C209DF8081000934346FDF7BEFAEA
:10509000394A3A4B3A49002818BF1346029A20462B
:1050A000FDF7FCFB0026DFF8F0902B689E42D3D280
:1050B000039A18F80630324449462046FDF7EEFBC5
:1050C0000136F2E7B3F5807F88BFC5F80090D4E7DA
:1050D000BBF1000F2CD0CDF8008003AB02AA294908
:1050E0004846FBF709FF032806D04FF0FF32264958
:1050F0002046FDF79DFBAFE7FEF79EFD98F80030D8
:105100009DF80C209DF80810FDF797FA50B1039B0D
:105110001E490093D8F80020029B2046FDF7BEFBF5
:105120005F4699E7029A1A492046FDF7B7FBF7E771
:10513000A8B10223174D0293029BFE2B0FDCFEF752
:105140007BFD9DF80810FDF790FA20B1029A2946E0
:105150002046FDF7A3FB029B02330293ECE7574680
:105160007AE700BFAF550200BB620200C1620200D5
:10517000CA620200D962020096650200A0650200C0
:10518000FA6202002E6302003E63020065630200C1
:105190007F6302009C6302001E63020070B5ADF5E0
:1051A0000A7D05460C46FBF79EFE0B2805DD0C220A
:1051B00022492046FDF772FB36E02846FCF725F829
:1051C0000122014601A804F003FF064680BB01A8A6
:1051D00005F068F92846FCF718F819490246049BBF
:1051E0002046FDF75BFB236820469B6898470A2012
:1051F00001F07AF84FF0100383F31188BFF36F8F3B
:10520000BFF34F8F2846FCF700F802460D4B0068AD
:10521000516803C390680C4A186043F80C2C4FF097
:105220008043AA221A721E7001200DF50A7D70BDFE
:105230002846FBF7EAFF05490246BAE7546902002F
:105240007B690200484002400DD0ADDEC269020019
:105250002DE9F041414CA4B023780646DB070D460A
:10526000BFF35B8F0CD4204607F0CFFA40B14FF468
:10527000806009F037F93A4B1860204607F0D1FA00
:1052800038493046FBF7E7FE0746044630B3802234
:10529000002104A809F08AF900230293039303ABC9
:1052A000009304AA02AB30493046FBF725FE2C4997
:1052B000029B039A096804A86BB906F087FF2B4B81
:1052C0002B49002818BF19462846FDF7E7FA38464B
:1052D00024B0BDE8F08106F09BFFF0E72549304699
:1052E000FBF7B9FE07460028F1D004AB304603AA0D
:1052F0002149039404948DF80840FBF7FDFD039EBB
:10530000049B3344B3F5806F13DCDFF85480039BB8
:10531000049AF31A93421DDAB6F5806F1ADA2B68F5
:105320004FF4FA621B6802A92846984740B913490E
:10533000CAE74FF4806212492846FDF7AFFAC6E784
:10534000D8F800309DF808209A559DF808300136AD
:105350001C44DCE722460B49EEE700BFB0C3072040
:10536000B4C30720EB680200F2680200D9680200AB
:10537000D56802000269020009690200376902006B
:10538000136902004769020030B50C46054687B034
:105390000A49FDF783FAA18823880491218962884C
:1053A0000391E18828460291E17A0191A17A009166
:1053B0000349FDF773FA07B030BD00BFE76E020086
:1053C0001D6F02001FB501A80C4603F0EBF902F0B7
:1053D000CFFE01A902462046FFF7D6FF012004B008
:1053E00010BDFFFF2DE9F04100268CB003AB009308
:1053F0000D46904602AB0222384902960396FBF70F
:1054000089FDB04229DD029808F0E5FAC7B2039899
:1054100008B10AF051FE324EC4B2002104A803F0D4
:105420002DFD30B14FF0FF3231462846FDF700FA2E
:10543000F3E7022318F100010093039A234618BFF3
:105440000121384602F0CAFF064650B94FF0FF323C
:1054500024492846FDF7ECF9012630460CB0BDE89A
:10546000F081B8F1000FF8D04FF47A7104A803F07E
:105470000DFD60B39DF81030BB4228D19DF8173068
:105480000C2B04D13A4606A92846FFF77DFFBCB98C
:1054900015492846FDF702FA9DF817309C420ADAB2
:1054A00004AB19192B684FF0FF325B68097A284664
:1054B00098470134F0E70D492846FDF7EFF9CCE7AE
:1054C0004FF0FF320A492846FDF7B2F9C5E7029AC4
:1054D00008492846FDF7E2F9BFE700BF755402000E
:1054E0000B6C02002D6C0200556C0200FB5C02008C
:1054F000696C0200866C020038B50D46FBF787FE2A
:105500000446C0B202F028FE054A064B06490028B0
:1055100018BF134622462846FDF7C0F9012038BDC2
:1055200096650200115C0200AC6C020073B50C467B
:1055300002F096FF054616492046FDF7AFF91549DA
:105540002A462046FDF7AAF911492046FDF7A6F99B
:10555000DDB111492046FDF7A1F90D492046FDF7BF
:105560009DF900250D4EE8B202F064FF013540B10F
:10557000817843780278009120463146FDF78EF914
:10558000F1E703492046FDF789F9012002B070BD1B
:10559000DB690200F6690200106A02002B6A020051
:1055A0004FF47A73F0B58BB00AAA0C4642F8243D4A
:1055B0001849FBF7A1FC0025174F184E019902A8C6
:1055C00003F05CFCD8B19DF8082039462046FDF771
:1055D00065F900259DF80F309D420ADA02AB591992
:1055E00023684FF0FF325B68097A204698470135FF
:1055F000F0E731462046FDF751F90125DEE72DB9E8
:105600004FF0FF3206492046FDF712F901200BB09A
:10561000F0BD00BF10690200E36B0200C069020028
:10562000FA6B02002DE9F3473C4C07462668894691
:10563000002E62D1242001F04BFF0423054680E8B0
:1056400048008660C660202130460AF039FAAE680C
:10565000E8604FEA8608072E0ED8102001F038FFC8
:1056600082461022002108F0A1FFEB68013643F8C2
:1056700008A008F10408EEE7002608234FF001080F
:105680006B60274A274B28492846009685F82080DA
:105690002560FBF70BFF254B254A2649206800961D
:1056A000FBF704FF244B254A254920680096FBF7A9
:1056B000FDFE244B244A254920680096FBF7F6FEA0
:1056C000234B244A244920680096FBF7EFFE234B26
:1056D000234A24492068CDF80080FBF7E7FE224BDF
:1056E000224A204920680096FBF7E0FE0096204BF6
:1056F000204A21492068FBF7D9FE20493846FBF7AC
:1057000082FD18B11E493846FBF738FE4A46394635
:10571000206802B0BDE8F047FBF7ACBFBCC3072070
:10572000806A0200466A0200D1590100876A0200BD
:10573000DB6A0200A5570100E46A0200076B020061
:10574000A15501000A6B0200DB5D0200F954010063
:10575000346B0200506B02002D550100576B0200A4
:10576000BE6B0200E5530100986B0200BD6B0200A6
:10577000C26B0200DD6B0200C5530100C16902006B
:10578000FB4D020038B5064C236833B9582001F0B0
:105790009FFE0546FDF7DCFA2560206838BD00BF96
:1057A000B8C307202DE9F04FADF2DC5D044680223E
:1057B0000DF1B40988460DA8002108F0F7FE8022FB
:1057C0000021484608F0F2FE002306AE33600DAA21
:1057D00000964B4674492046FBF78EFB032804D005
:1057E00000200DF2DC5DBDE8F08F01220DA9EDA8CF
:1057F00004F0EEFB05460028F2D1FFF7C3FF336843
:10580000802280F853304DA9044608A88DF817501F
:105810000795FBF741FBCDF8009033680DAA63496B
:105820004046FDF73BF82F4607AB4FF400726DA9D9
:10583000EDA804F064FC002840F0AD80079B002B2D
:1058400000F0A980022D00F2A68007AE3268584908
:105850002046FDF723F8236820469B6898474FF0C1
:10586000000A0DF5DA7B6DAB3268ABEB03039A42AD
:1058700023680CD9CDF80CB05B684FF0FF321BF8F1
:10588000011B20469847039B1B789A44EBE79B68D3
:105890002046984708A8FBF7B8FC834608A8FBF702
:1058A00025FB4FF47A73024659462046FCF7CEFF9B
:1058B000202201210DEB0200FBF753FC08A8FBF7A7
:1058C000A6FC82451CD008A8FBF7A1FC5246034663
:1058D00038494046FCF7E2FF37492046FCF7DEFF37
:1058E000236820469B68984723684FF47A721B68A8
:1058F0000DF11701204698470028F5D10135A1E7A1
:1059000033684A462D49009320463B46FCF7C6FFC4
:10591000236820469B68984708A8FBF776FC8246D8
:1059200008A8FBF7E3FA514602464FF47A73204683
:10593000FCF78CFF224908A8FBF764FBD0B908A844
:10594000FBF763FC1F4902464046FCF7A7FF1A49D4
:105950002046FCF7A3FF236820469B6898472368EE
:105960004FF47A721B680DF1170120469847002802
:10597000F5D1C3E7144908A8FBF700FD33681349C4
:105980001F443A46F09B4046FCF788FF002D3FF449
:105990004BAF013D48E7EDA804F084FD08A8FBF7F4
:1059A0008FFA01201DE700BFC36C0200D26C020019
:1059B000E96C0200FB6C0200C0690200226D02006B
:1059C000386D02003B6D0200C1690200736D020078
:1059D0002DE9F0470024074686B006AA42F80C4D90
:1059E0000E463D49FBF788FA202201213846FBF795
:1059F000B8FB039B002B68D03846FBF774FA0028ED
:105A000063D0FFF7BFFE05460DF1180808F80D4DED
:105A10002B6805221B684146284698470446002803
:105A2000F6D1039B384685F85330FBF7EEFB27464B
:105A300001464FF0FF322846FCF7FAFE2B68284655
:105A40009B689847254B0DF11809186849F8044DD3
:105A500004902B684FF47A721B6841462846984799
:105A6000D0B103220DF11501484608F085FD9DF8DF
:105A70000BA0042204A948468DF817A008F062FD87
:105A800050B1336801225B68514630460137984770
:105A90000028DED10134DCE71822B7FBF2F302FB69
:105AA000137202B101333A460D493046FCF7F6FE57
:105AB0003CB16123224600930A490B4B3046FCF768
:105AC000EDFE012006B0BDE8F0874FF0FF32074938
:105AD0003046FCF7ADFEF4E710690200D76902001A
