:020000021000EC
:10000000E03F082095010100FB000100E100010034
:10001000090101001901010029010100000000008F
:10002000000000000000000000000000B15C0100C2
:100030003901010000000000115D010059010100BB
:10004000D97A0100D97A0100D97A0100D97A010060
:10005000D97A0100D97A0100D97A0100D97A010050
:10006000D97A0100D97A0100D97A0100D97A010040
:10007000D97A0100D97A0100D97A0100D97A010030
:10008000D97A0100D97A0100D97A0100D97A010020
:10009000D97A0100D97A0100D97A0100D97A010010
:1000A000D97A0100D97A0100D97A0100D97A010000
:1000B000D97A0100D97A0100D97A0100D97A0100F0
:1000C000D97A0100D97A0100D97A0100E0C0020092
:1000D00000C007200003000000C30720FC0400004C
:1000E00004207146084203D0EFF3098007F012BDE7
:1000F000EFF3088007F00EBD704708B5014800F027
:100100009EFEFEE7F374020008B5024800F097FE79
:10011000FEE700BFFE74020008B5024800F08FFE43
:10012000FEE700BF0975020008B5024800F087FE2F
:10013000FEE700BF1475020008B5024800F07FFE1C
:10014000FEE700BF2175020008B5024800F077FE07
:10015000FEE700BF2F75020008B506F013FC05F09E
:10016000F9FDBDE8084006F021BC0B4610B5401A69
:100170005C1AA24203D9C45843F8044BF8E710BDF7
:100180000346002210B51C1AA14202D943F8042BE1
:10019000F9E710BD154807F0E7FA144807F0E7FA49
:1001A000134C144DAC4209D3134DAC420ED254F84B
:1001B000080B54F8041CFFF7E3FFF6E794E803008C
:1001C0000C3454F8042CFFF7D0FFEBE70EF0D6F90F
:1001D00007F0DCFC03F0F8FD0CF03CF94FF416409E
:1001E00007F0E8FD054800F02AFEFEE7E03F0820A2
:1001F000CC000100D8000100E000010043750200BE
:1002000008B542684B689A4207D00968006810F048
:100210001DF9003018BF012008BD002008BD08B539
:100220000B460168184610F011F9003018BF012084
:1002300008BDFFFF2DE9F743894690461F46BDF8EC
:100240002850064620B90025284603B0BDE8F083B3
:100250000029F8D0002AF6D0002BF4D014200EF09C
:100260001DFB04460028EED09DF82C30002D0374B1
:1002700008BF01250023C560C0F80090C0F80480C5
:100280008760009302460949706801F07AFF0546CD
:1002900018B920460EF00AFBD6E72146706801F037
:1002A00028FF05460028CFD1F3E700BF0102010077
:1002B00013B50A4640B149B10C78002344B100930C
:1002C0000449406801F047FF02B010BD0846FBE753
:1002D0002046F9E71F02010037B50D4600F02EFB5E
:1002E00048B155B12C7800234CB100932A460549FA
:1002F000406801F030FF03B030BD2846FBE72046E0
:10030000F9E700BF1F0201002DE9F3471446FFF78C
:10031000E3FF8046002800F0DF8098F810300430BA
:10032000013B85C807FB0207072B00F2D580DFE8F9
:1003300003F0224B70ABD395D30405464FF0000970
:10034000674EBD4228D22146304610F0FAF8221AF4
:10035000D8F8043050425041187023461A781C4691
:10036000013312B12C2AF9D11C46D8F808304FF0CD
:1003700001091D44E5E700230646994602ADDFF872
:1003800064A145F8043DBE4206D22A4651462046A5
:100390000FF0B2FF012803D0484602B0BDE8F08755
:1003A000D8F80820294630460EF0B7FA23461A78C6
:1003B0001C46013312B12C2AF9D11C46D8F808305A
:1003C0004FF001091E44DEE700230546994602AEC0
:1003D000DFF814A146F8043DBD42DDD23246514655
:1003E00020460FF089FF0128D6D1D8F808203146E1
:1003F00028460EF092FA23461A781C46013312B1B1
:100400002C2AF9D11C46D8F808304FF001091D44B8
:10041000E2E74FF00009054602AEDFF8D0A006F88B
:10042000049DBD42B8D23246514620460FF064FFCB
:100430000128B1D1D8F80820314628460EF06DFACF
:1004400023461A781C46013312B12C2AF9D11C46D6
:10045000D8F808304FF001091D44E2E700210EF002
:1004600081FA204610F004F8D8F80830D8F8045083
:1004700098420246214628BF03F1FF3228460EF07B
:100480004CFA4FF0010987E7002305464FF00009B9
:1004900002AEDFF85CA046F8043DBD42BFF47CAF7D
:1004A0003246514620460FF027FF01287FF474AFF3
:1004B000D8F80820314628460EF02FFA23461A783D
:1004C0001C46013312B12C2AF9D11C46D8F8083049
:1004D0004FF001091D44E0E74FF000095CE700BF61
:1004E00047510200B6500200EE5002000D510200CA
:1004F0003A510200037C2DE9F74F013B05460C46BB
:100500001646072B00F2F781DFE813F008008B0096
:100510000D017801D40147012A014E018368012BA6
:1005200020D14768CA4A97F90030314620460FF07B
:100530008BFEDFF85493C7F1010807EB0803EA6864
:100540009BB2934203D3012003B0BDE8F08F204655
:100550000FF08EFF17F9013F311A4A4620440FF081
:1005600073FEEAE7022B1BD1D0F80480B94AB8F930
:100570000030314620460FF067FE0127DFF8089370
:10058000EB689F42DFD220460FF072FF0137311A2D
:1005900038F9023F4A4620440FF056FEBFB2EFE75B
:1005A000042B1BD1D0F80480AB4AD8F80030314678
:1005B00020460FF049FE0127DFF8D092EB689F42FA
:1005C000C1D220460FF054FF0137311A58F8043FCA
:1005D0004A4620440FF038FEBFB2EFE7082B40F048
:1005E0008A81D0F804803146D8E900232046CDE93D
:1005F00000239A4A0FF028FE0127DFF89492EB6857
:100600009F42A0D220460FF033FFF8E90223311AAF
:10061000CDE9002320444A4601370FF015FEBFB252
:10062000EDE78368012B1CD147688D4A3B78314642
:1006300020460FF009FEDFF85C92C7F1010807EBD6
:100640000803EA689BB29342BFF47DAF20460FF0E7
:100650000FFF17F8013F311A4A4620440FF0F4FD0E
:10066000EDE7022B1CD1D0F804807E4AB8F80030A8
:10067000314620460FF0E8FD0127DFF81892EB68BD
:100680009F42BFF460AF20460FF0F2FE0137311AEF
:1006900038F8023F4A4620440FF0D6FDBFB2EEE7DD
:1006A000042B1CD1D0F804806F4AD8F800303146B2
:1006B00020460FF0C9FD0127DFF8DC91EB689F426F
:1006C000BFF441AF20460FF0D3FE0137311A58F87E
:1006D000043F4A4620440FF0B7FDBFB2EEE7082BB7
:1006E00040F00981D0F804803146D8E90023204643
:1006F000CDE900235D4A0FF0A7FD0127DFF89C91AB
:10070000EB689F42BFF41FAF20460FF0B1FEF8E93F
:100710000223311ACDE9002320444A4601370FF065
:1007200093FDBFB2ECE74768514A3B78314620461B
:100730000FF08AFDDFF86891C7F1010807EB0803A5
:10074000EA689BB29342BFF4FEAE20460FF090FEE3
:1007500017F8013F311A4A4620440FF075FDEDE7C6
:100760004768444A3B78314620460FF06DFDDFF87C
:100770003491C7F1010807EB0803EA689BB2934282
:10078000BFF4E1AE20460FF073FE17F8013F311AB7
:100790004A4620440FF058FDEDE74368364A31469B
:1007A00020460FF051FDCEE6D0F804A0334F9AF862
:1007B0000030DFF8F480324A002B14BF3B4643463A
:1007C000314620460FF040FDD146DFF8E0B0CAF1D7
:1007D00001034B44EA689BB29342BFF4B4AE204697
:1007E0000FF046FE19F8013F311A002B14BF3B46AB
:1007F00043465A4620440FF027FDE8E7D0F804901E
:100800000127D9F800000CF00DFD1E4ACDE90001CA
:10081000314620460FF018FDDFF894A0EB689F42A8
:10082000BFF491AE20460FF023FEA6EB000B04EBC5
:10083000000859F8040F0CF0F5FC0137CDE9000170
:100840005246594640460FF0FFFCBFB2E6E700BFF4
:1008500096500200A2500200AB500200BA500200B3
:10086000CB500200D8500200E2500200F2500200C9
:1008700004510200105102001A51020047510200B7
:1008800024510200305102009E500200B550020077
:10089000C5500200D4500200ED500200FE5002008C
:1008A0000C5102000D510200905002002C51020028
:1008B00039510200D0F804803146D8E9002320469F
:1008C000CDE900230D4A0FF0BFFC0127DFF830907F
:1008D000EB689F42BFF437AE20460FF0C9FDF8E940
:1008E0000223311ACDE9002320444A4601370FF094
:1008F000ABFCBFB2ECE7002026E600BF3D51020092
:100900003951020038B514461D46FFF7E5FC28B101
:100910002A462146BDE83840FFF7ECBD38BD10B58A
:100920000C4611461A46A047012010BD08B50068C4
:100930000FF08CFD003018BF012008BD07B5002363
:1009400030B10246044800930449006801F003FCFA
:1009500003B05DF804FB00BF00C307202D090100B0
:10096000F8B5064610B900242046F8BD0378002BE0
:10097000F9D0154D2B6813B901F0AEFB2860304655
:10098000FFF7DCFF07460028EDD108200DF086FFB9
:1009900004460028E7D080E8C00001F09DFB6060BD
:1009A00018B920460DF082FFDDE72868214601F0E6
:1009B000A0FB05460028D7D160680DF077FF2046E0
:1009C0000DF074FF2C46CFE700C3072007B50B4698
:1009D00030B10092024604480449006801F0D1FB9E
:1009E00003B05DF804FB00BF00C307201F0901002E
:1009F0002DE9F0430646C1B0154698460C4600293D
:100A000050D0114647680068A04729462648A047AD
:100A1000B268264968460FF04BFC29466846A04755
:100A2000F268224968460FF043FC29466846A04711
:100A30001F49327C68460FF03BFC29466846A047B8
:100A4000B8F1000F0FD069464FF480723046FFF7BF
:100A500051FD29466846A04716482946A04701206F
:100A600041B0BDE8F0833A78134968460FF020FCA6
:100A700029466846A047B368F668DFF840905E43B1
:100A800007F101080136A6EB08033B44012BE3D92B
:100A9000494618F8012B68460FF00AFC29466846BB
:100AA000A047F0E70846DBE7946B02004C510200D8
:100AB00051510200786D020056510200555102005A
:100AC00070B50D4604460FF0D3FC2B4602460121BB
:100AD0002046BDE870400DF043BDFFFFF0B50C4669
:100AE00087B017461D46064648B341B31022002181
:100AF00002A80DF037FF706801F0F8FA11490246BC
:100B000002A80FF0D5FB29460F48A04729463068B8
:100B1000A04729460D48A047294602A8A0470097AC
:100B20002B4622460A49706801F02BFB29460948EA
:100B3000A04729463068A04729460748A04707B084
:100B4000F0BD00BF5F6502005B510200946B0200C4
:100B5000F109010062510200786D02004B688A6859
:100B60000968FFF7BBBFFFFF1FB501900291039219
:100B700001A900220248FFF729FF05B05DF804FB38
:100B80005D0B01000B4619B100220249FFF7A6BF19
:100B9000704700BFC10A01002DE9F04FC9B008AE8F
:100BA00005468022002130460DF0DCFE0024DFF8EF
:100BB0009CA12A467F2130460DF0FAF918B920464B
:100BC00049B0BDE8F08F604930460FF0BAFC86426C
:100BD000EFD13A210FF02CFC00F101083A214046F8
:100BE0000FF026FC07460028E3D0002303704046A0
:100BF000FFF7A4FE01900028DBD0781C0DF009F867
:100C000080460DF1A009B8F1000F01D10124D0E711
:100C100000248022002148460DF0A4FE27462846E5
:100C20000DF05CF9431C19D03A2819D10137032F74
:100C300016DD002407AA51464846079410F0F1FA41
:100C400007AA51460746204610F0EBFA07AA83464A
:100C50005146204610F0E5FA04463FB90024AEE7BD
:100C600009F8040001347F2CD9D1E2E7BBF1000F71
:100C7000F4D00028F2D058460CF0CBFF8346204633
:100C80000CF0C7FF394600FB0BFB0198FFF710FB88
:100C900080B18268C36853439B450BD1476807EB1B
:100CA0000B034FF0FF3B0393039B9F4205D1BBF126
:100CB0000A0FD3D108F1FF38A5E728460DF00EF949
:100CC000044628460DF00AF9029028460DF006F970
:100CD000B0F1FF3F8346C1D00DF06EFDE3B25A1C68
:100CE000815C480712D5303C0DF066FD9DF8083058
:100CF000E4B25A1C815C24014907E4B215D5029B79
:100D0000303B1C44E4B207F8014BCDE70593049255
:100D10000DF052FD049A059B825C02F00302012A49
:100D200008BF2033A3F15704DEE7049202930DF0CD
:100D300043FD049A029B825C02F00302012A08BF71
:100D40002033573BDDE700BF5B510200946B02008C
:100D50002DE9F34100240746904601940D4629B140
:100D600020B1786801F0C2F9844202D302B0BDE834
:100D7000F08101AA2146786801F0D7F978B1C368FB
:100D800086685E43B8F1000F06D02B684168324692
:100D900008EB03000DF0C1FD2B681E442E600134EA
:100DA000DFE72DE9F74300248846174601940646FD
:100DB000C0B1706801F09AF9844213D201AA2146A9
:100DC000706801F0B2F990B1C3688568D7F80090F7
:100DD0005D4341682A4608EB09000DF08FFD20B104
:100DE00000233B6003B0BDE8F0834D443D60013417
:100DF000DFE707B5002202A941F8042DFFF7A8FF9D
:100E0000019803B05DF804FB07B5002202AB43F87C
:100E1000042D0A461946FFF79BFF019803B05DF8C1
:100E200004FB002307B502AA42F8043DFFF7B9FF0F
:100E30000198003018BF012003B05DF804FB10B525
:100E4000044604F049FF013C14F8010F18B9BDE84D
:100E5000104004F051BF06F0E9FFF5E70FB470B59C
:100E60004FF48075C2B046AC54F8046B2A4600219A
:100E700002A80DF077FD23463246294602A80194C8
:100E800010F006FD044602A8FFF7D9FF204642B045
:100E9000BDE8704004B0704710B5012304462370CC
:100EA0000023002AD4BF1A4602F1FF32A16008468F
:100EB000E3602361626000210DF054FD204610BD07
:100EC00038B50446806818B123780BB90DF0EEFCF4
:100ED000E56835B12846FFF7F3FF142128460BF0EB
:100EE000B0FD204638BD80680FF0C2BA4068704738
:100EF000002283681A7070470EB403B503AA52F833
:100F0000041B8068019210F0F5FC02B05DF804EB60
:100F100003B070470CB4F7B5002408AB02AD53F82A
:100F2000047B45F8044D2A4680680E46009310F075
:100F300078F978B13B1B002B0CDD009B1A1D1B6858
:100F4000009203B118602A463146002010F069F97A
:100F50000134EEE7204603B0BDE8F04002B0704730
:100F600008B50B46816818460FF070FAB0FA80F0A9
:100F7000400908BD08B580680FF02DFAB0FA80F07E
:100F8000400908BD2DE9F74F0F788A46A7B34FF007
:100F9000FF35866833788BB333787BB3384610F0EF
:100FA000FFF9014630460FF043FA38B9384610F0E1
:100FB00004FA014630460FF03BFAE8B10446851BBF
:100FC0000AF10108461C14F8010FC14688B198F8CF
:100FD00000B008F10108BBF1000F0AD010F0E0F9F1
:100FE0000190584610F0DCF9019B8342EBD04FF0A2
:100FF000FF3599F80030CEE74FF0FF35284603B0B3
:10100000BDE8F08F08B5FFF7BDFF013018BF012024
:1010100008BD10B5846820460FF093FA08B1001B94
:1010200010BD4FF0FF3010BD70B5044608460D46A8
:101030000FF01EFA06462046FFF755FF864208DCF1
:1010400032462946A0680FF042FAB0FA80F0400913
:1010500070BD002070BD70B5054608460C460FF007
:1010600007FA06462846FFF73EFF864208DC32466E
:10107000A96820460FF004FAB0FA80F0400970BD6C
:10108000002070BDF8B5044608460E4617460FF01E
:10109000EFF905462046FFF726FF85420CDCA368E2
:1010A000314620465D5DFFF7D6FF30B1BD4204D02A
:1010B000B5FA85F04009F8BD0020F8BD38B50C46FA
:1010C0000546FFF710FF002C024609DDA04207DBB2
:1010D000A868121B013201190DF02AFC012038BD4D
:1010E000002038BD38B50C460546FFF7FCFE00234E
:1010F000A042A1BFAA68001B13540120B8BF184624
:1011000038BD70B50D4606461446FFF7ECFE002DBF
:1011100011DBA8420FDD002C0DDD421B9442A8BF5D
:101120001446B068121B2C440119013228440DF0FA
:10113000FFFB012070BD002070BD70B505460E4656
:10114000FFF767FF431C044609D030460FF090F9C3
:10115000214602462846BDE87040FFF7D2BF002076
:1011600070BDF8B585680F462B460024591B13F84F
:10117000016B3EB1BC4203D09642F7D10134F5E792
:10118000FFF79CFF201C18BF0120F8BDF8B50646EC
:101190000D46FFF7A8FE00240746BC420EDA28469B
:1011A0000FF066F92B465A1B904207DDB16813F821
:1011B000012B095D9142F6D10134EEE72CB12146B5
:1011C0003046BDE8F840FFF779BFF8BDF8B50546F1
:1011D00008460C460FF04CF907462846FFF783FEF9
:1011E0000026013800280DDB23461A1B974209DD33
:1011F000AA6813F801EB1118125C7245F5D10E7054
:101200000138EFE7F8BDFFF7ABBE80687047806834
:101210000CF0FFBC38B50C460546FFF764FEA04253
:10122000A868C8BF001938BD037870B50546FBB97A
:10123000B1B10131102491FBF4F4AE680134240102
:101240006C607EB920460DF029FBA86018B12246DB
:1012500031460DF087FBA868003018BF012070BD33
:101260000421E7E7611C30460EF006FEA860F2E7B5
:10127000002070BD0022027042608260C260026184
:10128000FFF7D2BF10B50446FFF7F4FF204610BDAC
:1012900043688B4201DAFFF7C7BF012070470EB4E5
:1012A000F3B50646002407AB53F8047B0093B068FF
:1012B00080B17568009B01353A462946019310F0CC
:1012C000E7FA8542044605DC411C3046FFF7E0FFA3
:1012D0000028ECD1204602B0BDE8F04003B07047D2
:1012E00038B505460C46FFF7FEFD6B68211899429C
:1012F00005DD2846BDE838402031FFF795BF0120C5
:1013000038BD70B5054608460E460FF0B1F80146E7
:101310002846FFF7E5FF044618B13146A8680FF0EC
:1013200078F8204670BD002307B5ADF8043002AB55
:1013300003F8041D1946FFF7E4FF03B05DF804FB52
:1013400070B5044608460D460FF092F863680146F2
:1013500098420DDD2046FFF767FF064640B96268F8
:101360002946A0680FF0C5F8A2686368D65470BD1E
:101370002946A068BDE870400FF072B8FFF7E0BFE3
:10138000002313B50C4602A941F8043D006805F09E
:101390002DFD019B1BB1236843F001032360012055
:1013A00002B010BD30B5044685B001A80D4601F06D
:1013B0008DFB9DF80630227903F01F039A421BD162
:1013C0009DF80530627903F03F039A4214D19DF8ED
:1013D0000430A27903F03F039A420DD1002304A9FF
:1013E00041F8103D2368186805F000FD009B1BB113
:1013F0002B6843F001032B60012005B030BDFFFFD7
:1014000030B50025234A87B01378234C43F00103FD
:10141000137003A8029501F059FB2B46009502AA10
:101420001E49206800F0ADFE9DF80C3013F03F031C
:101430001BD1009302AA1949606800F0A2FE9DF832
:101440000D3013F03F0310D1009302AA1349A06896
:1014500000F097FE9DF80E3013F01F0305D10093A6
:1014600002AA0E49E06800F08CFE00230C480093AD
:1014700002AA0C49006800F084FE029B3BB14FF0C9
:101480008052094B1A60BFF34F8FBFF36F8F07B0C5
:1014900030BD00BF0040024004C30720811301009B
:1014A00014C30720A513010004ED00E02DE9F84F57
:1014B0001C4F04468846002B18BF1F46914672B346
:1014C00069B3436882689A421CD305685D1919D2D2
:1014D000A900C0680EF0D0FCA668E0604FEA860A5A
:1014E000B5420ED9102006F05BF883461022002189
:1014F0000DF038FAE368013643F80AB00AF1040A3D
:10150000EEE76560A368E268591C52F823300A9A36
:10151000A160C3F800905F60C3F80880DA60BDE89E
:10152000F88F00BF796D02002DE9F04F0C4693B0A3
:1015300080464FF0FF321F49204601F0D1F90025C7
:10154000DFF87890DFF878A0DFF878B0D8F80830C6
:101550009D4226D2D8F80C3053F825707B68184687
:1015600001930EF085FF2028019B14D902AE3A6842
:10157000514630460EF09CFE0A2130460EF0CEFF5A
:10158000864202D259460EF06BFF3146204601F0EA
:10159000F1F90135DAE73A684946204601F0EAF9FF
:1015A000F7E74FF0FF320449204601F0ADF913B0E0
:1015B000BDE8F08FE251020015520200095202000C
:1015C000F6510200857502002DE9F04105460846F6
:1015D0000F461646FFF787FC002823DD0024AB6882
:1015E0009C421BD2EB68384653F82480D8F8001090
:1015F000FFF7C0FC80B1D8F804305BB11A780C4911
:10160000002A18BF19464FF0FF323046BDE8F041BE
:1016100001F07AB90649F6E70134E0E74FF0FF320E
:101620000449F2E731462846BDE8F041FFF77CBFA8
:10163000675102008B51020038B50D460024284640
:10164000FFF751FC844208DA21462846FFF7E2FD05
:101650000378202B01D00134F1E721462846FFF71B
:101660002DFD2846BDE838400149FFF78FBD00BF7A
:101670002D5802002DE9F04F0C4691B05149064615
:1016800020461546FFF7A2FD20224F492046FFF7CE
:10169000F9FC074600284CD18146B368994556D3DA
:1016A0004FF00009DFF82CB1B368994580F08280D3
:1016B0002022F3680DEB020153F8298003A8FFF7FD
:1016C000EBFBD8F8001003A8FFF758FE002301AA8F
:1016D0005946204601930293FFF70EFC01A80EF035
:1016E000C7FE012860D901A903A8FFF7B4FC824610
:1016F000002859D0D8F8002021463046FFF79CFF3B
:10170000D8F80830D8F80C2029462046984760B908
:101710004FF0FF322D49284601F0F6F84FF0FF3226
:10172000D8F80410284601F0EFF803A8FFF7C8FB2B
:1017300035E0254A21463046FFF77EFF2A462146FE
:101740003046FFF741FF384611B0BDE8F08FF3682F
:10175000202253F829802046D8F80010FFF792FC89
:101760008246F0B1D8F8002021463046FFF764FFEA
:10177000D8F80830D8F80C20294620469847074664
:101780000028E0D14FF0FF321049284601F0BCF8A4
:101790004FF0FF32D8F80410284601F0B5F857464C
:1017A000D1E709F1010978E703A8FFF789FB09F1FF
:1017B000010979E74FF0FF320549284601F0A4F806
:1017C000C1E700BFB0510200B3510200B85102009E
:1017D0008B510200DD51020001207047012070474B
:1017E00001207047936810B4013B002B936008DA26
:1017F0009469A34202DBCBB20A2B02D110BC10F0D9
:1018000083B81368581C10601970C8B210BC7047B8
:101810000A4B70B51B780D467BB1094E441E14F877
:10182000011F21B130688268FFF7DCFFF7E725B1BF
:101830002846BDE870400EF0B5BA70BD1CC3072045
:10184000E4C0072070B50C460B4E451E15F8011F6D
:1018500021B130688268FFF7C5FFF7E724B1204661
:10186000BDE870400EF09EBA034B0A21BDE87040FF
:1018700018688268FFF7B6BFE4C007203F4B2DE928
:10188000F7431A68036904469A4236D100273D4659
:1018900000213B48FFF7BCFF3A49606AFFF7B8FFF9
:1018A00000213948FFF7B4FF384BDFF8EC901E6891
:1018B0008EB1D6F800800137D8F8003040461B6959
:1018C000766898470028F3D14946D8F82400FFF7F6
:1018D000B9FF0125ECE755B92D4EAF420DD00023DD
:1018E00030681A46194605F0ADF90135F5E731467D
:1018F0002848FFF7A7FF04F017FC002324484FF007
:10190000FF321946006805F0A5FA04F025FC02AE86
:1019100046F8040D04F020FC0546DFF8808060687E
:1019200018B1E16805F06FFBA0602368A16A5B69EC
:1019300020469847074630B9606A4146FFF782FF64
:10194000384604F0ADFDA3690133A361236A1BB1DE
:1019500004F002FC854206D3E1690029DFD030465D
:1019600004F0FEFCDBE704F0F7FB256A0544206980
:1019700004F028FF80006061EEE700BF2CC3072061
:101980001E540200225402004F54020018C30720C4
:1019900028C30720955402007C540200BD54020065
:1019A0002DE9F74F594D8046296839B95848FFF756
:1019B00049FF0124204603B0BDE8F08F4FF0000935
:1019C0004C4600215348FFF723FFDFF878B12E681B
:1019D000DFF874A1CEB13768766807F11003FA6AB0
:1019E000019397F83030C2F38F020093796A3B4637
:1019F000584609F1010904F069FA0028EAD1514674
:101A0000786AFFF71FFF0124E4E73146484605F0F6
:101A100010F9414B186020B931464048FFF712FFDA
:101A2000012400213E48FFF7F3FEDFF820912E68E5
:101A30006EB1376876683B6838469B6898470028DF
:101A4000F6D14946786AFFF7FDFE0124F0E73146FA
:101A50003448FFF7DDFE2F6887B3C0CF33683046C8
:101A6000DB68984700284CD0B8F1000F23D04FF026
:101A700001094FF0020A706AFEF772FF042306F1B3
:101A8000140229498DE800068346FEF7D3FB8DE852
:101A9000000600284FF0040306F1180223495846B7
:101AA00008BF4C46FEF7C6FB28B92149706AFFF70C
:101AB000C9FE0124D0E7002CCED0F6E739461D48F8
:101AC000FFF7A6FE1C491D480CF06AFB064620B134
:101AD000FFF762F830460CF009F900212A680D463C
:101AE000174B186842B117685268FE6AB542F9D2BE
:101AF000386935460121F5E700293FF45BAF1860EE
:101B000058E7B8F1000FD0D04446B0E718C307201B
:101B1000F15202001F53020028C307205153020054
:101B200074530200A3530200C8530200D3530200AF
:101B3000DD53020001540200966102009A6A02001D
:101B40002CC307207D180100365302008F5302007A
:101B500010B5044638B1082005F022FD024B0460A0
:101B60001A681860426010BD18C307200B4B10B5EF
:101B700018700846FFF714FF044658B90146084894
:101B8000FFF746FE04F09EFA21460648BDE81040E5
:101B9000FFF758BE00210448F8E700BF1CC3072028
:101BA0007C52020097520200BB52020070B50B4DEE
:101BB0004FF47A76056000254560856005614561D2
:101BC0008561C5614EF6602541620499C660056273
:101BD0008162C26280F8303070BD00BF6452020082
:101BE000044B1A6890423ABF5B6853F8200000200B
:101BF000704700BF20C30720002337B502AC44F86C
:101C0000043D0D4D40B9034602462146286805F0C3
:101C100021F9019803B030BD0A222146286805F059
:101C200019F903460028F4D104490A8801320A80D0
:101C30004FF0FF32E9E700BF34C3072030C307206D
:101C4000F0B50024ADF50D7D0D460746029405F074
:101C5000B3FE4FF47A7200230BF04CFE4FF409727E
:101C60000646214603A80CF07DFE002D38D0122236
:101C70001C4903A808F016FA044668BB069903A895
:101C800008F08CFC044630B902AB2A46394603A85A
:101C900008F057FB044603A808F06EFC05F08CFE24
:101CA0004FF47A7200230BF025FE0F4B801B1A882D
:101CB0009042029A88BF188095420CBF01260026E8
:101CC00006D0059B2146009308482B460DF0F6FFF1
:101CD00030460DF50D7DF0BD05480DF0EFFFDDE759
:101CE0002C46DBE75355020038C30720715502002C
:101CF0005D5502002F4B2DE9F74F1D68DFF8BC90B2
:101D00002E46DFF8BCA005F58068002302AF47F837
:101D1000043D4EF660223946D9F8000005F09AF8E5
:101D200008B1019B2BB9711B2846FFF789FF2E468E
:101D3000EBE7D9F8000005F05BF9BAF80030019C38
:101D40000130984288BFAAF8000020460EF090FBB0
:101D50000A230021235400F1010B019A06EB0B0426
:101D600002F80B10A04501991FD8A8EB06023046D7
:101D70000CF0D3FDA4EB08044FF480612846FFF774
:101D80005FFF3CB10199ABEB040B22465944284656
:101D90000CF0C3FD2C44084800234FF0FF323946B5
:101DA000006804F04FFF2646AFE75A4630460CF075
:101DB000B4FDF0E750C3072034C307204CC307200D
:101DC00032C3072073B502AC44F8040D0D4649B187
:101DD00000234FF0FF3221460A48006804F032FF2A
:101DE00002B070BD06460EF043FB0A233354019B3C
:101DF000411C5D540198FFF723FF2B462A462146DC
:101E00000148EAE74CC3072034C3072007B504F0B4
:101E1000E9FC02280CD1084B1B684BB10023074892
:101E200002A941F8043D4FF0FF32006804F00AFFB8
:101E300003B05DF804FB00BF50C307204CC307206C
:101E400003289ABF024B53F820000020704700BFC0
:101E50003CC30720014B1888704700BF30C30720E0
:101E6000014B1888704700BF38C30720014B188802
:101E7000704700BF32C307202DE9FF412B4C80463D
:101E80002568002D4AD14FF4806003950CF006FDC3
:101E9000274E2060A8B92068002842D1336863B17A
:101EA0000A24002303A91A46306804F0D3FF10B1B6
:101EB00003980CF0FBFC013CF3D11E480DF072FFBF
:101EC0002CE02A4604210A2004F09AFE1A4F2A46E2
:101ED000386004210A2004F093FE3B683060002B38
:101EE000D9D00028D7D00A2596200CF0D7FC039033
:101EF0000028D0D0002303A91A46306804F0A2FEBF
:101F0000013DF1D10195CDF800802B464FF4C07210
:101F10000A490B4803F0DAFF0028BCD004B0BDE842
:101F2000F0810CF0C3FC00232360B7E750C3072007
:101F300034C30720075502004CC307200055020098
:101F4000F51C0100012303FA00F0044B1A7811B1CB
:101F500010431870704722EA0000FAE700C007201B
:101F60002DE9F04F9A46454B97B01B6806460C4644
:101F70001546002B7CD00FA800F0A8FD05F01CFD35
:101F80004FF47A7200230BF0B5FC814604F02AFC72
:101F90003B4B821ED2F1000816AF48EB02080FCB74
:101FA00007E90F00002C66D02F2120460EF0B6FA6C
:101FB00020B95C2120460EF0B1FA00B1441CDFF8D4
:101FC000D4B04046002D08BF5D46FFF715FE9DF8D2
:101FD0003E1095F800C001F01F0E9DF83D109DF8D1
:101FE000412001F03F010B919DF83C109DF84030DD
:101FF00001F03F010C9116A901EB860151F8101C6C
:1020000003F01F030D911F49CDF800E0BCF1000F54
:1020100008BF594607910D9902F00F0204910C99DF
:10202000CDF820A002910B990695019105941649CF
:10203000CDF80C9007460EF03BF921ABC0F19501AD
:10204000209A38440E930FF023FC104A414652F870
:1020500026303846013342F82630FFF7B3FE0C4BEA
:102060001B7843FA06F6F30702D538460DF09AFEC0
:1020700017B0BDE8F08F074CA1E700BF50C30720A1
:10208000F05402004E5302002C5502003CC30720BE
:1020900000C00720796D02000FB40E4B37B51B68E6
:1020A00093B104F09FFB831E5C425C412046FFF726
:1020B000A3FD054607AB9521069A01930FF0E8FBB7
:1020C00021462846FFF77EFE03B0BDE8304004B04D
:1020D000704700BF50C3072008B50C200CF0DEFB92
:1020E00018B1002303604360836008BD00B18068BD
:1020F000704738B50D46044608B9002038BD0820A1
:102100000CF0CCFB0028F8D0002343602368056066
:1021100033B92060A36860600133A360012038BD3B
:102120006368002BF6D05860F4E798B12AB121B16A
:10213000106878B14368136008E0006841B100B9E5
:10214000704740680139F9E7002AF3D10068704709
:102150000028F9D17047F8B50D4616461F4608B954
:102160000020F8BD0029FBD00468002CF8D0069BA5
:102170003A4631462068A84708B92068F8BD646827
:10218000F3E7F8B50D4616461F4608B90120F8BD1D
:102190000029FBD00468002CF8D0069B3A46314653
:1021A0002068A84708B16468F5E7F8BD70B5064631
:1021B00005F002FC841941F1000505F0FDFBA94280
:1021C00008BFA042F9D370BD08B504F00BFB831E15
:1021D0005842584108BD10B50446FFF7F5FF20B13D
:1021E0002046BDE8104004F0E7B84FF47A70604331
:1021F000BDE81040FFF7DABF37B5044615468DF845
:10220000071004F0EFFA022809D063699DF807204F
:102210001A701A7D5206FCD5012003B030BD002390
:102220002A460DF10701E06904F00CFD0028F4D006
:1022300063691B7D5B06EFD500230DF107011A468C
:10224000E06904F007FE0028E6D063699DF80720E6
:102250001A70E1E710B50446024B036000F0D6FBAC
:10226000204610BDD855020010B50446FFF7F2FF16
:1022700020462C210AF0E5FB204610BD10B504468F
:1022800004F0B0FA022807D1E06904F0B1FE18B1F9
:10229000012004F091F8F7E7012010BDF8B50646DB
:1022A00014460F4609B90020F8BD8369002BFAD007
:1022B00004F098FA022809D1002322463946B06971
:1022C00004F0C8FD003018BF0120F8BD05F074FB14
:1022D0004FF47A7200230BF00DFB00250444002319
:1022E00039461A46B06904F0B5FD58B905F064FBEB
:1022F0004FF47A7200230BF0FDFA8D4208BF84423E
:10230000EDD2D0E70120F8BD802310B54469090162
:102310002373006AB0FBF1F00AF062FF064B002263
:102320000AF022FE0AF0D2FF80B2030A23710323CF
:10233000C0B22070237310BD0000E03F002373B5CE
:10234000426901938DF803309368044603F00E034D
:10235000042B21D00C2B1FD0022B3FD1C06904F0DD
:1023600050FEE38C984203D9E06904F04AFEE08411
:102370001026002501AA0DF10301E06904F004FE16
:1023800000282ED15DB34FF080521B4B1A60BFF373
:102390004F8FBFF36F8F22E003F0E4FE0025A062B1
:1023A00063691A7DD2070ED51B7801AA8DF8033018
:1023B0000DF103010023A06904F0D8FC019B002B60
:1023C00018BF0125ECE7A06904F01BFEA38C98421E
:1023D000D8D9A06904F015FEA084D3E7137D02B01C
:1023E00070BD63699DF803201A70019B002B18BF14
:1023F0000125013EC6D0BDE704ED00E038B5044636
:102400000D4600F0F3FA064B656123600023204679
:10241000A361E3612362A384E384A36238BD00BFA8
:10242000D855020070B516461D46254A4369044634
:10243000934201622FD10121032005F057F9202298
:10244000204B31461A604122636920461A721A7A7B
:1024500042F006021A72FFF757FFA26942B9082D2F
:1024600028464FF00101B8BF082004F0C9FBA06165
:10247000E2693AB9049801210828B8BF082004F09D
:10248000BFFBE061072263695A60A3690BB1E3698E
:10249000A3B9002070BD0C4A934205D10121182038
:1024A00005F024F98022CBE7084A9342F1D10121BB
:1024B000192005F01BF94FF48072C1E7012070BDAF
:1024C00000C0004000E100E00080094000C0094079
:1024D0002DE9F04790F8055104468A46174699467B
:1024E000089EDDF824801DB100252846BDE8F08750
:1024F0000AB9002EF8D004F075F9022835D000236F
:10250000202284F81131D4F80031C4F81471C4F8D1
:102510001C6184F810A1C4F81891C4F820811A60D5
:1025200005F04AFA4FF47A7200230BF0E3F910F544
:102530007A7641F100070023D4F80C011A461946B7
:1025400004F088FC28B194F81151B5FA85F56D09AD
:10255000CBE705F031FA4FF47A7200230BF0CAF999
:102560008F4208BF8642E6D2EDE700234FF47A722D
:102570001946D4F8080104F06DFC0028B4D00023FB
:10258000D4F80C011A46194604F064FC00232021FB
:10259000D4F8002184F810A184F81131C4F8147122
:1025A000C4F81891C4F81C61C4F82081D4F80C0157
:1025B00011604FF47A72194604F04CFC20B194F883
:1025C0001151B5FA85F56D090023D4F808011A46B2
:1025D000194604F037FB88E710B441F0010110BC44
:1025E000FFF776BF7FB500238DF8173001238DF8F4
:1025F0000F200DF11702009201930DF10F02FFF76A
:10260000EBFF9DF8170007B05DF804FB1FB504ACA5
:1026100004F8012D069A0093019201232246FFF748
:10262000DBFF04B010BD13B5002401F0FE010194DE
:102630000094FFF74DFF02B010BD07B58DF80420E0
:102640008DF8053001AA0223FFF7EDFF03B05DF816
:1026500004FB07B58DE80C00002341F001011A4688
:10266000FFF736FF03B05DF804FB002307B502AAAD
:1026700002F8013DFFF7EDFF03B05DF804FBFFFF3B
:1026800038B500250446C0F8001180F80551012036
:1026900004F05AFB0322C4F808012946012004F083
:1026A000AFFAD4F800310C4AC4F80C0193420CD0B4
:1026B00002F5882293420AD0A2F50422934208D15F
:1026C0000A2384F80431204638BD0B23F9E70C2394
:1026D000F7E76323F5E700BF00C0054090F9043138
:1026E00070B50B2B05460C46164635D00C2B36D054
:1026F0000A2B37D10121072004F0F8FFB6F57A7FC5
:1027000098BF4FF47A714FF06C0294BF7143164931
:10271000D5F80031B4FBF1F19A6128226420490810
:102720004A43B2FBF0F21A613C2251430022B1FB52
:10273000F0F15961DA601A625A629A62402201200D
:102740001A6095F90431094A590903F01F0300FA88
:1027500003F342F8213070BD01211320CCE70121A1
:102760001A20C9E7002070BDA086010000E100E04A
:102770002022D0F800319A6110221A6008229A6152
:102780001A68D206FCD490F81031DB074CBF012345
:10279000022380F830317047002310B580F83031C3
:1027A000D0F8003101465A68282A44D00DD8102AA2
:1027B00027D0182A28D0082A0CD1D0F8180191F86F
:1027C0001021B0B942F0010215E0402A3ED005D8F0
:1027D000382A59D05B6881F811311DE0502A3FD06A
:1027E000582AF7D1D0F81C219B681370FFF7C0FF5F
:1027F00004E002F0FE029A6008229A6191F830012A
:1028000010BD90F81021DDE72022D0F820019A6158
:10281000D1F8182110B90AB90846E7E7002AEDD027
:10282000D1F81401013A10F8014B9C60C1F8140171
:10283000C1F81821E0E7D0F81821002AF0D190F86B
:102840001021D207E8D520221A60D5E720229A610C
:10285000D0F82021012A4FF00402F5D89A61CBE785
:102860009B68D0F81C211370D0F81C31042201336E
:10287000C0F81C31D0F82031013B012BC0F82031C9
:10288000D0F80031E0D1E9E790F810215B6812F050
:10289000010F14BF0122022280F8113180F830218B
:1028A000ACE7FFFF13B50446FFF776FF88B10023BE
:1028B00002A941F8043DD4F80C0104F097FA019BF9
:1028C0003BB14FF08052044B1A60BFF34F8FBFF300
:1028D0006F8F02B010BD00BF04ED00E00120704713
:1028E00070B50546164609B9002070BD4C1E14F897
:1028F000011F39B12B6832465B682846984700288B
:10290000F5D1F1E7012070BD38B504461546FFF753
:10291000E7FF2A462046BDE838400149FFF7E0BFFF
:10292000B05102002DE9F743002407460D469046BA
:10293000994602AE06F8014D3B684A461B6831468F
:102940003846984778B19DF807200D2A03D00A2A07
:102950001CBF2A7001350134444509DA0A2AEBD13B
:1029600000232B7001E0002CFAD103B0BDE8F08306
:102970000020F5E70EB433B5044603F033FF022818
:1029800006D100234FF0FF321946E06804F062FAE6
:1029900006AB0093009B059A2189606801930EF0B5
:1029A00077FF2389054698420ADB20F00F0110319A
:1029B00089B2218160680DF05FFA60600028E9D17A
:1029C0004FF0FF3261682046FFF78AFF03F00AFFED
:1029D000022805D10023E0681A46194604F032F9AE
:1029E000284602B0BDE8304003B07047064B10B532
:1029F000036000230446436003810374012004F054
:102A0000A3F9E060204610BD08560200044B10B543
:102A100004460360406808B10BF048FF204610BD33
:102A20000856020070B5184B0E465C69174B0546F8
:102A30001A6C1A2022F470021A641A6C04F44064AE
:102A400042F420021A64996E41F440619966196853
:102A500021F470011960196841F420011960032103
:102A600004F05EFE04F02AFFB4F5406F06D1324652
:102A7000C1082846BDE87040FFF730BE01230020A2
:102A800085F8053170BD00BF00C0092000C00240BC
:102A900010B504460249FFF7F3FD204610BD00BF04
:102AA00000000A4038B5084C23683BB94FF49470D5
:102AB00004F076FD0546FFF7EBFF25602068BDE8D2
:102AC0003840FFF7EFBE00BF54C30720F0B587B012
:102AD0006C460F4D074695E807008DE8070003AEEA
:102AE00095E8070086E807000C22314620460BF0E7
:102AF00005FF38B903CC386020687960B860384683
:102B000007B0F0BD95E8070084E80700E8E700BFDC
:102B1000144002400022184B1A720278C2F30502D8
:102B200083F820204278C2F3050283F824208278BB
:102B3000C2F3040283F82820C278C2F3020283F8A9
:102B400030200279C2F3040283F82C204279C2F3C8
:102B5000030283F83820C179827901F00F0142EA3B
:102B60000122417A9A87027A01F00F0142EA01229A
:102B70009A8601221A727047004002401FB5012157
:102B8000092004F0B3FD01222F4B01A81A72FFF7B0
:102B90009DFFBDF80A3003F62603C3F30B030F2B8A
:102BA0001ED89DF8053003F03F033B2B18DC9DF841
:102BB000043003F03F033B2B12DC9DF8063003F09A
:102BC0001F03172B0CDCBDF80C30C3F30B03B3F55C
:102BD000B77F05DA9DF8093003F00F030C2B2FDDCA
:102BE00001229DF8083001A862F304038DF8083033
:102BF0009DF8093062F3030340F2DA728DF8093070
:102C0000BDF80A3062F30B03ADF80A309DF80730C7
:102C10006FF302038DF807309DF806306FF304035D
:102C20008DF806309DF805306FF305038DF80530FB
:102C30009DF804306FF305038DF80430FFF76AFF49
:102C400005B05DF804FB00BF0040024007B501A8D5
:102C50000EF092FB01A80AF0E9FF03B05DF804FB57
:102C600008B501211D2004F041FD0122024B1A6329
:102C70001A6BD207FCD508BD004000504FF0FF335F
:102C800037B5B1F5805F01934AD2274B1C69E50740
:102C900048D4264C2469E40744D4254CE5686D07E4
:102CA00035D40325234CA5602561234D1D60002AE2
:102CB0002FD001AC5C6041F00044DC6000249C60DB
:102CC00041F206041C61194C3AB3206041F0806166
:102CD0000022E1606560A2604FF4086222611A6917
:102CE00042F001021A61226942F001022261104A97
:102CF000516A41F003015162D868C0F30B0000280B
:102D0000FAD1536A23F00303536203B030BDA568C0
:102D1000C4E7586041F00844CFE701AA2260D7E732
:102D20000120F2E70220F0E720410050004100506E
:102D300000000340004000500800034070B590F8C8
:102D400053508AB0044605B9457C284605F082FDFB
:102D5000002294F8523084F8522094F85420064609
:102D60000092012104F13A02284605F0A1FB044635
:102D700070B1314602A806F0F3F848B19DF80C3066
:102D800003F0C003C02B03D19DF80830AB4200D044
:102D9000002420460AB070BD10B50446024B036003
:102DA000FFF734FE204610BD8056020010B50446E1
:102DB000FFF7F2FF2046582109F043FE204610BDE0
:102DC00010B590F85240621CD2B20444172A80F821
:102DD000522084F83A1002D903689B689847012072
:102DE00010BD70B50E46037E90F83110044699422E
:102DF000B4BF012500250BDB1146113006F0A8F801
:102E000030B10023257E84F83130ED1A18BF01253A
:102E10003DB194F831305A1C84F831201C44637E53
:102E20003370284670BDFFFF70B50446FFF7DEFD26
:102E30000C4B0025236021260323324684F85430AE
:102E4000294684F8535004F111000BF08BFD3246F3
:102E5000294604F132000BF085FD072005F0F8F952
:102E6000204670BD8056020010B50A4C23681BB97D
:102E7000012003F069FF206003F0B4FC022808D1B0
:102E8000002320684FF0FF32BDE81040194603F0E0
:102E9000E1BF10BD58C3072010B503F0A3FC022802
:102EA00008D1BDE81040002303481A4619460068BF
:102EB00003F0C8BE10BD00BF58C3072010B50446BC
:102EC000024B0360FFF7A2FD204610BDD85502005B
:102ED00010B50446FFF7F2FF20462C2109F0B1FDA2
:102EE000204610BD10B504460349FFF787FA034B8F
:102EF0002046236010BD00BF00800940E856020054
:102F000038B5074C236833B92C2004F049FB05463B
:102F1000FFF7E8FF25602068BDE83840FFF70EBAEC
:102F20005CC30720074A136823F0E06323F0FF0324
:102F300013600123116803FA00F041F08071084327
:102F40001060704700400340002307B50D4A01930D
:102F500052680D48C2F30B12ADF802200DF10201C8
:102F600001AA006803F002FF019B3BB14FF08052C1
:102F7000064B1A60BFF34F8FBFF36F8F03B05DF83E
:102F800004FB00BF0040034064C3072004ED00E0E1
:102F900010B504F093FC0121C4080C2004F0A6FB3A
:102FA00003210C2004F0BCFB4FF40013104A11491C
:102FB00013600223B4FBF3F0884214D8116841EA8D
:102FC00003231360012003F0BFFE0B4B00221860A7
:102FD0000221012003F014FE4FF48002074B186019
:102FE000074B1A6010BD0233B3F5807FE2D1E9E7E9
:102FF000004003403F5DC60060C3072064C3072054
:1030000000E100E0F7B5002407280546ADF80640CA
:103010001DD803F0E7FB0228154E1CD1154F23469F
:103020004FF0FF322146386803F014FF2846FFF7BF
:1030300079FF23464FF0FF320DF10601306803F0AF
:1030400009FF234622462146386803F0FBFDBDF800
:10305000060003B0F0BD2846FFF764FF00230DF122
:1030600006011A46306803F0F5FE0028F6D0EEE7B8
:1030700064C3072060C3072008B5044B1B6898474A
:10308000034A137A43F00103137208BD68C3072093
:1030900000000B4010B50446024B0360FFF7B6FC7E
:1030A000204610BDD855020010B50446FFF7F2FFC8
:1030B00020462C2109F0C5FC204610BDF7B50D4671
:1030C0000D4904460868164620F0F00008600868BC
:1030D0001F4640F0500008600121032004F020FB4F
:1030E00004F0ECFB0097014633462A462046FFF7E2
:1030F00099F903B0F0BD00BF00C0024010B504460E
:103100000349FFF77BF9034B2046236010BD00BF46
:1031100000C000405057020038B5074C236833B94F
:103120002C2004F03DFA0546FFF7E8FF25602068F3
:10313000BDE83840FFF702B96CC3072070B50546FB
:103140000E4614460CB12B6803B970BD22681342B9
:1031500008D06368984722682B6823EA02032B6033
:1031600023683360A468EDE7F8B5012484400F4676
:1031700016461D4610D079B10C200BF08FFB58B1CC
:103180004FF40012336880E8900083602B68306051
:103190001C43024B2C601A60F8BD00BF00E100E048
:1031A0001FB5184C1849636868460093A3680193DB
:1031B000636A0293A36A0393144B1A68FFF7BEFF76
:1031C000134B11491A6801A8FFF7B8FF114B1249B8
:1031D0001A6802A8FFF7B2FF104B0F491A6803A83C
:1031E000FFF7ACFF009B0BB9019B13B14FF0FF330E
:1031F000E360029B0BB9039B13B14FF0FF33E36213
:1032000004B010BD808002408C80024074C307204F
:1032100070C307207CC30720AC80024078C307201E
:1032200010B414460029064A0649074B18BF134636
:10323000064A18BF0A46214610BCFFF795BF00BFDB
:103240009480024070C307209080024074C307201E
:10325000026830B5D36913F0040310D002F13003D3
:1032600001F1100451F8045BA14243F8045BF9D169
:10327000438A0133438221230120536030BD184625
:1032800030BDFFFF2DE9FF41264C450154F8058074
:103290006719D8F80C60D8F808303343D90716D529
:1032A000786803F0AEFEFB8908F1200198424FF0E8
:1032B000000388BFF88167191A46786803F056FD45
:1032C00058B3BB8A0133BB820423C8F8043040F2F0
:1032D00002631E4212D06719B86803F092FE3B8A5F
:1032E0000022984288BF388267196946B86803F09F
:1032F0004BFE18B169463846FFF7AAFFB20603D560
:1033000063199B6930469847330703D52C44E3691A
:103310003046984704B0BDE8F081BB890133BB81DA
:10332000D2E700BF04C00720084B10B5D3F8C44053
:10333000A20402D50020FFF7A5FF630404D5BDE871
:1033400010400120FFF79EBF10BD00BF00C00F401E
:103350001FB50446054B0DF1100E0FCB0EE90F0003
:103360000EEB840454F8100C04B010BD6457020036
:10337000F7B50F460646FFF7EBFF17230124162289
:1033800002218DF803308DF8073002AB1E448DF812
:1033900002208DF801108DF8004005468DF80510CB
:1033A00016F8080C21468DF806208DF8044004F02C
:1033B0009DF9214616F8040C04F0B2F90023AB6025
:1033C0006C602B6704F07AFA034BB0FBF3F04743D1
:1033D000EF6003B0F0BD00BF40420F0010B50446DF
:1033E000024B0360FFF712FB204610BDD8550200C8
:1033F00010B50446FFF7F2FF20462C2109F021FB0F
:10340000204610BD10B504460349FEF7F7FF034BF5
:103410002046236010BD00BF00C00940C85702000D
:1034200038B5074C236833B92C2004F0B9F80546A9
:10343000FFF7E8FF25602068BDE83840FEF77EBF53
:1034400080C3072038B504460025104B0360636D28
:10345000E06DAB4206D950F82500102109F0F1FAD1
:103460000135F4E708B104F0A1F80025A36B206C46
:10347000AB4206D950F825000C2109F0E2FA0135DB
:10348000F4E708B104F092F8204638BDA05F0200CE
:1034900010B50446FFF7D6FF2046902109F0D1FA77
:1034A000204610BD73B50546022401260C48FDF7E1
:1034B00045FA01940096234605F174020949FCF788
:1034C000B9FE50B10648FDF739FA0194009623463B
:1034D00005F176020449FCF7ADFE02B070BD00BFF5
:1034E000A45502004B580200595802002DE9F04142
:1034F00004460E46C06889000CF0BEFC4FF0000880
:10350000A568E060AF00AE420DD90C2004F048F889
:10351000E368C0F80080C0F8048080F808800135B6
:10352000D8510437EFE76660BDE8F081F7B50025B4
:10353000044604260B464FF4805200952449FEF7BA
:1035400035FB244B66632360A563E5632564022194
:1035500004F13400FFF7CAFF26656565A565E565DA
:10356000284660210CF088FCA56DE065AE00172DA3
:103570000CD8102004F014F80746102200210BF09C
:10358000F1F9E36D01359F510436F0E718236365C7
:10359000012384F8703000230022A4F87430A4F8CA
:1035A0007630A367002700230B4EC4E92023C4E92B
:1035B000226704F001FA4FF47A7200230AF09AF9B4
:1035C00080197941C4E92001204603B0F0BD00BF55
:1035D000735F0200A05F0200C0D40100F7B505468A
:1035E0001A48FDF7ABF9B5F87660044616B9002025
:1035F00003B0F0BDFDF7FDFB8642F8D1A96F204670
:10360000FDF70FFC07460028F1D111480CF0CAFB6A
:1036100010490E480AF0C4FD0646A8B1A96F20461D
:10362000FDF7F2FB31462046FDF7ACFA30460AF0D2
:103630005DFB09480CF0B6FB084B3A46009339464F
:103640003B460120FEF78CFC0120D1E79A6A02007C
:10365000DC570200C9650200F65702000F5802004D
:103660002DE9F0410F7A14464D680E683FB3082AE1
:1036700019D12846FDF737FC002812DD13494FF019
:10368000FF323046FFF72CF901212846FDF72AFDCD
:10369000336821463046BDE8F0415B684FF0FF32A9
:1036A00018470724F4E70A2AF2D00D2AF0D0214661
:1036B0002846FDF738FE002FEAD1BDE8F0810A2A3E
:1036C000FBD00D2AF3D1BDE8F08100BF2C580200D9
:1036D000F8B5044614200F46154603F061FF80211B
:1036E0000646FDF7CFFDA16BE36B8B4206D3636B00
:1036F000C91803D204F13400FFF7F8FEE36B226C23
:10370000591C52F82330E1631F605E601D72F8BDE2
:103710002DE9FF47CF6B06460D4601AC77B94FF454
:103720007A7002F049FE01976760A76094E807008D
:1037300086E80700304604B0BDE8F0870B6C0DF159
:1037400010081B6893E80700002384E8070008F8C6
:103750000D3D02F001FD00278146EB6B9F425CD2DC
:103760002B6C4FEA870A53F827301868037C002B2C
:1037700051D0036800221B684146984700284AD070
:10378000EB6B9F4244D22B6C53F80A3093E807004E
:1037900084E807009DF8032021462846FFF760FFD4
:1037A00004F00AF94FF47A7200230AF0A3F8D5E97D
:1037B000222380185941C5E920010298FDF793FBA7
:1037C00007460298FDF792FB01388742AEDAD5E949
:1037D0002223134329D004F0EFF84FF47A72002328
:1037E0000AF088F8D5E92023994208BF90421CD3FB
:1037F00004F0E2F84FF47A7200230AF07BF8D5E97E
:103800002223801859410023C5E9200101938DE747
:1038100005F14403BAE701379FE702F09DFC8145BB
:10382000CBD1022002F0C8FDC7E79DF803300A2B78
:103830008FD17BE72DE9FF41054627480CF03EFA82
:10384000294601A8FFF764FF019C54B92846FFF7F9
:10385000C5FE10B921480CF0A5FA012004B0BDE85E
:10386000F081029E3046FDF73EFB0028F5DD04F0B6
:10387000A3F84FF0030805F1500E074620B3B5F842
:10388000743022460133A5F8743031467046FDF796
:10389000F1FE042300258DF800808DF801808DF85D
:1038A00002308DF8033023681DF805105B684FF077
:1038B000FF32204601359847042DF4D104F07CF8FE
:1038C000C11B07480CF0FAF93046FDF711FB2368DD
:1038D00020469B689847C0E72F580200796D020088
:1038E0003558020038B5064C236833B92C2003F054
:1038F00057FE0546FFF702FC2560206838BD00BF73
:103900006CC3072010B50446FFF7ECFF036821469F
:10391000BDE810405B684FF0FF321847002313B535
:1039200002AC04F8013DFFF7DDFF03684FF0FF3202
:103930001B68214698479DF8070002B010BDFFFFA5
:103940002DE9F04100258AB000F1500406460095AB
:103950002046674B674A6849FDF7A8FD0095204659
:10396000664B674A6749FDF7A1FD00952046664B07
:10397000664A6749FDF79AFD00952046654B664A01
:103980006649FDF793FD00952046654B654A6649FB
:10399000FDF78CFD00952046644B654A6549FDF7AF
:1039A00085FD00952046644B644A6549FDF77EFD20
:1039B00000952046634B644A6449FDF777FD009506
:1039C0002046634B634A6449FDF770FD009520462D
:1039D000624B634A6349FDF769FD00952046624BDF
:1039E000624A6349FDF762FD00952046614B624AD9
:1039F0006249FDF75BFD00952046614B614A6249D3
:103A0000FDF754FD00952046604B614A6149FDF782
:103A10004DFD00952046604B604A6149FDF746FD2B
:103A2000009520465F4B604A6049FDF73FFD0095D9
:103A300020465F4B5F4A6049FDF738FD0095204600
:103A40005E4B5F4A5F49FDF731FD009520465E4BB6
:103A50005E4A5F49FDF72AFD009520465D4B5E4AB0
:103A60005E49FDF723FD00955D4B5E4A5E492046A9
:103A7000FDF71CFDFFF736FF4FF4807320224FF453
:103A8000164105460127FFF719FB2F74804657485A
:103A900003F062FB564803F059FB3A46294630468C
:103AA000FFF716FE5348FCF749FF0746FDF7A1F95B
:103AB000A6F8760080B203F075FD0146B06738467F
:103AC000FDF7A2F9082203A905A8FDF7E5F905A865
:103AD0004949FDF753FC2A4605A92046FDF7CAFDD2
:103AE00005A8FDF7EDF940460AB0BDE8F08100BF3A
:103AF00066580200A8580200914301009D58020038
:103B0000AD58020079440100B5580200C3580200C4
:103B10002D4F0100CA5802000B5902009D440100BC
:103B2000105902006C5902007947010070590200D7
:103B3000FE590200F9460100B2590200FD59020087
:103B4000894B0100015A02002F5A020079480100F6
:103B5000325A0200575A0200FD4901005D5A020024
:103B60008A5A0200754A01008D5A0200757F0200D0
:103B7000D14A0100B25A0200D55A0200394A010066
:103B8000D85A0200AB5B0200D5500100AF5B0200C7
:103B9000F25B0200C54C0100FA5B02000D5C020002
:103BA000814D0100145C0200135D020061450100BB
:103BB000175D02003F5D0200F54E0100455D020009
:103BC0001D600200FD5601006F5D0200635E020091
:103BD000295301002C5E0200C069020075520100E9
:103BE000685E0200695F0200B14D01001D390100ED
:103BF000053901009A6A0200B351020001480CF035
:103C0000D1B800BF7363020038B504460D4603F017
:103C100055FE074BB0FBF3F00223B0FBF3F2AA42D0
:103C200004D9B3F5807F01D00233F6E7236138BDB4
:103C300040420F007FB500F235260C460122314686
:103C400006F0F2F9054638BB039002AA03A93046F4
:103C500006F0BDFD40BB0298039B827803FB02F196
:103C600083691248023B5A435208B2F5004F38BFED
:103C700001200F4B24BF03464FF480604908B1FB7D
:103C8000F0F1B2FBF0F200910193214609480CF0EB
:103C900015F8012004B070BD074B2A46214607489D
:103CA0000CF00CF80020F5E7054BF6E7B1630200D5
:103CB000AE630200BB630200B8630200E963020066
:103CC000B463020070B5104D104E2C78BFF35B8FBB
:103CD00014F0010415D1284608F0B5FE88B14FF460
:103CE0000E7003F05DFC302380F835323A2380F803
:103CF000344280F8363280F837423060284608F087
:103D0000AEFE306870BD00BFA8C30720ACC307205B
:103D100038B5064C23683BB94FF4947003F040FC6F
:103D20000546FEF7B5FE2560206838BD54C3072060
:103D300038B5074C23684BB9082003F031FC054621
:103D4000FFF7E6FF402328602B712560206838BD0F
:103D500094C3072038B5054C256825B9012003F028
:103D60001FFC05702060206838BD00BF90C307208D
:103D700038B5084C23685BB90C2003F011FC0546EC
:103D8000FFF7C6FF90232B7100232860AB602560EE
:103D9000206838BD84C3072010B5044C23681BB9C4
:103DA000012003F0FDFB2060206810BD8CC30720BC
:103DB00010B5044C23681BB9012003F0F1FB20600F
:103DC000206810BD88C307204023B649F0B58B6139
:103DD0004FF00073B44A072593614FF480338B6131
:103DE000B24B02241868ADF5057D20F0F000186094
:103DF000186840F050001860186820F440501860AF
:103E0000086840F040000860186820F47C201860C2
:103E1000186840F428201860186820F470001860B2
:103E2000186840F420001860186820F040401860BE
:103E3000186840F000401860586820F03C00586056
:103E4000586840F028005860586820F00300586017
:103E5000086840F480300860586820F4405058608A
:103E6000086820F480000860D96821F44031D960E6
:103E7000116841F080711160596821F44021596046
:103E8000596841F4802159609868894901409960D6
:103E9000116841F4897141F001011160996821F4C0
:103EA00070119960996821F070419960116821F44E
:103EB00046411160D96821F03001D960D96841F0DC
:103EC0003001D960D96821F47011D960136843F0CA
:103ED00000731360136823F080631360FFF758F8D2
:103EE00001210A2003F002FC01210A2003F018FC42
:103EF0007048012105604460FFF786FEFEF7B0FEC2
:103F00000121152003F0F2FB0121152003F008FC2C
:103F10006948012105604460FFF776FEFFF7F8FE6F
:103F20006421FEF77FFD10B964480BF03BFF03F0FE
:103F300019FD04F0E7FF10B961480BF033FF614849
:103F4000FCF70EFD6048FCF70BFD4FF4FA60FEF73E
:103F500042F9FFF753FE03F0B1FC09F0DDFA5B49CB
:103F600009F0E6FB09F05EF902460B4658480BF0F3
:103F7000A5FE03F0FBFD052804AC14D1002363600B
:103F8000544B1B682360FFF739FE534B5348D96CE1
:103F90001A6D5B6D00940BF091FEFFF72FFE41F25E
:103FA0008830FEF718F9FFF78DFE4D49FFF742FE06
:103FB000054668BB4B480BF081FE07F0D7FEFFF7C4
:103FC00081FE29462A4600F2352006F0FBFD464BCD
:103FD000464A00280CBF104618460BF0E3FEFFF7D8
:103FE00071FE3F49FFF726FE90B941480BF0DAFE1B
:103FF00007F03EFE01463F480BF060FE07F028FE4A
:10400000054607F035FE00FB05F13B480BF056FE78
:104010003A4E3B4F3378BFF35B8F13F0010516D157
:10402000304608F010FD90B14FF40E7003F0B8FA6E
:10403000012380F83432312380F835323A2380F876
:10404000375280F836323860304608F008FD2D4986
:1040500038682D4DFFF7EEFD18211648FFF7D4FD07
:10406000FFF7CCFD2B684BB9082003F099FA064600
:10407000FFF74EFE3823306033712E60286807F05A
:1040800012FF064610B921480BF08CFEFFF770FEB8
:1040900008F004F8054600283CD11D480BF082FECC
:1040A0002E4637E000C0092020C0092000C0024091
:1040B000F0FCFCFF0000034000800840D05F0200DD
:1040C000016002009A6A0200A455020000247449AB
:1040D0002660020044400240004002403E60020070
:1040E000B6600200BE600200BD5F0200B85F020061
:1040F000FB6002001A61020029610200A0C30720D0
:10410000A4C307207D6902009CC30720446102000C
:104110005F610200FFF70CFE07F048FF054618B983
:104120006D480BF03FFE2E466C4D2B681BB90120ED
:1041300003F036FA2860286807F006FFFFF72CFE28
:1041400007F098FFFFF706FE07F069FFFFF730FE64
:1041500007F095FFFFF7FEFD002107F063FF002E3B
:1041600040F08180FFF74AFDFFF7E2FD2D2107F0C7
:1041700005FFFFF7DDFD2D2107F00CFFFFF7EAFD3E
:10418000FF2107F04FFF1022002120460AF0EAFB32
:1041900000230F222146524808F034F880B9204607
:1041A00009F037FDC5B2284604F040F84D4A4E4BA1
:1041B0002946002818BF1346494A4C480BF07EFD9B
:1041C000FFF7EAFD07F058FF054600200DF0D4F890
:1041D00028440BF0EFFD4FF40072002120460AF056
:1041E000C1FB204603F0FEFB214641480BF066FD73
:1041F000FFF704FD8022002120460AF0B3FB204691
:1042000007F012FD2278FF2A3BD0214639480BF0F7
:1042100055FD4FF208031D684FF20C031C684FF266
:1042200010031E684FF470431A684FF20403AD0A7E
:104230001968A40A30480BF041FD2A4621462F4850
:104240000BF03CFD31462E480BF038FDFFF7D6FC55
:104250000120FDF711FE2B480BF0A4FDFFF7CEFC6B
:104260000DF5057DF0BDFFF763FD0546FFF780FD09
:1042700007F03EFF09F01EFBC1B2284607F0B2FE70
:1042800081E7FFF795FD07F0FDFE09281FD11E48C5
:104290000BF088FD21461D480BF0C8FE21461C4846
:1042A0000BF00CFD1B480BF07DFD002303A91A4801
:1042B00003930BF0BBFE9DF80C30592B03D1204625
:1042C00007F090FCA5E715480BF06CFDA1E714483A
:1042D0000BF068FD1348F7E77961020098C30720E7
:1042E00092610200C35F0200C95F02009861020090
:1042F00012520200CC610200E96202001563020062
:10430000426302005F630200E86102000A62020089
:104310000F6202002A6202006D62020071620200F6
:1043200089620200B762020038B50C46451E15F8D6
:10433000011F31B123684FF0FF325B682046984778
:10434000F5E738BD70B5104D104E2B78BFF35B8F7D
:1043500013F0010416D1284608F075FB90B14FF414
:104360000E7003F01DF9012380F83432312380F8F8
:1043700035323A2380F8374280F8363230602846AA
:1043800008F06DFB306870BDA0C30720A4C30720F0
:104390002DE9F04FADF51B7D0F46FCF738FF041EED
:1043A00004DD02F0BBFA204602F006F80DF1140914
:1043B0004C462A4D4FF0640B0FCD0FC42B6804AA56
:1043C0002360002410210AA8049402F0AFF9244AC3
:1043D000824624493846FEF7CDFA26464FF00008BB
:1043E0000AADD0451CD06B69A34215D1AA69049BC4
:1043F00016441BB1B3FBFBF3B2FBF3F3297B03922F
:1044000002932B8C00949B00019359F821306A6829
:1044100015493846FEF7AEFA08F101082435E0E701
:1044200001340A2CDAD16422049B10499E1BB3FB91
:10443000F2F30096B6FBF3F30D4A3846FEF79AFA0C
:1044400001F096FE102804D910220A493846FEF7DA
:1044500091FA01200DF51B7DBDE8F08F1C64020070
:10446000DB690200E0690200076A02002F6A0200AD
:10447000246A02004E6A020010B50C46ADF5007DBC
:10448000684603F0AFFA20464FF0FF326946FEF768
:104490003BFA01200DF5007D10BDFFFF30B50C4645
:1044A00091B02C490546FCF7BFFD002848D00CAB65
:1044B00004930BAB03930AAB029309AB019308ABD4
:1044C000009306AA07AB24492846FCF715FD0728E8
:1044D00002D0002011B030BD9DF83930069A0DA8E9
:1044E00062F303038DF83930079A9DF8383062F390
:1044F00004038DF83830089ABDF83A3062F30B03A4
:10450000ADF83A30099A9DF8363062F304038DF81D
:1045100036300A9A9DF8353062F305038DF8353050
:104520000B9A9DF8343062F305038DF834300C9A01
:104530009DF8373062F302038DF83730FEF7EAFA60
:10454000FEF784FB054902462046FEF713FA0120D8
:10455000C0E700BF566602005A660200125202000F
:10456000F7B50D4650490446FCF74DFE064650B1DE
:10457000FDF74CFC4FF0FF324C492846FEF7C4F9DA
:10458000012003B0F0BD4A492046FCF73CFE60B371
:10459000FDF760FC474902462846FEF7EBF9FDF7B8
:1045A00065FC454902462846FEF7E4F9FDF758FC4C
:1045B000424902462846FEF7DDF93046FDF740FC49
:1045C00004460120FDF73CFC06460220FDF738FCBE
:1045D00007460320FDF734FC00970190334622463E
:1045E00037492846FEF7C6F9CAE736492046FCF7A0
:1045F0001BFD50B1202201212046FCF7B2FD2046D0
:10460000FCF703FEFDF748FDBAE72F492046FCF70B
:104610000BFD0646F8B92D492046FCF705FDD0B93B
:104620002046FCF7F2FDF3230090294A2949012096
:10463000FDF796FC2046FCF7E8FD27490246284690
:10464000FEF798F99CE7032416E0022414E0234BBC
:1046500024E0234B22E023492046FCF7D3FC00282A
:10466000F3D121492046FCF7CDFC0028EBD12046B0
:104670001B49FCF7C7FC044631462046FDF762FCA7
:104680001A4B1B4A002E08BF1A46002CDFD0012C03
:10469000DFD01549134B022C18BF0B46154928468D
:1046A000FEF768F96CE700BF286502002E6502007E
:1046B000476502004E6502006365020078650200EE
:1046C00097650200C7650200CB650200D365020052
:1046D0006E6C0200F565020048660200A4550200F7
:1046E000A8580200AA550200AF5502001F6502003B
:1046F00017650200DC65020030B5002489B004AB08
:1047000000930D4603AB0222184903940494FCF76E
:1047100001FC022828D107AB009305AA06AB049937
:10472000039805940694079407F0F4FC024648B1F8
:10473000049B0F4900932846039BFEF71BF90120B9
:1047400009B030BD059A069B002A08BF0122002B44
:1047500008BF012307992846B1FBF3F3B1FBF2F23E
:104760000449FEF707F9EAE72046E9E72D58020079
:10477000466B0200656B02002DE9F0470E46ADF571
:10478000856D38490546FCF7D8FC37490746284669
:10479000FCF7FCFC34492846FCF718FD2846FCF7DA
:1047A00034FD0122014681A805F07CFC044660B17D
:1047B0002846FCF72AFD2D4902463046FEF7DAF876
:1047C00001200DF5856DBDE8F0870DF1040A014665
:1047D0004FF4007250460AF0C5F8009403F0ECF86C
:1047E000804689466B464FF40072514681A805F019
:1047F000F0FC08B9009B23BB81A805F0BDFECFB13A
:1048000003F0DAF84FF47A72002309F073F800230A
:1048100005464FF47A724046494609F06BF8281A6B
:1048200014BF034601232246B4FBF3F3104930467C
:10483000FEF7A0F84FF0FF320E493046FEF764F85D
:10484000BEE71C44002FCDD13D46009B9D42C9D2FE
:1048500033681AF805105B684FF0FF32304698470E
:104860000135F2E7306402002D580200396402007D
:104870004D640200796D020000232DE9F04F0C46D3
:10488000C1B0564905460E93FCF7BDFC98B92846C1
:10489000FCF7BBFC0646314617A805F026FF054687
:1048A00058B1034632464E492046FEF763F80120D0
:1048B00041B0BDE8F08F4B4EEDE732464A49204605
:1048C000FEF758F82F46DFF8309180230DF180086D
:1048D0000FA917A8CDF85480169305F049FF0028BA
:1048E00063D19DF84530002B5FD09DF84410BDF892
:1048F0004200CA065BBF0E9B0F9A44229B185BBF07
:104900000E932D220135013711F0010F14BF5223F0
:104910002D2311F0020F14BF4FF0480E4FF02D0E53
:1049200011F0040F14BF4FF0530C4FF02D0C11F089
:10493000200F14BF4FF0410A4FF02D0ABDF8401070
:104940000DF1450BCDF824B0C0F3451BC012069005
:1049500001F01F000B9305900F9BC1F34310491208
:1049600001F2BC71CDF804C0CDF800E008930490CA
:104970000B9B0391CDF81CB04946CDF808A020460A
:10498000FDF7F8FF4FF0FF3218492046FDF7A8FF6A
:1049900041464FF0FF322046FDF7A2FF4FF0FF32B5
:1049A0000E492046FDF7B0FF8FE73A4610490095C3
:1049B0000E9B2046FDF7DEFF0DAA0EA9304605F03E
:1049C00006FF00287FF473AF0D9B0E9A9B78094970
:1049D0005A4320465208FDF7CDFF68E7796D020083
:1049E000966B0200936B0200BA6B0200026C02002D
:1049F000066C0200306C0200D56B020070B50C46EC
:104A00000646FCF702FC05463046FCF7FEFB05F0C7
:104A1000A1FF064A064B0749002808BF13462A464D
:104A20002046FDF7A7FF012070BD00BF4E690200C0
:104A3000586902007A67020070B50C460646FCF71A
:104A4000E4FB05463046FCF7E0FB05F024FF064A90
:104A5000064B0749002808BF13462A462046FDF7A3
:104A600089FF012070BD00BF4E6902005869020035
:104A70005C6C02007FB5002403AB00930E4602ABD2
:104A800002220F4902940394FCF744FA022815D13C
:104A9000029C039D2046294606F005F8094B0A4969
:104AA000224600280CBF084618462B4600900749AE
:104AB0003046FDF75FFF012004B070BD2046FBE7E4
:104AC0002D580200586902004E690200446C020031
:104AD00030B5ADF50D7D0C460546FCF796FB0A2278
:104AE000014603A805F0DEFA58B12846FCF78DFB15
:104AF000214902462046FDF73DFF01200DF50D7DC1
:104B000030BD8DF80700029042F210737E221B49DF
:104B10002046FDF72FFF1A492046FDF72BFF194DC0
:104B2000236842F210721B680DF107012046984776
:104B300018B19DF807307E2B0FD103A805F01CFD9E
:104B4000DBE7029B012B11D123684FF0FF325B683A
:104B50009DF8071020469847E2E702AB01220DF1CD
:104B6000070103A805F0EDFB0028EAD029462046FE
:104B7000FDF700FFD4E700BFA1680200C86802008B
:104B8000006902002069020000232DE9F04FADF515
:104B9000437D06AC236005930E46009405AB0222CC
:104BA0004049FCF7B7F902280AD04FF0FF323E49DE
:104BB0003046FDF7A9FE01200DF5437DBDE8F08FDD
:104BC000216819A805F091FD28B1226837493046BF
:104BD000FDF7D0FEEFE7059919A805F086FD10B1A5
:104BE000059A3349F3E74FF4807242A907A8FCF70E
:104BF00053F94FF4807282A90CA8FCF74DF92D4FA0
:104C00000DF1880A4FF0800811A919A8CDF85CA011
:104C1000CDF8608005F0ACFD10B99DF84D3033B98A
:104C20000CA8FCF74DF907A8FCF74AF9C3E79DF873
:104C30004C5015F01005E7D10DF14D03059A39469A
:104C400007A8FCF72CFB226839460DF14D030CA890
:104C5000FCF725FB07A8FCF7D8FA80460CA8FCF760
:104C6000D4FA119B814607A80393FCF7CEFA83463A
:104C70000CA8FCF7CAFA2B462A460146009558466E
:104C800007F048FA0C4B0D4A0D49002818BF1A4688
:104C9000039B0192009342464B463046FDF76AFE65
:104CA000B0E700BF2D58020068640200AD64020046
:104CB000D2640200F2640200586902004E690200E8
:104CC000F8640200F8B50D4623490646FCF79BFA46
:104CD000044698B1FFF736FB002200F2352011465A
:104CE00005F070FF4FF0FF321C4B1D49002818BF24
:104CF00019462846FDF708FE2046F8BD19493046FA
:104D0000FCF781FA044610B1FEF7DCFFE4E7164930
:104D10003046FCF778FA044658B1FFF713FB01223E
:104D200000F2352105F080F94FF0FF320F4B1049AA
:104D3000DCE710493046FCF766FA04460028DBD071
:104D4000FEF7C0FF012200F2352105F06DF94FF0AA
:104D5000FF32094B0949C9E7AF69020051690200F6
:104D600047690200B9690200C66902006E69020063
:104D70005E690200CF690200936902008569020042
:104D800008B508464FF0FF320849FDF7BDFDFDF7B5
:104D90003DF84FF4FA6001F00FFB4FF08043AA2278
:104DA0001A7200221A70012008BD00BF416802007B
:104DB0002DE9F041C4B007460C46FCF794F80246D2
:104DC00038B921463E48FBF7CFFE012044B0BDE88C
:104DD000F0813C493846FCF73EF908B10122F0E782
:104DE00039493846FCF70FFA8046A0B137493848B0
:104DF00009F0D6F905463648FBF7A0FD2946FBF732
:104E0000C1FE284608F072FF4FF0FF3231492046BC
:104E1000FDF77AFDD9E730493846FCF71CF902ADB9
:104E200003AE28B3C5F80080C6F8008043468DE87D
:104E30006000032229493846FCF76CF8032813D197
:104E40004FF48072414604A809F08CFD04AA4FF487
:104E5000807331682868FBF755FD4FF0FF3208B1C9
:104E600004A9D4E71E49D2E74FF0FF321D49CEE72F
:104E70000DF1100828603060C8F800002B468DE85E
:104E80004001032215493846FCF744F8032803D0B3
:104E90004FF0FF321449BAE7D8F80020316828688B
:104EA000FBF732FAD8F80030009333682A6820B153
:104EB0000E492046FDF75EFD87E70D49F9E700BF83
:104EC00029430100786A02007E6A0200C965020077
:104ED0009A6A0200836A02009F6A02002D5802004B
:104EE000A36A0200CD6A0200FE6A02001A6B020089
:104EF0002B6B020010B501200C46FCF771FE60B16F
:104F000000231A46194601F09DFE4FF0FF32054975
:104F10002046FDF7F9FC012010BD4FF0FF32024999
:104F2000F6E700BF52680200686802002DE9F04F02
:104F3000604C91B023680E4633B92C2002F030FB50
:104F40000546FEF7DBF825602768FEF7BBFE002468
:104F50000CAA0DA900F235200D9405F038FC0028AC
:104F60004FD10C9B0D9C9D789B696C43023B5D432C
:104F700064086D08504B1A6898467AB90C2002F004
:104F80000FFB8146FEF7C4FE902389F8043000230E
:104F9000C9F80000C9F80830C8F80090D8F8000037
:104FA00007F0A6F8814608F05FFC0A9008F0B8FA0E
:104FB0000146484608F0FEF9404908F005FB08F0B4
:104FC00053FC81460DA802F0D7FD06F057FE0028DD
:104FD00069D0FDF749FF4FF0000A06F039FED346CD
:104FE0000346D0469A450B930DD0504606F094FEEA
:104FF000804538BFD3460B9B38BF80460AF1010A73
:10500000F0E72546B6E7FDF747FF642303FB08F307
:105010002B4ACDF80880B3FBF2F3C3F1640300938D
:10502000CDF804B02B46224626493046FDF7A2FCB7
:10503000254C23681BB9012002F0B2FA20602068D9
:1050400007F01AF80446FDF701FEFB8C0A9A099353
:10505000BB8C1E4908939DF83430019003F03F0348
:1050600007939DF83530009403F03F0306939DF8B5
:105070003630304603F01F030593BDF83A30C3F3D2
:105080000B0304939DF8383003F01F0303939DF83E
:10509000393003F00F0302934B46FDF76BFC012000
:1050A00011B0BDE8F08F2B46224609493046FDF786
:1050B00061FCBDE76CC3072084C3072000002041CA
:1050C000A0860100966702008CC30720D867020003
:1050D000CA6702002DE9F04F0C46C7B05749814618
:1050E000FBF7B9FF564907464846FBF7B4FF554959
:1050F00083464846FBF7AFFF00260DF1100805ADCB
:10510000824602960396C8F800602E60002F4BD0AE
:10511000009503AB02AA4C494846FBF7EDFE012877
:105120000ADC4FF0FF3249492046FDF7EDFB3746D8
:10513000384647B0BDE8F08F4FF480790DF118087C
:105140004A463146404609F00DFC2B6833BB01232B
:105150002B60FEF7DDFD2B689DF80C209DF80810F4
:1051600000934346FDF752FA394A3A4B3A49002830
:1051700018BF1346029A2046FDF7FCFB0026DFF815
:10518000F0902B689E42D3D2039A18F8063032442E
:1051900049462046FDF7EEFB0136F2E7B3F5807F86
:1051A00088BFC5F80090D4E7BBF1000F2CD0CDF834
:1051B000008003AB02AA29494846FBF79DFE03285D
:1051C00006D04FF0FF3226492046FDF79DFBAFE7A2
:1051D000FEF79EFD98F800309DF80C209DF8081011
:1051E000FDF72BFA50B1039B1E490093D8F800201D
:1051F000029B2046FDF7BEFB5F4699E7029A1A49DB
:105200002046FDF7B7FBF7E7A8B10223174D02933D
:10521000029BFE2B0FDCFEF77BFD9DF80810FDF7CF
:1052200024FA20B1029A29462046FDF7A3FB029BEF
:1052300002330293ECE757467AE700BF6759020052
:1052400073660200796602008266020091660200BF
:105250004E69020058690200B2660200E66602006A
:10526000F66602001D6702003767020054670200FD
:10527000D666020070B5ADF50A7D05460C46FBF713
:1052800032FE0B2805DD0C2222492046FDF772FB79
:1052900036E02846FBF7B9FF0122014601A804F0D9
:1052A00001FF064680BB01A805F066F92846FBF71A
:1052B000ACFF19490246049B2046FDF75BFB2368BF
:1052C00020469B6898470A2001F076F84FF01003BB
:1052D00083F31188BFF36F8FBFF34F8F2846FBF71F
:1052E00094FF02460D4B0068516803C390680C4A56
:1052F000186043F80C2C4FF08043AA221A721E70DB
:1053000001200DF50A7D70BD2846FBF77EFF05499B
:105310000246BAE70C6D0200336D020048400240BD
:105320000DD0ADDE7A6D02002DE9F041414CA4B004
:1053300023780646DB070D46BFF35B8F0CD420466F
:1053400007F081FB40B14FF4806009F0A7FA3A4BB7
:105350001860204607F083FB38493046FBF77BFE98
:105360000746044630B38022002104A809F0FAFA67
:1053700000230293039303AB009304AA02AB3049CA
:105380003046FBF7B9FD2C49029B039A096804A833
:105390006BB906F059FF2B4B2B49002818BF194653
:1053A0002846FDF7E7FA384624B0BDE8F08106F05C
:1053B0006DFFF0E725493046FBF74DFE0746002814
:1053C000F1D004AB304603AA2149039404948DF82C
:1053D0000840FBF791FD039E049B3344B3F5806FB7
:1053E00013DCDFF85480039B049AF31A93421DDA0E
:1053F000B6F5806F1ADA2B684FF4FA621B6802A9BF
:105400002846984740B91349CAE74FF480621249C9
:105410002846FDF7AFFAC6E7D8F800309DF8082017
:105420009A559DF8083001361C44DCE722460B49AA
:10543000EEE700BFB0C30720B4C30720A36C02008F
:10544000AA6C0200916C02008D6C0200BA6C020022
:10545000C16C0200EF6C0200CB6C0200FF6C02001A
:1054600030B50C46054687B00A49FDF783FAA18896
:1054700023880491218962880391E188284602915A
:10548000E17A0191A17A00910349FDF773FA07B01F
:1054900030BD00BF9F720200D57202001FB501A887
:1054A0000C4603F0E9F902F0CDFE01A902462046C0
:1054B000FFF7D6FF012004B010BDFFFF2DE9F0413A
:1054C00000268CB003AB00930D46904602AB02223F
:1054D000384902960396FBF71DFDB04229DD02987C
:1054E00008F097FBC7B2039808B10AF0C1FF324E2B
:1054F000C4B2002104A803F02BFD30B14FF0FF32FD
:1055000031462846FDF700FAF3E7022318F10001BF
:105510000093039A234618BF0121384602F0C8FFC2
:10552000064650B94FF0FF3224492846FDF7ECF902
:10553000012630460CB0BDE8F081B8F1000FF8D07C
:105540004FF47A7104A803F00BFD60B39DF810309E
:10555000BB4228D19DF817300C2B04D13A4606A93E
:105560002846FFF77DFFBCB915492846FDF702FA2A
:105570009DF817309C420ADA04AB19192B684FF0DA
:10558000FF325B68097A284698470134F0E70D49F5
:105590002846FDF7EFF9CCE74FF0FF320A492846DD
:1055A000FDF7B2F9C5E7029A08492846FDF7E2F986
:1055B000BFE700BF2D580200C36F0200E56F020075
:1055C0000D700200B3600200217002003E70020004
:1055D00038B50D46FBF71BFE0446C0B202F026FEAE
:1055E000054A064B0649002818BF1346224628469E
:1055F000FDF7C0F9012038BD4E690200C95F020005
:105600006470020073B50C4602F094FF054616491B
:105610002046FDF7AFF915492A462046FDF7AAF9BD
:1056200011492046FDF7A6F9DDB111492046FDF7E5
:10563000A1F90D492046FDF79DF900250D4EE8B270
:1056400002F062FF013540B1817843780278009121
:1056500020463146FDF78EF9F1E703492046FDF774
:1056600089F9012002B070BD936D0200AE6D020099
:10567000C86D0200E36D02004FF47A73F0B58BB091
:105680000AAA0C4642F8243D1849FBF735FC0025D0
:10569000174F184E019902A803F05AFCD8B19DF893
:1056A000082039462046FDF765F900259DF80F30A2
:1056B0009D420ADA02AB591923684FF0FF325B684A
:1056C000097A204698470135F0E731462046FDF734
:1056D00051F90125DEE72DB94FF0FF32064920468A
:1056E000FDF712F901200BB0F0BD00BFC86C02003D
:1056F0009B6F0200786D0200B26F02002DE9F34744
:105700003C4C074626688946002E62D1242001F0D1
:1057100047FF0423054680E848008660C6602021D4
:1057200030460AF0A9FBAE68E8604FEA8608072E0B
:105730000ED8102001F034FF82461022002109F01B
:1057400011F9EB68013643F808A008F10408EEE708
:10575000002608234FF001086B60274A274B284991
:105760002846009685F820802560FBF79FFE254B94
:10577000254A264920680096FBF798FE244B254AC7
:10578000254920680096FBF791FE244B244A2549C1
:1057900020680096FBF78AFE234B244A24492068A0
:1057A0000096FBF783FE234B234A24492068CDF85B
:1057B0000080FBF77BFE224B224A2049206800969E
:1057C000FBF774FE0096204B204A21492068FBF726
:1057D0006DFE20493846FBF716FD18B11E493846C4
:1057E000FBF7CCFD4A463946206802B0BDE8F047D9
:1057F000FBF740BFBCC30720386E0200FE6D0200FD
:10580000A95A01003F6E0200936E02007D5801000C
:105810009C6E0200BF6E020079560100C26E02004B
:1058200093610200D1550100EC6E0200086F020086
:10583000055601000F6F0200766F0200BD54010093
:10584000506F0200756F02007A6F0200956F0200C0
:105850009D540100796D0200B351020038B5064C29
:10586000236833B9582001F09BFE0546FDF7DCFAAA
:105870002560206838BD00BFB8C307202DE9F04F70
:10588000ADF2DC5D044680220DF1B40988460DA816
:10589000002109F067F880220021484609F062F8EB
:1058A000002306AE33600DAA00964B46744920468D
:1058B000FBF722FB032804D000200DF2DC5DBDE8DD
:1058C000F08F01220DA9EDA804F0ECFB054600289D
:1058D000F2D1FFF7C3FF3368802280F853304DA91F
:1058E000044608A88DF817500795FBF7D5FACDF8B0
:1058F000009033680DAA63494046FDF73BF82F46F8
:1059000007AB4FF400726DA9EDA804F062FC00280B
:1059100040F0AD80079B002B00F0A980022D00F223
:10592000A68007AE326858492046FDF723F8236861
:1059300020469B6898474FF0000A0DF5DA7B6DAB67
:105940003268ABEB03039A4223680CD9CDF80CB054
:105950005B684FF0FF321BF8011B20469847039B02
:105960001B789A44EBE79B682046984708A8FBF70A
:105970004CFC834608A8FBF7B9FA4FF47A73024649
:1059800059462046FCF7CEFF202201210DEB0200F4
:10599000FBF7E7FB08A8FBF73AFC82451CD008A8F8
:1059A000FBF735FC5246034638494046FCF7E2FF18
:1059B00037492046FCF7DEFF236820469B6898475E
:1059C00023684FF47A721B680DF11701204698473F
:1059D0000028F5D10135A1E733684A462D490093E7
:1059E00020463B46FCF7C6FF236820469B68984745
:1059F00008A8FBF70AFC824608A8FBF777FA51468D
:105A000002464FF47A732046FCF78CFF224908A81F
:105A1000FBF7F8FAD0B908A8FBF7F7FB1F490246D5
:105A20004046FCF7A7FF1A492046FCF7A3FF23686E
:105A300020469B68984723684FF47A721B680DF1E3
:105A40001701204698470028F5D1C3E7144908A854
:105A5000FBF794FC336813491F443A46F09B4046D9
:105A6000FCF788FF002D3FF44BAF013D48E7EDA860
:105A700004F082FD08A8FBF723FA01201DE700BF10
:105A80007B7002008A700200A1700200B3700200F5
:105A9000786D0200DA700200F0700200F37002000C
:105AA000796D02002B7102002DE9F04700240746B2
:105AB00086B006AA42F80C4D0E463D49FBF71CFA8B
:105AC000202201213846FBF74CFB039B002B68D0BA
:105AD0003846FBF708FA002863D0FFF7BFFE0546FB
