:020000021000EC
:10000000E03F082095010100FB000100E100010034
:10001000090101001901010029010100000000008F
:10002000000000000000000000000000111E0100A0
:100030003901010000000000711E0100590101009A
:100040002536010025360100253601002536010040
:100050002536010025360100253601002536010030
:100060002536010025360100253601002536010020
:100070002536010025360100253601002536010010
:100080002536010025360100253601002536010000
:1000900025360100253601002536010025360100F0
:1000A00025360100253601002536010025360100E0
:1000B00025360100253601002536010025360100D0
:1000C000253601002536010025360100EC29020005
:1000D00000C00720FC02000000C30720B404000099
:1000E00004207146084203D0EFF3098003F0B8BA48
:1000F000EFF3088003F0B4BA704708B5014800F088
:10010000CFF8FEE7E6FA010008B5024800F0C8F8AB
:10011000FEE700BFF1FA010008B5024800F0C0F8A0
:10012000FEE700BFFCFA010008B5024800F0B8F88D
:10013000FEE700BF07FB010008B5024800F0B0F879
:10014000FEE700BF14FB010008B5024800F0A8F864
:10015000FEE700BF22FB010008B502F07BFA01F0C8
:10016000A9FEBDE8084002F089BA0B4610B5401A56
:100170005C1AA24203D9C45843F8044BF8E710BDF7
:100180000346002210B51C1AA14202D943F8042BE1
:10019000F9E710BD154803F08DF8144803F08DF809
:1001A000134C144DAC4209D3134DAC420ED254F84B
:1001B000080B54F8041CFFF7E3FFF6E794E803008C
:1001C0000C3454F8042CFFF7D0FFEBE708F03EFEA8
:1001D00003F078FA01F01CFB07F0ACFA4FF416407C
:1001E00003F084FB054800F05BF8FEE7E03F0820E1
:1001F000CC000100D8000100E000010036FB010046
:1002000008B500680AF0DFFB003018BF012008BD08
:1002100007B5002330B10246044800930449006842
:1002200000F04EFA03B05DF804FB00BF00C30720E6
:1002300001020100F8B5064610B900242046F8BDB9
:100240000378002BF9D0154D2B6813B900F012FA82
:1002500028603046FFF7DCFF07460028EDD1082074
:1002600008F08EFE04460028E7D080E8C00000F0C9
:1002700001FA606018B9204608F08AFEDDE72868B8
:10028000214600F001FA05460028D7D1606808F041
:100290007FFE204608F07CFE2C46CFE700C30720F7
:1002A00010B5044601F0C6FD013C14F8010F18B961
:1002B000BDE8104001F0CEBD03F054FBF5E70FB4EC
:1002C00070B54FF48075C2B046AC54F8046B2A4642
:1002D000002102A808F0B8FE23463246294602A8AB
:1002E00001940BF0F7FC044602A8FFF7D9FF204663
:1002F00042B0BDE8704004B07047002313B50C460F
:1003000002A941F8043D006802F0D0FB019B1BB13B
:10031000236843F001032360012002B010BD30B513
:10032000044685B001A80D4600F090FD9DF806300A
:10033000227903F01F039A421BD19DF805306279A0
:1003400003F03F039A4214D19DF80430A27903F0E0
:100350003F039A420DD1002304A941F8103D2368C0
:10036000186802F0A3FB009B1BB12B6843F001034C
:100370002B60012005B030BD30B50025234A87B081
:100380001378234C43F00103137003A8029500F087
:100390005DFD2B46009502AA1E49206800F0A6F9D3
:1003A0009DF80C3013F03F031BD1009302AA1949AA
:1003B000606800F09BF99DF80D3013F03F0310D1F9
:1003C000009302AA1349A06800F090F99DF80E303E
:1003D00013F01F0305D1009302AA0E49E06800F054
:1003E00085F900230C48009302AA0C49006800F02C
:1003F0007DF9029B3BB14FF08052094B1A60BFF36D
:100400004F8FBFF36F8F07B030BD00BF0040024079
:1004100004C30720FB02010014C307201F030100CF
:1004200004ED00E0F0B50024ADF50D7D0D46074666
:10043000029403F067F84FF47A72002308F0C2F9CF
:100440004FF409720646214603A808F0FDFD002D71
:1004500038D012221C4903A805F040FA044668BBB4
:10046000069903A805F0B6FC044630B902AB2A464B
:10047000394603A805F081FB044603A805F098FC63
:1004800003F040F84FF47A72002308F09BF90F4B09
:10049000801B1A889042029A88BF188095420CBF30
:1004A0000126002606D0059B2146009308482B46CE
:1004B00009F064FF30460DF50D7DF0BD054809F0EB
:1004C0005DFFDDE72C46DBE790F2010020C307204B
:1004D000AEF201009AF201002F4B2DE9F74F1D6893
:1004E000DFF8BC902E46DFF8BCA005F5806800233D
:1004F00002AF47F8043D4EF660223946D9F80000B5
:1005000002F008FB08B1019B2BB9711B2846FFF7CD
:1005100089FF2E46EBE7D9F8000002F0C9FBBAF8D4
:100520000030019C0130984288BFAAF800002046A4
:100530000AF05BFA0A230021235400F1010B019A0F
:1005400006EB0B0402F80B10A04501991FD8A8EB8D
:100550000602304608F053FDA4EB08044FF4806116
:100560002846FFF75FFF3CB10199ABEB040B224635
:100570005944284608F043FD2C44084800234FF016
:10058000FF323946006802F0BDF92646AFE75A4609
:10059000304608F034FDF0E728C307201CC30720CD
:1005A00024C3072018C307202DE9FF412B4C8046A8
:1005B0002568002D4AD14FF48060039508F0E0FCD7
:1005C000274E2060A8B92068002842D1336863B163
:1005D0000A24002303A91A46306802F09BFA10B1DE
:1005E000039808F0D5FC013CF3D11E4809F03AFF0E
:1005F0002CE02A4604210A2002F06AF91A4F2A4602
:10060000386004210A2002F063F93B683060002B57
:10061000D9D00028D7D00A25962008F0B1FC039045
:100620000028D0D0002303A91A46306802F06AF9E6
:10063000013DF1D10195CDF800802B464FF4C072F9
:100640000A490B4801F0A4FC0028BCD004B0BDE866
:10065000F08108F09DFC00232360B7E728C3072042
:100660001CC307206BF2010024C3072064F20100C1
:10067000D904010008B50C2008F082FC18B1002351
:1006800003604360836008BD38B50D46044608B971
:10069000002038BD082008F073FC0028F8D00023A3
:1006A00043602368056033B92060A368606001334C
:1006B000A360012038BD6368002BF6D05860F4E7D2
:1006C000F8B50D4616461F4608B90020F8BD0029AA
:1006D000FBD00468002CF8D0069B3A4631462068CF
:1006E000A84708B92068F8BD6468F3E7F8B50D4677
:1006F00016461F4608B90120F8BD0029FBD0046842
:10070000002CF8D0069B3A4631462068A84708B12D
:100710006468F5E7F8BD70B5064602F0F3FE84198B
:1007200041F1000502F0EEFEA94208BFA042F9D354
:1007300070BD08B501F0F2FE831E5842584108BD55
:1007400010B50446FFF7F5FF20B12046BDE8104084
:1007500001F0F0BD4FF47A706043BDE81040FFF740
:10076000DABF37B5044615468DF8071001F0D6FEFE
:10077000022809D063699DF807201A701A7D520675
:10078000FCD5012003B030BD00232A460DF107013E
:10079000E06902F0B7F80028F4D063691B7D5B06BE
:1007A000EFD500230DF107011A46E06902F0B2F916
:1007B0000028E6D063699DF807201A70E1E7FFFF83
:1007C00010B50446024B036000F0E0FA204610BD6D
:1007D00004F3010010B50446FFF7F2FF20462C2178
:1007E00007F0BDF8204610BD10B5044601F096FE96
:1007F000022807D1E06902F05BFA18B1012001F08C
:1008000099FDF7E7012010BDF8B5064614460F46DE
:1008100009B90020F8BD8369002BFAD001F07EFEF3
:10082000022809D1002322463946B06902F072F944
:10083000003018BF0120F8BD02F064FE4FF47A7258
:10084000002307F0BFFF00250444002339461A4661
:10085000B06902F05FF958B902F054FE4FF47A72B1
:10086000002307F0AFFF8D4208BF8442EDD2D0E7EE
:100870000120F8BD002373B5426901938DF8033060
:100880009368044603F00E03042B21D00C2B1FD0D9
:10089000022B3FD1C06902F014FAE38C984203D9CD
:1008A000E06902F00EFAE0841026002501AA0DF19D
:1008B0000301E06902F0C8F900282ED15DB34FF0C2
:1008C00080521B4B1A60BFF34F8FBFF36F8F22E034
:1008D00001F038FC0025A06263691A7DD2070ED5AD
:1008E0001B7801AA8DF803300DF103010023A069E4
:1008F00002F09CF8019B002B18BF0125ECE7A069D2
:1009000002F0DFF9A38C9842D8D9A06902F0D9F996
:10091000A084D3E7137D02B070BD63699DF8032006
:100920001A70019B002B18BF0125013EC6D0BDE700
:1009300004ED00E038B504460D4600F017FA064B0A
:100940006561236000232046A361E3612362A384E1
:10095000E384A36238BD00BF04F301002DE9F04732
:1009600090F8055104468A4617469946089EDDF8D8
:1009700024801DB100252846BDE8F0870AB9002E65
:10098000F8D001F0CBFD022835D00023202284F8D6
:100990001131D4F80031C4F81471C4F81C6184F822
:1009A00010A1C4F81891C4F820811A6002F0AAFDC1
:1009B0004FF47A72002307F005FF10F57A7641F1C3
:1009C00000070023D4F80C011A46194602F0A2F8D9
:1009D00028B194F81151B5FA85F56D09CBE702F00D
:1009E00091FD4FF47A72002307F0ECFE8F4208BFAE
:1009F0008642E6D2EDE700234FF47A721946D4F826
:100A0000080102F087F80028B4D00023D4F80C01C4
:100A10001A46194602F07EF800232021D4F800215E
:100A200084F810A184F81131C4F81471C4F8189135
:100A3000C4F81C61C4F82081D4F80C0111604FF493
:100A40007A72194602F066F820B194F81151B5FA9D
:100A500085F56D090023D4F808011A46194601F0FE
:100A600051FF88E710B441F0010110BCFFF776BFD9
:100A70007FB500238DF8173001238DF80F200DF17D
:100A80001702009201930DF10F02FFF7EBFF9DF8A3
:100A9000170007B05DF804FB1FB504AC04F8012D86
:100AA000069A0093019201232246FFF7DBFF04B070
:100AB00010BD13B5002401F0FE0101940094FFF76E
:100AC0004DFF02B010BD07B58DF804208DF805303C
:100AD00001AA0223FFF7EDFF03B05DF804FB07B5A1
:100AE0008DE80C00002341F001011A46FFF736FFA4
:100AF00003B05DF804FB002307B502AA02F8013D2C
:100B0000FFF7EDFF03B05DF804FBFFFF38B50025EC
:100B10000446C0F8001180F80551012001F074FF6F
:100B20000322C4F808012946012001F0D1FED4F8BF
:100B300000310C4AC4F80C0193420CD002F5882213
:100B400093420AD0A2F50422934208D10A2384F8E2
:100B50000431204638BD0B23F9E70C23F7E7632364
:100B6000F5E700BF00C0054090F9043170B50B2BCC
:100B700005460C46164635D00C2B36D00A2B37D1FD
:100B80000121072002F058FBB6F57A7F98BF4FF499
:100B90007A714FF06C0294BF71431649D5F8003159
:100BA000B4FBF1F19A612822642049084A43B2FB60
:100BB000F0F21A613C2251430022B1FBF0F159617D
:100BC000DA601A625A629A62402201201A6095F92C
:100BD0000431094A590903F01F0300FA03F342F8EC
:100BE000213070BD01211320CCE701211A20C9E773
:100BF000002070BDA086010000E100E02022D0F8B6
:100C000000319A6110221A6008229A611A68D2068D
:100C1000FCD490F81031DB074CBF0123022380F88D
:100C200024317047002310B580F82431D0F800310A
:100C300004465A68282A44D00DD8102A27D0182AEA
:100C400028D0082A0CD1D0F8181190F81021B1B989
:100C500042F0010215E0402A3ED005D8382A59D08A
:100C60005B6884F811311DE0502A3FD0582AF7D133
:100C7000D0F81C219B681370FFF7C0FF04E002F05E
:100C8000FE029A6008229A6194F8240110BD90F83F
:100C90001021DDE72022D0F820119A61D0F8182128
:100CA00011B90AB92046E7E7002AEDD0D4F81411AB
:100CB000013A11F8010B9860C4F81411C4F8182116
:100CC000E0E7D0F81821002AF0D190F81021D207DF
:100CD000E8D520221A60D5E720229A61D0F8202199
:100CE000012A4FF00402F5D89A61CBE79B68D0F84F
:100CF0001C211370D0F81C3104220133C0F81C31C0
:100D0000D0F82031013B012BC0F82031D0F8003160
:100D1000E0D1E9E790F810215B6812F0010F14BFF1
:100D20000122022280F8113180F82421ACE7FFFF74
:100D300013B50446FFF776FF88B1002302A941F8F6
:100D4000043DD4F80C0101F0B1FE019B3BB14FF022
:100D50008052044B1A60BFF34F8FBFF36F8F02B006
:100D600010BD00BF04ED00E001207047064B10B538
:100D7000036000230446436003810374012001F0F3
:100D800043FEE060204610BD34F30100044B10B573
:100D900004460360406808B108F0FAF8204610BD28
:100DA00034F3010070B5184B0E465C69174B0546CD
:100DB0001A6C1A2022F470021A641A6C04F440644B
:100DC00042F420021A64996E41F4406199661968F0
:100DD00021F470011960196841F4200119600321A0
:100DE00002F044FA02F010FBB4F5406F06D132462F
:100DF000C1082846BDE87040FFF7B6BE01230020B9
:100E000085F8053170BD00BF00C0092000C0024058
:100E100010B504460249FFF779FE204610BD00BF19
:100E200000000A4038B5084C23683BB94FF4947071
:100E300002F062F90546FFF7EBFF25602068BDE888
:100E40003840FFF775BF00BF2CC30720F0B587B04F
:100E50006C460F4D074695E807008DE8070003AE86
:100E600095E8070086E807000C223146204608F086
:100E7000B7F838B903CC386020687960B860384674
:100E800007B0F0BD95E8070084E80700E8E700BF79
:100E9000144002400022184B1A720278C2F3050275
:100EA00083F820204278C2F3050283F82420827858
:100EB000C2F3040283F82820C278C2F3020283F846
:100EC00030200279C2F3040283F82C204279C2F365
:100ED000030283F83820C179827901F00F0142EAD8
:100EE0000122417A9A87027A01F00F0142EA012237
:100EF0009A8601221A727047004002401FB50121F4
:100F0000092002F099F901222F4B01A81A72FFF76C
:100F10009DFFBDF80A3003F62603C3F30B030F2B26
:100F20001ED89DF8053003F03F033B2B18DC9DF8DD
:100F3000043003F03F033B2B12DC9DF8063003F036
:100F40001F03172B0CDCBDF80C30C3F30B03B3F5F8
:100F5000B77F05DA9DF8093003F00F030C2B2FDD66
:100F600001229DF8083001A862F304038DF80830CF
:100F70009DF8093062F3030340F2DA728DF809300C
:100F8000BDF80A3062F30B03ADF80A309DF8073064
:100F90006FF302038DF807309DF806306FF30403FA
:100FA0008DF806309DF805306FF305038DF8053098
:100FB0009DF804306FF305038DF80430FFF76AFFE6
:100FC00005B05DF804FB00BF0040024008B50121F8
:100FD0001D2002F031F90122024B1A631A6BD2076D
:100FE000FCD508BD004000504FF0FF3337B5B1F5D8
:100FF000805F01934AD2274B1C69E50748D4264CF1
:101000002469E40744D4254CE5686D0735D40325ED
:10101000234CA5602561234D1D60002A2FD001AC13
:101020005C6041F00044DC6000249C6041F20604F6
:101030001C61194C3AB3206041F080610022E160EC
:101040006560A2604FF4086222611A6942F00102F1
:101050001A61226942F001022261104A516A41F08C
:1010600003015162D868C0F30B000028FAD1536A1B
:1010700023F00303536203B030BDA568C4E7586092
:1010800041F00844CFE701AA2260D7E70120F2E748
:101090000220F0E7204100500041005000000340D2
:1010A000004000500800034010B50A4C23681BB9EB
:1010B000012001F0A9FC206001F030FA022808D1DB
:1010C000002320684FF0FF32BDE81040194601F0C0
:1010D00021BD10BD30C3072010B501F01FFA022852
:1010E00008D1BDE81040002303481A46194600689D
:1010F00001F008BC10BD00BF30C3072010B5044686
:10110000024B0360FFF742FE204610BD04F30100CE
:1011100010B50446FFF7F2FF20462C2106F01FFC15
:10112000204610BD10B504460349FFF703FC034BEE
:101130002046236010BD00BF008009409CF30100E1
:1011400038B5074C236833B92C2001F0D5FF05468C
:10115000FFF7E8FF25602068BDE83840FFF78ABB4D
:1011600034C30720074A136823F0E06323F0FF032A
:1011700013600123116803FA00F041F08071084305
:101180001060704700400340002307B50D4A0193EB
:1011900052680D48C2F30B12ADF802200DF10201A6
:1011A00001AA006801F042FC019B3BB14FF0805264
:1011B000064B1A60BFF34F8FBFF36F8F03B05DF81C
:1011C00004FB00BF004003403CC3072004ED00E0E7
:1011D00010B502F019F90121C4080C2002F02CF816
:1011E00003210C2002F042F84FF40013104A114979
:1011F00013600223B4FBF3F0884214D8116841EA6B
:1012000003231360012001F0FFFB0B4B0022186049
:101210000221012001F05CFB4FF48002074B1860B3
:10122000074B1A6010BD0233B3F5807FE2D1E9E7C6
:10123000004003403F5DC60038C307203CC3072081
:1012400000E100E0F7B5002407280546ADF80640A8
:101250001DD801F063F90228154E1CD1154F234605
:101260004FF0FF322146386801F054FC2846FFF762
:1012700079FF23464FF0FF320DF10601306801F08F
:1012800049FC234622462146386801F03BFBBDF865
:10129000060003B0F0BD2846FFF764FF00230DF100
:1012A00006011A46306801F035FC0028F6D0EEE75A
:1012B0003CC3072038C3072008B5044B1B68984778
:1012C000034A137A43F00103137208BD40C3072099
:1012D00000000B4010B50446024B0360FFF756FDBB
:1012E000204610BD04F3010010B50446FFF7F2FFDD
:1012F00020462C2106F033FB204610BD10B50446D5
:101300000349FFF717FB034B2046236010BD00BFC6
:1013100000C0004004F4010038B5074C236833B91D
:101320002C2001F0E9FE0546FFF7E8FF2560206864
:10133000BDE83840FFF79EBA44C3072070B50546A4
:101340000E4614460CB12B6803B970BD22681342D7
:1013500008D06368984722682B6823EA02032B6051
:1013600023683360A468EDE7F8B5012484400F4694
:1013700016461D4610D079B10C2007F001FE58B179
:101380004FF40012336880E8900083602B6830606F
:101390001C43024B2C601A60F8BD00BF00E100E066
:1013A0001FB5184C1849636868460093A3680193F9
:1013B000636A0293A36A0393144B1A68FFF7BEFF94
:1013C000134B11491A6801A8FFF7B8FF114B1249D6
:1013D0001A6802A8FFF7B2FF104B0F491A6803A85A
:1013E000FFF7ACFF009B0BB9019B13B14FF0FF332C
:1013F000E360029B0BB9039B13B14FF0FF33E36231
:1014000004B010BD808002408C8002404CC3072095
:1014100048C3072054C30720AC80024050C30720B4
:1014200010B414460029064A0649074B18BF134654
:10143000064A18BF0A46214610BCFFF795BF00BFF9
:101440009480024048C30720908002404CC307208C
:10145000026830B5D36913F0040310D002F13003F1
:1014600001F1100451F8045BA14243F8045BF9D187
:10147000438A0133438221230120536030BD184643
:1014800030BDFFFF2DE9FF41264C450154F8058092
:101490006719D8F80C60D8F808303343D90716D547
:1014A000786801F00EFCFB8908F1200198424FF0AA
:1014B000000388BFF88167191A46786801F0B6FA08
:1014C00058B3BB8A0133BB820423C8F8043040F20E
:1014D00002631E4212D06719B86801F0F2FB3B8A22
:1014E0000022984288BF388267196946B86801F0BF
:1014F000ABFB18B169463846FFF7AAFFB20603D521
:1015000063199B6930469847330703D52C44E36938
:101510003046984704B0BDE8F081BB890133BB81F8
:10152000D2E700BF00C00720084B10B5D3F8C44075
:10153000A20402D50020FFF7A5FF630404D5BDE88F
:1015400010400120FFF79EBF10BD00BF00C00F403C
:101550001FB50446054B0DF1100E0FCB0EE90F0021
:101560000EEB840454F8100C04B010BD18F4010004
:10157000F7B50F460646FFF7EBFF172301241622A7
:1015800002218DF803308DF8073002AB1E448DF830
:1015900002208DF801108DF8004005468DF80510E9
:1015A00016F8080C21468DF806208DF8044001F04D
:1015B00043FE214616F8040C01F058FE0023AB60F0
:1015C0006C602B6701F020FF034BB0FBF3F0474347
:1015D000EF6003B0F0BD00BF40420F0010B50446FD
:1015E000024B0360FFF7D2FB204610BD04F301005D
:1015F00010B50446FFF7F2FF20462C2106F0AFF9A4
:10160000204610BD10B504460349FFF793F9034B7C
:101610002046236010BD00BF00C009407CF40100DB
:1016200038B5074C236833B92C2001F065FD054619
:10163000FFF7E8FF25602068BDE83840FFF71AB9DA
:1016400058C30720014808F00DBF00BF61F8010032
:1016500038B504460D4601F0D7FE074BB0FBF3F05A
:101660000223B0FBF3F2AA4204D9B3F5807F01D084
:101670000233F6E7236138BD40420F007FB500F228
:1016800035260C460122314604F0EAF8054638BBFF
:10169000039002AA03A9304604F043FC40BB029821
:1016A000039B827803FB02F183691248023B5A4391
:1016B0005208B2F5004F38BF01200F4B24BF03463C
:1016C0004FF480604908B1FBF0F1B2FBF0F20091F9
:1016D00001932146094808F051FE012004B070BD75
:1016E000074B2A462146074808F048FE0020F5E748
:1016F000054BF6E79FF801009CF80100A9F80100EE
:10170000A6F80100D7F80100A2F8010070B5104D4D
:10171000104E2C78BFF35B8F14F0010415D12846CE
:1017200006F01FF988B14FF40E7001F0E5FC30238C
:1017300080F835323A2380F8344280F8363280F827
:1017400037423060284606F018F9306870BD00BF97
:1017500080C3072084C3072038B5064C23683BB9F3
:101760004FF4947001F0C8FC0546FFF751FB25606B
:10177000206838BD2CC3072038B5074C23684BB907
:10178000082001F0B9FC0546FFF7E6FF402328607A
:101790002B712560206838BD6CC3072038B5054C17
:1017A000256825B9012001F0A7FC0570206020689C
:1017B00038BD00BF68C3072038B5084C23685BB943
:1017C0000C2001F099FC0546FFF7C6FF90232B7112
:1017D00000232860AB602560206838BD5CC307200B
:1017E00010B5044C23681BB9012001F085FC206072
:1017F000206810BD64C3072010B5044C23681BB9D2
:10180000012001F079FC2060206810BD60C3072032
:101810004023B649F0B58B614FF00073B44A0725F9
:1018200093614FF480338B61B24B02241868ADF59D
:10183000057D20F0F0001860186840F05000186036
:10184000186820F440501860086840F040000860B4
:10185000186820F47C201860186840F4282018606C
:10186000186820F470001860186840F420001860B0
:10187000186820F040401860186840F00040186078
:10188000586820F03C005860586840F028005860C4
:10189000586820F003005860086840F48030086001
:1018A000586820F440505860086820F480000860B0
:1018B000D96821F44031D960116841F0807111601C
:1018C000596821F440215960596841F480215960D8
:1018D0009868894901409960116841F4897141F023
:1018E00001011160996821F470119960996821F0E3
:1018F00070419960116821F446411160D96821F066
:101900003001D960D96841F03001D960D96821F43B
:101910007011D960136843F000731360136823F0EB
:1019200080631360FFF754FC01210A2001F084FC5E
:1019300001210A2001F09AFC7048012105604460F1
:10194000FFF786FEFFF742FB0121152001F074FC32
:101950000121152001F08AFC6948012105604460DD
:10196000FFF776FEFFF7F8FE6421FFF71BFA10B9C8
:10197000644808F077FD01F09BFD02F0F3FF10B919
:10198000614808F06FFD6148FEF754FC6048FEF7BF
:1019900051FC4FF4FA60FEF7D3FEFFF753FE01F05F
:1019A00033FD06F047FD5B4906F050FE06F0C8FB2C
:1019B00002460B46584808F0E1FC01F07DFE052880
:1019C00004AC14D100236360544B1B682360FFF701
:1019D00039FE534B5348D96C1A6D5B6D009408F077
:1019E000CDFCFFF72FFE41F28830FEF7A9FEFFF78E
:1019F0008DFE4D49FFF742FE054668BB4B4808F097
:101A0000BDFC05F09DFBFFF781FE29462A4600F24A
:101A1000352004F0EBFA464B464A00280CBF10462E
:101A2000184608F01FFDFFF771FE3F49FFF726FE3D
:101A300090B9414808F016FD05F02EFB01463F48DD
:101A400008F09CFC05F018FB054605F025FB00FBA3
:101A500005F13B4808F092FC3A4E3B4F3378BFF318
:101A60005B8F13F0010516D1304605F07AFF90B177
:101A70004FF40E7001F040FB012380F83432312323
:101A800080F835323A2380F8375280F836323860A1
:101A9000304605F072FF2D4938682D4DFFF7EEFDF9
:101AA00018211648FFF7D4FDFFF7CCFD2B684BB982
:101AB000082001F021FB0646FFF74EFE3823306078
:101AC00033712E60286805F0D8FB064610B921480E
:101AD00008F0C8FCFFF770FE05F0CAFC05460028B8
:101AE0003CD11D4808F0BEFC2E4637E000C009205E
:101AF00020C0092000C00240F0FCFCFF00000340B1
:101B000000800840A8F40100D9F40100FEF40100AF
:101B100003F501000024744909F501004440024026
:101B20000040024021F5010099F50100A1F50100F6
:101B300095F4010090F40100DEF50100FDF50100CF
:101B40000CF6010078C307207CC3072027F60100AC
:101B500074C307202FF601004AF60100FFF70CFEC0
:101B600005F00EFC054618B96D4808F07BFC2E46C2
:101B70006C4D2B681BB9012001F0BEFA2860286863
:101B800005F0CCFBFFF72CFE05F05EFCFFF706FE30
:101B900005F02FFCFFF730FE05F05BFCFFF7FEFDC4
:101BA000002105F029FC002E40F08180FFF74AFD5E
:101BB000FFF7E2FD2D2105F0CBFBFFF7DDFD2D2129
:101BC00005F0D2FBFFF7EAFDFF2105F015FC10221E
:101BD0000021204607F038FA00230F222146524800
:101BE00005F082FC80B9204606F07BFFC5B228468E
:101BF00002F0B8F84D4A4E4B2946002818BF13464C
:101C0000494A4C4808F0BAFBFFF7EAFD05F01EFC14
:101C10000546002009F0ECFD284408F02BFC4FF4A9
:101C200000720021204607F00FFA204601F080FCE8
:101C30002146414808F0A2FBFFF704FD8022002165
:101C4000204607F001FA204605F002FA2278FF2A22
:101C50003BD02146394808F091FB4FF208031D683C
:101C60004FF20C031C684FF210031E684FF47043D0
:101C70001A684FF20403AD0A1968A40A304808F044
:101C80007DFB2A4621462F4808F078FB31462E4836
:101C900008F074FBFFF7D6FC0120FEF785FC2B480B
:101CA00008F0E0FBFFF7CEFC0DF5057DF0BDFFF77A
:101CB00063FD0546FFF780FD05F004FC06F062FDBC
:101CC000C1B2284605F078FB81E7FFF795FD05F0E6
:101CD000C3FB09281FD11E4808F0C4FB21461D483C
:101CE00008F0D0FC21461C4808F048FB1B4808F0CF
:101CF000B9FB002303A91A48039308F0C3FC9DF81D
:101D00000C30592B03D1204605F080F9A5E7154882
:101D100008F0A8FBA1E7144808F0A4FB1348F7E774
:101D200064F6010070C307207DF601009BF40100FA
:101D3000A1F4010083F60100B7F60100BAF6010034
:101D4000D7F7010003F8010030F801004DF8010059
:101D5000D6F60100F8F60100FDF6010018F70100C3
:101D60005BF701005FF7010077F70100A5F70100BD
:101D700010B5044C23681BB9012001F0BDF92060A7
:101D8000206810BD70C3072010B5044600F0D2F9DA
:101D9000204607F0F5F8044600F060FA0CB900F0B0
:101DA000AFFF204610BD10B5044640B100F0C2F9A7
:101DB000204607F0EDF8BDE8104000F04FBA10BD26
:101DC00008B501F09FFB024B1B68C01A08BD00BF9D
:101DD00088C307204FF0100383F31188BFF36F8F80
:101DE000BFF34F8FFEE7FFFF4FF0807340F8043CD6
:101DF000054B21F0010140F8081C40F80C3C40F86C
:101E0000202C4038704700BFD51D0100FFFFFFFFA9
:101E1000074B19680868B0E8F00F80F30988BFF332
:101E20006F8F4FF0000080F311884EF00D0E704759
:101E300094C307204FF0100383F31188BFF36F8F13
:101E4000BFF34F8F024A136801331360704700BF1E
:101E500090C30720034A1368013B13600BB983F357
:101E60001188704790C30720FFFFFFFFFFFFFFFFB0
:101E7000EFF30980BFF36F8F0D4B1A6820E9F00F65
:101E800010602DE908404FF0100080F3118800F039
:101E900069FA4FF0000080F31188BDE80840196826
:101EA0000868B0E8F00F80F30988BFF36F8F7047C0
:101EB00094C3072008B54FF0100383F31188BFF3D4
:101EC0006F8FBFF34F8F00F043F918B14FF080527E
:101ED000024B1A60002383F3118808BD04ED00E073
:101EE000064A13681968064B19B94FF0FF321A6099
:101EF00070471268D268D2685268F8E798C3072022
:101F0000A8C40720F8B51B4B1B4E1D68044630685B
:101F10000F46043000F0EBFB334640B90120316836
:101F2000164EC96A3268884022EA00023260621C9A
:101F300007D137B1196812480431BDE8F84000F004
:101F4000B3BB2C441A68A542546007D90D4A1068E7
:101F50001968BDE8F840043100F0B2BB0A4A1068C5
:101F60001968043100F0ACFB084B1A68944238BF82
:101F70001C60F8BDDCC4072094C307207CC4072084
:101F8000C8C407209CC3072098C30720A8C4072003
:101F90002DE9F84F4FEA820A804650460D46994691
:101FA0000B9EFFF7F1FE0746002800F09B805820AB
:101FB000FFF7EAFE0446002800F0918052460763CE
:101FC000A521384607F040F8236BAAF1040A9A4489
:101FD0002AF0070A6B1E04F134020735597802F81B
:101FE000011B13F8011F09B1AB42F7D10A9D4FF055
:101FF000000B092D28BF0925271DE56265643846B9
:1020000084F83BB0C4F848B000F04BFBC5F10A05BA
:1020100004F1180000F045FBC4F850B02461A5613C
:102020006462C4F84CB084F854B04A464146504605
:10203000FFF7DAFE206006B13460FFF7FBFE304B9D
:10204000304E1A68DFF8E48001321A603568002DDE
:102050004BD134601B68012B1AD108EB05001435F5
:1020600000F014FBC82DF8D1DFF8C490264D484687
:1020700000F00CFB284600F009FB244800F006FBAA
:10208000234800F003FB234BC3F80090224B1D6054
:102090000125224A22491368086801331360E26A65
:1020A00005FA02F3034314200B6000FB028039465B
:1020B00000F0FAFAFFF7CEFE1A4B1B6863B13368E3
:1020C000DA6AE36A9A4207D24FF08052164B1A60DE
:1020D000BFF34F8FBFF36F8F2846BDE8F88F3846A8
:1020E000FFF761FE4FF0FF35F6E70E4B1B68002B44
:1020F000CED13368DA6AE36A9A4298BF3460C7E7A0
:102100006CC4072094C3072094C40720B0C40720E0
:10211000C8C4072098C307209CC3072078C40720A1
:102120007CC40720C4C4072004ED00E0A0C307203E
:1021300080C40720024A136801331360704700BF50
:1021400074C40720014B1868704700BFDCC4072027
:102150002DE9F84F364B1B68002B47D1354B1C68D7
:1021600001341C605CB9344A344B11681868106043
:10217000334A1960136801331360FFF7B1FE314D24
:102180004FF0000B2B68304F9C423ED3DFF8A88005
:10219000DFF8C490D8F80020126872BB4FF0FF320D
:1021A0002A6032E006F1040A504600F0A0FAB16A53
:1021B00019B106F1180000F09AFA01224FF0140E3E
:1021C000F06AD9F8003002FA00F119431F4BC9F840
:1021D00000100EFB0030514600F066FA3868F16AD4
:1021E000C26A914228BF4FF0010BD3E7184A4FF063
:1021F000000B13680133136011E0D8F80020D26897
:10220000D66871688C42CDD229603A680F4BD16A8A
:1022100014224A439A58022A28BF4FF0010B0D4A54
:102220001268002A18BF4FF0010B5846BDE8F88F1E
:1022300074C40720DCC4072098C307209CC3072070
:10224000ACC40720A8C4072094C30720A0C307205C
:1022500070C40720E0C407207CC407202DE9F843A0
:10226000FFF7E8FD2A4B1A68013A1A601C682CB186
:102270000024FFF7EFFD2046BDE8F883254B1B68DF
:10228000002BF5D0DFF8A490234FDFF8A480D9F815
:102290000030E3B90CB1FFF723FE204D2C6844B1A8
:1022A00001271F4EFFF754FF00B13760013CF9D101
:1022B0002C601B4B1B68002BDAD04FF08052194B5F
:1022C0001A60BFF34F8FBFF36F8F0124D1E7D9F8A6
:1022D0000C300125DC68261D04F1180000F007FA17
:1022E000304600F004FA1420E26A396805FA02F375
:1022F0000B4300FB028031463B6000F0D5F90A4BEE
:10230000E26A1B68DB6A9A4224BF054B1D60BEE788
:1023100074C407206CC407207CC4072070C4072045
:10232000E0C4072004ED00E094C30720B0C40720F8
:10233000A0C3072008B540B94FF08052084B1A607F
:10234000BFF34F8FBFF36F8F08BDFFF7F3FE002180
:10235000FFF7D8FDFFF782FF0028EDD008BD00BFD2
:1023600004ED00E0264B70B51A68264B12B101222D
:102370001A6070BD1A60FFF723FD234A234C1568CD
:10238000A84204D92168CB6C5B1B0344CB6423684F
:1023900010601B6B1A68B2F1A53F0BD15A68B2F1FD
:1023A000A53F07D19A68B2F1A53F03D1DB68B3F12D
:1023B000A53F04D020682168343100F085FC144B1F
:1023C0001B68B3FA83F31420DBB2C3F11F0300FBD5
:1023D00003F210498D186E68083276680A449642F6
:1023E00000FB031308BF72686E6008BF6A605B6819
:1023F000DB68236023685A6B074B5A6470BD00BFCB
:1024000074C40720E0C4072068C4072094C30720D1
:102410007CC40720A0C307200040024010B50C4632
:10242000054B1968183100F04BF92046BDE8104003
:102430000121FFF767BD00BF94C3072038B5C3680B
:10244000DC6804F11805284600F051F9114B1B68AF
:10245000E3B9251D284600F04AF901230E49E26A36
:1024600008689340034314200B6029460B4B00FB84
:10247000023000F019F90A4BE26A1B68DB6A9A42E3
:1024800085BF0120074B0020186038BD294606484B
:10249000EFE700BF74C407207CC40720A0C3072057
:1024A00094C30720E0C40720B0C40720034B1B6877
:1024B0000360034B1B684360704700BFACC4072038
:1024C000DCC4072038B50D460446FFF7B3FC0E4BBD
:1024D0002A681868531C10D00C4B21681B6899425D
:1024E000636801D098420DD2C11A8A420AD91B1AD8
:1024F00013442B602046FFF7D9FF0024FFF7AAFC06
:10250000204638BD0124F9E7DCC40720ACC407200D
:102510000122014B1A607047E0C40720054B1B687D
:1025200033B1054B1B68002B0CBF02200020704705
:1025300001207047C4C4072074C407202DE9F0416E
:102540000446002839D01E4DC36A2A68D26A9342D5
:1025500033D2142782691B4E002AA8BF2A6807FBC2
:102560000363A2BFD26AC2F10A02826142699A423F
:1025700020D100F10408404600F0B9F8124A48B9E9
:10258000E06A4743F3592BB901211368814023EADC
:10259000010313602B681168D86A012383400B4341
:1025A00013601423E062414603FB0060BDE8F04184
:1025B00000F07AB82B68DB6AC362BDE8F08100BF27
:1025C00094C30720A0C307207CC40720F8B50446A5
:1025D00008B90020F8BD836CC16A426C013B91428E
:1025E0008364F6D0002BF4D1051D284600F07FF857
:1025F000104E114A50B91421E76A794373582BB928
:1026000001201368B84023EA00031360636CC3F130
:102610000A01E362A1610124116804FA03F008438E
:1026200010601420294600FB036000F03DF82046AE
:10263000F8BD00BFA0C307207CC40720044B1A6864
:102640001AB119688A6C01328A641868704700BF31
:1026500094C3072010B5FFF7B3FB064B064A196871
:1026600029B119681468CB6C1B1B0344CB64106040
:1026700010BD00BF94C3072068C4072008B5FFF74A
:102680009FFB014B186008BD68C4072000F10803D8
:1026900043604FF0FF32C360036100238260036038
:1026A000704700230361704743689A684B608A60F3
:1026B0009A6851609960036808610133036070474C
:1026C0000A6830B5531C0AD103695A684A609160A0
:1026D0008B605960036808610133036030BD00F10D
:1026E00008035C682568AA42EFD32346F9E74168EE
:1026F000826803698A60826851605968884208BFAD
:102700005A6000220261186801381860704770B57D
:102710001546026C0446866B42B905689DB940684F
:10272000FFF754FF65600136A66370BD6DB9806820
:1027300006F065FCA368226C13446268A3609342B0
:1027400001D32368A3600020EDE7C06806F057FCC2
:10275000236CE2685B4221681A448A42E2603EBF11
:1027600062689B18E360022DEDD10EB1013EEAE7ED
:102770003046D8E773B5856C0A46EB6BA96B0190C0
:1027800099421AD201A9284695F84540FFF7BFFFA4
:1027900064B2631C06460BD16B6A33B105F12400A9
:1027A000FFF74CFE002818BF0126304602B070BD6E
:1027B000013464B285F84540F7E70026F5E70346A3
:1027C0001A6C10B4084662B1D9685C681144A14221
:1027D000D96028BF196810BC28BFD960D96806F035
:1027E0000EBC10BC704770B50446FFF723FB94F88D
:1027F000455004F124066DB2002D14DCFF2384F84B
:102800004530FFF727FBFFF715FB94F8445004F120
:1028100010066DB2002D19DCFF2384F84430BDE8AA
:102820007040FFF717BBA36C4BB100212046FFF7A8
:10283000A1FF08B1FFF76CFE013D6DB2DCE7636AF2
:10284000002BDBD03046FFF7F9FDF2E72369002BC0
:10285000E2D03046FFF7F2FD08B1FFF759FE013D27
:102860006DB2D7E738B504460D46FFF7E3FA206CA2
:10287000E36B22684343D1181B1A13446160E36081
:102880000021FF23A163A26084F8443084F845301E
:1028900095B9236963B104F11000FFF7CFFD38B19A
:1028A0004FF08052094B1A60BFF34F8FBFF36F8F09
:1028B000FFF7D0FA012038BD04F11000FFF7E6FE63
:1028C00004F12400FFF7E2FEF2E700BF04ED00E0B0
:1028D00070B5064648434C300D46FFF755FA04469E
:1028E00048B155B92060E663256401212046FFF711
:1028F000B9FF0023A364204670BD00F14C030360C0
:10290000F1E7FFFF2DE9FF470027044689461E46F1
:10291000B846DFF8F0A00192FFF78CFAA26BE36BE8
:102920009A4201D3022E21D1324649462046FFF772
:10293000EEFEA36C93B131462046FFF71BFF38B182
:102940004FF080522F4B1A60BFF34F8FBFF36F8F42
:10295000FFF780FA012004B0BDE8F087636A002B1E
:10296000EDD004F12400FFF769FDE8E7019D1DB9F2
:10297000FFF770FA0020EEE717B902A8FFF796FDFF
:10298000FFF768FAFFF7D6FBFFF754FA94F84430E4
:10299000FF2B08BF84F8448094F84530FF2B08BF14
:1029A00084F84580FFF756FA01A902A8FFF78AFDCF
:1029B00010BBFFF73FFAA76BE56BFFF74BFAAF428F
:1029C00014D1019904F11000FFF728FD2046FFF70C
:1029D0000AFFFFF743FC38B94FF08053CAF80030C4
:1029E000BFF34F8FBFF36F8F012795E72046FFF7A7
:1029F000FAFEFFF733FCF7E72046FFF7F4FEFFF798
:102A00002DFCB7E704ED00E010B5024600210120DF
:102A1000FFF75EFF044638B1002343600360C360E4
:102A20001A461946FFF76EFF204610BD2DE9F0410A
:102A3000044690461F46EFF311864FF0100383F3D0
:102A40001188BFF36F8FBFF34F8F826BC36B9A42B6
:102A500001D3022F28D194F845503A466DB2204652
:102A6000FFF755FE6B1C1AD1A36C83B13946204683
:102A7000FFF780FE08B9012005E0B8F1000FFAD099
:102A80000120C8F8000086F31188BDE8F081636A70
:102A9000002BF0D004F12400FFF7D0FCEAE7013569
:102AA0006DB284F84550E6E70020ECE738B50D46F6
:102AB000EFF311844FF0100282F31188BFF36F8F90
:102AC000BFF34F8F816BC26B914221D290F84520AA
:102AD000013152B28163511C15D1826C62B1002167
:102AE000FFF748FE08B9012003E0002DFBD00120CC
:102AF000286084F3118838BD426A002AF3D024305C
:102B0000FFF79CFCEEE7013252B280F84520EAE77D
:102B10000020EEE72DE9FF474FF0000A04460F467C
:102B200098465646DFF81C910192FFF783F9A56B92
:102B300055B339462046E668FFF741FEB8F1000F6D
:102B40001BD12368013DA56313B9FFF777FD6060D2
:102B5000236963B104F11000FFF770FC38B14FF046
:102B60008052384B1A60BFF34F8FBFF36F8FFFF760
:102B700071F9012004B0BDE8F087636AE660002BBC
:102B8000F5D004F12400E7E7019D1DB9FFF762F9D4
:102B90002846EFE7BAF1000F02D102A8FFF786FC42
:102BA000FFF758F9FFF7C6FAFFF744F994F84430F5
:102BB000FF2B08BF84F8446094F84530FF2B08BF12
:102BC00084F84560FFF746F901A902A8FFF77AFCEF
:102BD00050BBFFF72FF9A56BFFF73CF9F5B9236858
:102BE00033B9FFF727F96068FFF7A8FCFFF732F960
:102BF000019904F12400FFF711FC2046FFF7F3FDD3
:102C0000FFF72CFB38B94FF08053C9F80030BFF301
:102C10004F8FBFF36F8F4FF0010A86E72046FFF713
:102C2000E2FDFFF71BFBF6E72046FFF7DCFDFFF7B1
:102C300015FBFFF7FFF8A56BFFF70CF9002DEAD1A4
:102C4000A6E700BF04ED00E02DE9F04107469046FD
:102C5000EFF311864FF0100383F31188BFF36F8FEA
:102C6000BFF34F8F846B0CB390F84450013C6DB2AE
:102C7000FFF7A5FD6B1CBC6313D13B690BB90120A9
:102C80000BE007F11000FFF7D9FB0028F7D0B8F1EF
:102C9000000FF4D00120C8F8000086F31188BDE8C9
:102CA000F08101356DB287F84450E8E72046F4E73B
:102CB00010B50446FFF7BEF8A46BFFF7CBF820462B
:102CC00010BD806B7047FFFF10B50C460948FDF73B
:102CD000E7FA2046FDF7E4FA0748FDF7E1FA07486E
:102CE000FDF719FD4FF08043AA221A7200221A70D4
:102CF00010BD00BF40F9010069F90100C0C62D00F8
:102D000008B50648FDF7CCFA0548FDF704FD4FF07D
:102D10008043AA221A7200221A7008BD0AF9010023
:102D2000C0C62D00033808B50A2822D8DFE800F015
:102D30002106060D19151D191121210005F0D6FED9
:102D4000022303604FF0FF3008BD05F0CFFE1623CD
:102D5000F7E705F0CBFE1323F3E705F0C7FE1123D9
:102D6000EFE705F0C3FE0D23EBE705F0BFFE0923F7
:102D7000E7E705F0BBFE0523E3E7FFFF431C70B563
:102D80000E4906D00E4B1B68984202D10A681046C5
:102D900070BD00231C460B4D0B60062B1A4606D057
:102DA000531C05EB031656F8106CB04204D104B165
:102DB0000A60034B1860EAE70124EEE750C50720DC
:102DC00040C00720F0C40720084B10B5044618681F
:102DD00018B1836B0BB905F093FF24B1012C02D01D
:102DE000022C18BF203C204610BD00BFE0C00720C9
:102DF000014B1860704700BFE8C40720014B186002
:102E0000704700BFE4C4072008B5024807F02AFB5A
:102E1000FEE700BFAFF9010008B5024807F022FB4A
:102E2000FEE700BF95F901000020704701207047C0
:102E300070B50A4B1D7885B90126094C60222946D8
:102E400020461E7006F000F94FF0FF332363236421
:102E50002365022325602661236270BDECC4072030
:102E6000F0C407202DE9F74389461446FFF7ACFF6D
:102E70000546FFF783FF062806D105F037FE092334
:102E800003604FF0FF3016E01B4E0701F3199B68FB
:102E9000DB07F2D4002D11D001DB052DF1DDF31994
:102EA000D8680028EDD001AB2246494602F0ADFDBE
:102EB000F8B1FFF737FF03B0BDE8F0830F4B1A6896
:102EC000984632B14D46A5EB09039C420ADC24EA40
:102ED000E475601B0028D4DB3E447368201A034469
:102EE0007360E8E7D8F800300020984705F8010B38
:102EF000E9E70198201AEDE7F0C40720E4C40720B1
:102F0000F8B50E461746FFF75FFFFFF737FF0628B5
:102F100004D0124C05016219D06830B905F0E6FD05
:102F2000092303604FF0FF30F8BD3FB9314602F08E
:102F300051FF70B1BDE8F840FFF7F4BE012F02D198
:102F400081683144F3E7022F01D1C168F9E7092014
:102F5000F0E76319DA6890685860F8BDF0C407209C
:102F60002DE9F3410F461446FFF72EFF0646FFF703
:102F700005FF0628054604D105F0B8FD09230360C6
:102F800006E0052E26D80120B04010F0390F02D0FF
:102F90004FF0FF302CE010F0060F1BD0174E3068BA
:102FA00030B1B846A8EB07039C420EDC24EAE4707B
:102FB000201A431CECD0A042EAD0114B201A03EB9C
:102FC00005135A6802445A6012E0336818F8010B7E
:102FD0009847E7E70A4B03EB0513D8680028CBD0E6
:102FE00001AB2246394602F0C8FD20B1FFF79AFE38
:102FF00002B0BDE8F0810198DAE700BFE8C407201D
:10300000F0C4072038B5FFF7DFFEFFF7B7FE06284C
:1030100006D105F06BFD092303604FF0FF3038BD8A
:103020004FF0FF320B4B00011C181A50E06808B932
:10303000002038BD02F0BCFE0546E06805F0A8FFA0
:103040000023E360002DF3D02846BDE83840FFF7A9
:1030500069BE00BFF0C4072008B505F047FD58233E
:1030600003604FF0FF3008BD074B1B689A6882422F
:1030700007D05A68824204D0DB681B1A5842584174
:1030800070470120704700BFE0C00720124B30B5E9
:103090001A68014612B94FF080521A6018680F4A38
:1030A00044180F4D2244AA4297BF0E4A1C6088184C
:1030B00018601C6898BF10460B4A944282BF0132C8
:1030C0001A60002039B1094A136801331360084BB4
:1030D0001860084B196030BD5CC50720FF7FFFEF0B
:1030E000FE3F0710B4C70720FF3F082054C5072044
:1030F00058C5072060C5072005F042BF05F048BF4E
:1031000030B504468BB0684606F002FA214B224DDA
:103110002360089B214AA360079B636053B913682F
:103120001F498B428ABF03F1604303F17043A3F54B
:10313000E823636000236168E360B1F5803F82BFEC
:1031400001F17041A1F5E82161601168144A9142D2
:1031500013D8C5F10053521A03F504231A44E26050
:103160002046104BE1611B68A3610F4B1B68636134
:103170000E4B1B6823610BB030BD0D4B9942EFD84D
:10318000C1F1804303F580135B1B002BC8BFE360D4
:10319000E6E700BFB4070000B4C707205CC50720FE
:1031A0000080001058C5072060C5072054C50720BF
:1031B000FF3F0820FEF73EBEFEF74CBE30B504468A
:1031C0008DB0A8B300256846FDF740FE9DF800309D
:1031D00003A803F03F0303939DF801300B9503F020
:1031E0003F0304939DF8023003F01F0305939DF8FD
:1031F000043003F01F0306939DF8053003F00F031E
:10320000013B0793BDF80630C3F30B03A3F26C73C5
:1032100008939DF8033003F007030993BDF80830C5
:10322000C3F30B03013B0A9305F0F6FF84E821008A
:1032300000200DB030BDFFFF38B50D460446FEF747
:10324000F9FD094A01234DB1D2F8C400A34003435C
:10325000C2F8C430BDE83840FEF7FCBDD2F8C41057
:10326000A34021EA0303F3E700C00F402DE9F0413A
:103270004FEA40080E46FEF7DDFD424603200021DE
:1032800004F0EEFD0A4F4246D7E9004524EA000467
:1032900025EA010506F00300002104F0E1FD2043CA
:1032A0002943C7E90001BDE8F041FEF7D3BD00BFE7
:1032B000A8C10F4080F30988704780F308887047E1
:1032C00080F311887047FFFFAA22034BC3F88C20BC
:1032D0005522C3F88C20704700C00F402DE9F04FF5
:1032E00000240C6014601C6040F2FF14DFF860A042
:1032F0004FF4FA55002604FB055B06F1010CBBFBFD
:10330000FCF8124FA8F58625A5F50E75BD421AD911
:103310006646202EF1D1013C052CE9D10020BDE804
:10332000F08FB9F5807F4D46F2D005F10109B8FB69
:10333000F9FED645F5D886450C6016601D60F0D1C3
:103340000120BDE8F08F0325EFE700BF383204000D
:10335000A086010030B500242A4985B0D1F880301C
:1033600004AD23F0020345F8044D01940294C1F822
:103370008030FFF7A9FFD1F8803023F00103C1F8B6
:103380008030FFF7A1FFC1F80C41C1F88440FFF77E
:103390009BFF2B46C1F8044102AA01A94BF68030DD
:1033A000FFF79CFF30B92B4602AA01A945F6C05091
:1033B000FFF794FF019B134963F30F04029B63F330
:1033C00017440023C1F80C31C1F88440FFF77CFF9B
:1033D0000123C1F88030FFF777FFD1F888305B0117
:1033E000FBD5039BC1F804310323C1F88030FFF7FC
:1033F0006BFF044AD2F8883013F0407FFAD005B052
:1034000030BD00BF00C00F40244BD3F88820C2F36A
:103410000162032AD3F80C2102F003022DD1012A04
:1034200016D0022A1ED0D3F888101D48D3F8882061
:10343000D3F80431C1F30E0101FB0000C2F30742CF
:103440000132B0FBF2F0DBB20133B0FBF3F07047B6
:10345000D3F888101348D3F88820C1F30E01D3F8AD
:103460000431E9E7D3F88800D3F88820C0F30E00D0
:103470000130D3F804310004E0E7D3F80401012A55
:10348000C0B200F1010303D0022A03D00648DCE7F2
:103490000648DAE74FF40040D7E700BF00C00F400E
:1034A00000127A0000366E0100093D00001BB700D3
:1034B000012110B50F4B104C08462360FEF758F859
:1034C0004FF0FF3223689A614FF47A72DA6100227A
:1034D0001A620A4A5A6240F209225A615A6942F053
:1034E00040025A611822064B83F8022304221A6014
:1034F00010BD00BF0080004068C5072060E31600D3
:1035000000E100E0084B10B51B68084C9A68218860
:10351000986889B28242F9D80B46002242EA00023A
:103520001046194610BD00BF68C5072064C50720B6
:1035300010B504468EB006A8FFF7E2FD0A9B069A76
:1035400005930B9B074904930C9B204603930D9B0B
:103550000293099B0193089B0093079B07F0A0F936
:103560000EB010BDEAF9010038B52B4C2368254692
:103570001A6812F0100F0ED010221A60FEF7F8FB36
:103580002368D96A03F08AFE2268936803F51C5306
:103590001033136238BD540707D504221A60FEF7B2
:1035A000E7FBBDE8384003F087BED00707D501220E
:1035B0001A601A4A138801339BB2138038BD9107F1
:1035C00015D502221A60FEF7A9FF022809D001F0E2
:1035D000EFF92A689368D1690B4403F57A73D361D4
:1035E00038BD2A68536923F008035361F1E71207D5
:1035F0000ED50822AA211A604FF08042117255217F
:1036000011729A6802F5B71202F558725A6238BD03
:10361000034806F027FFFEE768C5072064C50720BA
:10362000C9F9010008B5FFF715F8094B094A1978DF
:10363000094B1039C9B253F82130934203D10748DE
:10364000FCF73DFEFEE79847BDE80840FFF716B8D7
:1036500004ED00E04901010044C00720AFFA010079
:10366000036888B000934368114A0193836802930A
:10367000C3680393036904934369059383690693BD
:10368000C36907930B4B9A64069ADA64059A013A68
:103690001A65079A5A654FF08043AA221A720022CF
:1036A0001A70009B019B029B039B049B08B0704710
:1036B000EFBEADDE00400240014B1878704700BFFE
:1036C00078C5072030B585B0FDF718FC6846FDF7D2
:1036D000BDFB774C009B2360019B6360029BA36052
:1036E000FFF738FEFFF790FE724BB0FBF3F03C287B
:1036F000714B00F29A80292880F0A180142800F2F2
:103700009B803A221A60082398226C4900200B768D
:103710004B768B7681F82030694B83F8052383F84C
:10372000062383F8072383F80823902283F80A23CB
:1037300083F80B2383F80C23702283F80E2383F87D
:103740000F23582283F8122383F8132383F81423BA
:1037500083F81523782283F81923A02283F8002305
:1037600083F8012383F8022383F8032383F80423D7
:1037700083F8092383F80D2383F8102383F811239A
:1037800083F8162383F8172383F8182383F81A2362
:1037900083F81B2383F81C2383F81E2383F81F233D
:1037A00083F8202383F81D2383F8212383F8222321
:1037B000CB6823F4E0631B041B0C43F0BF6343F4AA
:1037C0000033CB60FFF77CFD61B662B64FF4164064
:1037D00000F08CF83B48FFF70BFB3B48FFF70EFB74
:1037E00000233A4C194620680222806806F062FFE6
:1037F00000232068304C19460222406806F05AFF28
:10380000FFF716FBD4F88031314D13F0010F1FD0B4
:10381000304800F0B3F801232B70D4F8803143F026
:103820000103C4F8803105B030BD50280AD964289E
:103830000BD945F23A0265E741F23A0262E742F2F9
:103840003A025FE743F23A025CE744F23A0259E790
:10385000D4F880319B0709D51F4800F08FF8022368
:103860002B70D4F8803143F00203DAE7D4F88031CA
:1038700013F0040319D0194B9A6C194B9A4208D1D2
:10388000052318482B7000F079F80022134B9A6436
:10389000C9E7042314482B7000F070F8D4F8803185
:1038A00043F00403C4F88031EFE72B70BBE700BF9F
:1038B0006CC5072040420F0000C00F4000ED00E043
:1038C00000E100E0653901004D390100E0C007204A
:1038D00078C507205FFB0100A2FB01000040024009
:1038E000EFBEADDE7CFB010099FB010010B5044684
:1038F000FFF78AFD2401B0FBF4F004F0FFFB002287
:10390000104B04F0BFFA04F06FFC012184B20320D5
:10391000FFF792FC01210320FFF7A8FC0A4B1A686D
:1039200022F0F0021A601A6842F050021A608022F7
:10393000A3F500331A73220A1A710322E4B21C7031
:103940001A7310BD0000E03F00C00240034A136834
:10395000DB07FCD5024B1878704700BF14C000404D
:1039600000C00040034B044A187013685B06FCD586
:103970000120704700C0004014C0004008B5411E3F
:1039800011F8010F20B90A20BDE80840FFF7EABF8F
:10399000FFF7E8FFF4E7242310B54FF6FF7403FBAD
:1039A0000101884200D110BD43782BB1038C134430
:1039B000A34228BF234603842430F2E7002337B50F
:1039C00002A840F8043D0C4B04215B68984705466B
:1039D0000A4B019A1C680421141B1A6008482246ED
:1039E000FFF7D9FF224602210648FFF7D4FF281C23
:1039F00018BF012003B030BD7CC50720ACC607202E
:103A000092C5072046C6072008B50B4B19780378E6
:103A10008B420A4B0BBF1A889A880132013214BFBD
:103A20009A801A80064B8170DB682021984700300D
:103A300018BF012008BD00BFD0C0072022C6072044
:103A40007CC507200A4B02781B789A42094B0BBFB2
:103A5000DA881A89013201320CBFDA801A810379BF
:103A6000C3F3C202073262F3C5030371FFF7CCBF91
:103A7000D0C0072022C60720002210B5064B13F83D
:103A800022409100844201D1581810BD0132042A0D
:103A9000F5D1002010BD00BF9BC6072070B1C378D0
:103AA0000133DBB2FF2BC37008D100230448C118D7
:103AB000CA7804335208102BCA70F8D1704700BF7F
:103AC0009BC607202422034602FB0101024630B5B3
:103AD00091420FD1044600259A4211D01979C1F3C1
:103AE000C200198C41EA0041A94284BF1C460D4620
:103AF0002433F1E71446243212F8235C002DE7D179
:103B0000204630BD38B50446C90001F10805FFF76D
:103B100055FF1C4B22781B789A4224D102211A4867
:103B2000FFF7D0FF0023024680F8203080F82130D4
:103B3000234690F8231080F8225021F07F01C5F32E
:103B400006250D4380F8235004F1200153F8044B5F
:103B50008B4242F8044BF9D10C4A0379127862F394
:103B6000C503037138BD04210948FFF7ABFFE378B3
:103B7000002BD7D190F82330042543F0800380F840
:103B80002330CFE7D0C0072046C60720D8C0072083
:103B900092C5072008B5FFF76FFF0346D8B9FFF7B6
:103BA0006BFF0346B8B90D4AD378D179D07A8B42EE
:103BB00096BF1946131D1346814294BF0846084B11
:103BC000D17B084A814238BF1346002206491A6059
:103BD000CA7A0132CA72184608BD00BF9BC60720C8
:103BE000A3C60720A7C6072022C607202DE9F04755
:103BF0004FF0240805460C46002708FB0218DFF8A2
:103C00005C91DFF85CA1A04501D1BDE8F08794F993
:103C10002330002B29DACDB12B786278934209D179
:103C200068782178884205D124220021204605F0B9
:103C30000BFA69E0E97849B16978914206D12278B6
:103C40009A4203D1AA79A3799A42EDD094F823201D
:103C500094F82230218C02F07F0243EA0223994239
:103C600052DB2046FFF7D0FEDEE76378002B4BD017
:103C7000002D32D02A7902F0C002C02A2BD122783E
:103C800069788A4202D128789842CDD0E678A8781F
:103C9000864208D1994206D129788A4203D1A17976
:103CA000AA799142C0D0A978E278914215D16A7878
:103CB0009A4212D121782A7891420ED1A179AA791B
:103CC00091420AD1237984F8207067F3C50384F800
:103CD0002170237118E0002AE5D194F8231094F89C
:103CE0002220208C01F07F0142EA012290420BDB6E
:103CF000227984F82070C2F3C201CEB284F8217018
:103D000026B12046FFF79EFE24347CE702F0C00275
:103D1000C02A20D0207899F8002090421BD1E27868
:103D2000934218D0BAB103226379E17062F30713AA
:103D300063712046FFF786FE23799AF8002062F32C
:103D4000C50323716078FFF797FE00B10760002E6E
:103D50007FF46AAFD8E70126F4E700BFD0C00720A0
:103D6000D8C00720431EDBB2FD2B9DBF024B18704D
:103D700001200020704700BFD0C00720014B1878F9
:103D8000704700BFD0C007202DE9F7430446914695
:103D90001E469DF828500F46002965D0344B93F8F5
:103DA0000080414560D00F2E5ED800285ED02022D2
:103DB000002105F049F9FF2F08BF4FF00009032249
:103DC0002379677069F3871362F30203294A84F841
:103DD0000080127884F8028062F3C503264A2371BA
:103DE00013780133DBB21370A3710BAB0193C5B928
:103DF00001250123DFF88480384688F80030FFF77A
:103E00003BFE0746FFF74AFE002388F8003063793F
:103E10001FBB66F307136371E770284603B0BDE864
:103E2000F08304F10809019AE0791346526853F8C7
:103E3000081B00EB02085FFA88F8013DB8F1180F83
:103E40000193EDB207D8484405F0D9F884F807800B
:103E5000002DE8D1CCE70025CBE7BA7862F3071351
:103E600063717B78E370D8E70025D6E70546D4E791
:103E7000D0C00720D8C00720ABC6072091C50720B7
:103E8000012270B5134E0446327020B9002500237C
:103E90002846337070BDFFF7B7FD05460028F5D002
:103EA000237903F0C003402B10D0A3F180014A42D4
:103EB0004A41C02B0BD1E3784BB16178994206D0CF
:103EC000617920460909FFF71DFEE0E70246002A56
:103ED000F6D1DCE791C5072082B02DE9F043914689
:103EE000421ED2B28DB0FD2A05460E4615939DF8AE
:103EF000688005D900200DB0BDE8F04302B07047DE
:103F0000002BF7D0179F002FF4D0199B002BF1D076
:103F1000189B002BEED0169B002BEBD000244822E0
:103F20000021234805F090F890220021214805F057
:103F30008BF810220021204805F086F81F4B1C60EA
:103F40005C609C601E4B1C605C609C601D4B1D7027
:103F50001D4B1E4D1E7015AE0FCE0FC533681822B7
:103F600021461B482B6005F06FF849461722184878
:103F700006F055FD21462046B8470028BAD0B8F1D2
:103F8000000F02D1FFF71AFDB5E706230293114B8C
:103F9000224601930123FF21009304A8FFF7F4FEBA
:103FA0000028A7D004A8FFF76BFF0028A2D0E9E7FC
:103FB00046C6072092C507209BC607208EC607204D
:103FC00022C60720D0C007209AC607207CC507203C
:103FD0002EC60720BCFB010030B5182B8DB007D8CA
:103FE0001D1CB2FA82F418BF01256409AC4201D14C
:103FF00000200EE00293019200950A469DF84030A1
:10400000014604A8FFF7C0FE0028F1D004A8FFF77E
:1040100037FF0DB030BD13B5537914781B090093E9
:1040200002460B4620460321FFF7D6FF02B010BD23
:1040300000231846044A12F8231009B10130C0B217
:104040000133042BF7D170479BC607202DE9F047B9
:1040500088B020220021684604F0F6FFA34B1B78AD
:1040600003F0FF042BBBA24F20213B696846984711
:1040700008B9002411E09F4D6B8801336B80FFF776
:10408000D7FF9DF80420A87202F00703032B13D07A
:10409000994A137843F001031370FFF78FFC042251
:1040A00096492046FFF7A2FD022295492046FFF7D8
:1040B0009DFD08B0BDE8F087924B9DF802E01E78A8
:1040C000B64504D18C4A137843F00203E4E78E4DE1
:1040D0002146A846C2F3C2029DF800009DF806C022
:1040E0005FFA82F901EB410313F805A0824523D161
:1040F0002B4493F801A0E2451ED19D789A70B5EB50
:10410000090518BF01254FF001099DF80200FFF7CE
:1041100041FD9DF802200270427000228270FFF77C
:10412000BDFCB9F1000F01D0002DA2D09DF80030E8
:10413000B34233D16C46B0E701310429D2D173497F
:104140000B689A70724A1870934283F801C006D1C6
:10415000C1F80080864505D10025A946D5E703337F
:104160000B60F7E78642F7D0FFF714FD0546FFF72F
:1041700095FC2B7833B19DF80530AA7803F00F0336
:104180009342E9DC9DF800302B709DF802306B7093
:104190009DF80530C3F30303AB70DDE79DF80180A4
:1041A000B8F1FF0F1BD13B6820216846984720B922
:1041B000514A137843F0040313709DF8053003F05F
:1041C0000F02511C61F303038DF80530C3F3031391
:1041D0009A42BFF64EAF6846FFF716FC49E74645E0
:1041E0002ED1B9F1000F0CD19DF807304BB13B68CF
:1041F00020216846984720B93F4A137843F00403CA
:1042000013709DF8043003F0C003402B12D19DF8C9
:1042100007306A4623B918213E48FFF7FCFE89E7BC
:104220000C213448FFF7F7FE002883D100216A46AD
:104230000846F2E79DF80330002B7FF47BAFF5E7EB
:10424000354B1F78002F3FF414AF9DF8055005F053
:104250000F094FEA151AD145BFF60BAF4046FFF7DD
:104260000BFC9DF8033009F1010969F303059E4237
:104270008DF8055024D19DF8043003F0C003402B85
:1042800003D0A3F180025742574150B3C02B44786A
:1042900020D1A04512D0003418BF01243C4304F0C3
:1042A0000104D0B143788DF8033085786846FFF774
:1042B000ABFB002C3FF43EAF294607E00024EDE7BE
:1042C000002B7FF437AF0028ECD151466846FFF74A
:1042D00019FC2FE73C46E5E73C4600258DF80350E6
:1042E000E4E7C02BF8D10446D8E700BF91C507200A
:1042F0007CC5072022C6072090C5072092C507204D
:1043000046C60720D0C007208EC60720D4C007208D
:1043100097C607202EC607209AC6072000231846F6
:10432000094AD118497809B10130C0B22433902B21
:10433000F7D1064B5A780AB10130C0B293F8253054
:104340000BB10130C0B2704792C5072046C60720A6
:1043500030B54FF48035364CE561364CA0602046D0
:10436000C468E406FCD48068C0B263B90B46314C23
:104370005D1A954209DA13F8015BA560E568ED0660
:10438000FCD4A568F4E72B4B22B94FF48032284BBC
:104390009A6130BD072A0C7829DD9C604C78083A78
:1043A0009C608C789C60CC789C600C799C604C798B
:1043B0009C608C799C60CD7901F108049D609D69B9
:1043C0006D07FCD59D680D709D684D709D688D7062
:1043D0009D68CD70DD68ED06FCD49D680D719D680B
:1043E0004D719D688D719D68CD712146CCE7032A82
:1043F00014DD9C604C78043A9C608C789C60CD788D
:104400000C1D9D60DD68ED06FCD49D680D709D68F7
:104410004D709D688D709D68CD70E6E74D1C9C6069
:10442000013ADC68E406FCD49C680C702946ABE7D2
:1044300000C0092000800840002307B502A901F848
:10444000013D012300F01F001A46FFF781FF9DF890
:10445000070003B05DF804FB13B502AC04F8011DBE
:1044600000F01F0000230122214640F02000FFF74A
:104470006FFF02B010BD08B51720FFF7DDFFC0F3D6
:10448000001008BD70210720FFF7E6BF0A46002391
:104490000146A020FFF75CBF08B50020FFF7CCFF66
:1044A000BDE8084000F0FE010020FFF7D5BFFFFF88
:1044B0004FF08072014BDA61704700BF20C00920C5
:1044C00008B50020FFF7B8FF40F00101C9B2002095
:1044D000FFF7C2FF4FF08072014B9A6108BD00BF29
:1044E00020C0092020210720FFF7B6BF0023E120CC
:1044F0001A461946FFF72CBF37B504460D46FFF79D
:10450000F5FF20462946FFF7C1FF4FF080720C4CA3
:10451000A2610022ADF80620BDF8063001339BB23F
:10452000ADF8063033B94FF08073E361FFF7DEFF7B
:1045300003B030BDFFF79FFF0028EDD0F3E700BFC9
:1045400020C0092008B51720FFF776FFC04300F010
:10455000010008BD40210720FFF77EBF08B50A46CD
:10456000012301466120FFF7F3FEC0F3420008BDBE
:104570000023E2201A461946FFF7EABE70B5064648
:1045800000200D461446FFF757FF66B100F0BF004C
:104590006DB100F0DF016CB101F0EF010020BDE86A
:1045A0007040FFF759BF40F04000C0B2F0E740F064
:1045B0002001F0E741F01001F0E710B504460020BB
:1045C000FFF73AFF34B900F0F7010020BDE81040D2
:1045D000FFF742BF012C04D100F0FB0141F00801BC
:1045E000F3E7022C14BF40F0080140F00C01C9B2FF
:1045F000EBE708B50020FFF71FFFBDE8084040F0DB
:104600000201C9B20020FFF727BF08B50020FFF75D
:1046100013FFBDE8084000F0FD010020FFF71CBFBC
:1046200040F6DD1398420BD840F66213B0F5166FD2
:1046300038BF1846A0F51661C9B20520FFF70CBFB8
:104640001846F7E710B504460620FFF7F5FEFA2CEA
:1046500000F0D70106D141F020010620BDE810404E
:10466000FFF7FABEB4F5FA6F08BF41F00801F4E7AE
:1046700010B504460620FFF7DFFE032C28BF0324F5
:1046800020F0060141EA4401C9B20620BDE810400D
:10469000FFF7E2BEB0F57A6F28BF4FF47A60FA28D0
:1046A00038BFFA20FA23B0FBF3F30F2928BF0F21FC
:1046B000013BDBB241EA0311C9B20420FFF7CCBED3
:1046C0001130C0B2162804D8202928BF2021FFF7B6
:1046D000C3BE7047032806D0042814BF032102215B
:1046E0000320FFF7B9BE0121FAE70A46002301467D
:1046F0003020FFF72DBE0A46002301462A20FFF78F
:1047000027BEFFFF73B504460E461546FFF730FF80
:10471000FFF7ECFE4FF080722A4BDA61FFF775FF6E
:10472000002201201146FFF729FFFFF7ABFE022010
:10473000FFF743FF3046FFF773FF2846FFF782FF7E
:104740000320FFF795FF03210220FFF785FE0021DC
:104750000120FFF781FE03214FF4FA70FFF79AFF63
:1047600021460020FFF7ACFF00211220FFF774FE66
:1047700000211320FFF770FE00211420FFF76CFECC
:1047800000211520FFF768FE00211620FFF764FEC8
:104790000D4B18681B79009005208DF80430FFF749
:1047A00099FF68460521FFF7A0FF05216846FFF73E
:1047B000A2FFFFF71EFF4FF4FA60FBF7ACFF02B059
:1047C00070BD00BF20C00920C3FB010070B5174EAB
:1047D000326822B920210320FEF77AF83060144DA8
:1047E0002A6822B920210120FEF772F82860114CB6
:1047F000216821B903220120FEF76AF820604FF4F6
:10480000FA6240F6C3112020FFF77CFFFFF758FE45
:104810001620094A0121FCF703FE306828B12868F8
:1048200018B12068003018BF012070BDB8C607203D
:10483000B0C60720B4C60720E5480100037970B56B
:1048400003F0C003C02B0CBF0E4B0F4B01461D687D
:10485000002388B006461A462846FEF753F8044659
:1048600060B90346024669462846FEF753F92346D7
:10487000224631462846FEF745F80446204608B051
:1048800070BD00BFB0C60720B8C6072038B50446C3
:104890000D46FFF773FA237883420AD0E37843B9D1
:1048A00005F010FEBD2300F0030000FB0330FBF712
:1048B00032FFFFF7FDFDFFF7EFFDA9B22046FFF73E
:1048C0001BFEFFF70FFEFFF7FBFDFDF727FE02289B
:1048D00004D1034B00211868FEF7E8F8012038BD29
:1048E000B4C60720002307B502A941F8043D084BD0
:1048F0001868FEF7DBF8019B3BB14FF08052054B87
:104900001A60BFF34F8FBFF36F8F03B05DF804FBE6
:10491000B4C6072004ED00E038B504460D46FFF7A5
:1049200011FE48B1A9B22046FFF718FEFFF70AFEB4
:1049300008B9FFF70FFE012038BD042938B5054638
:104940000DD1041C18BF0124FEF7DCFD2CB14FF47F
:104950007A72002303F036FF2860204638BD002419
:10496000F2E7FFFF00B50C4B8DB009930B4B0C4ADF
:104970000B930C4B0A930CAB43F8102D00220492BE
:104980000FCB8DE80F00084B084A01216A20FFF782
:10499000A3FA0DB05DF804FBCD47010019490100F1
:1049A0003B4901008D4801003D480100C8FB010062
:1049B00008B5FDF7B3FD0F4B02285B6912D15A020F
:1049C0000CD5FFF7ABFC002300280B4814BF0122D5
:1049D0004FF0FF3219460068FEF79CF8BDE808402A
:1049E000FFF734BB5B02F9D5FFF798FC0028F5D13F
:1049F00008BD00BF00C00920B4C607201FB501A82C
:104A0000FCF724FA9DF8093003F00F009DF80830F8
:104A100003F01F031B0443EA40539DF8060000F017
:104A20001F0043EAC0239DF8050000F03F0043EA61
:104A300040139DF80400C0F344000343BDF80A008E
:104A4000400600F10840184305B05DF804FB30B59E
:104A500004460D1F131B0344032B0AD822F0030343
:104A6000194402F00302013B18440A44914205D163
:104A700030BD55F8043F44F8043BEBE711F8013B27
:104A800000F8013FF2E70244904200D1704700F87D
:104A9000011BF9E7024600F10B010020C30143EAC4
:104AA000500312F8010B03448A4203F0FF00F5D1D2
:104AB0007047036810B5044653B119460A4611F809
:104AC000010B1F2810D93A28F8D1591C8A4202D06C
:104AD0004FF0FF3010BD1B78303BD9B20129F7D819
:104AE00001321846226010BD002010BDF8B5056BDC
:104AF00000F13407044601232A463946407802F083
:104B00006CFBA0B9636AE269EB1A9342207101D38E
:104B10000020F8BDE678012EFAD9E36939461D4434
:104B20002A460123607802F058FB013EF3E701209A
:104B3000F8BD03790BB1FFF7D9BF18467047FFFFE7
:104B400070B50446FFF7F5FF054680BB2378032BBD
:104B500025D16379012B22D104F1340601464FF4AB
:104B600000723046FFF78FFF4AF65522A4F8322232
:104B70000F4A3146626302F1FF5202F500522032C1
:104B8000C4F8182262696078C4F81C222269C4F84B
:104B90002022226A0132226302F01FFB657100228B
:104BA0006078114602F035FB003018BF012070BD5F
:104BB00052526141036B70B58B4205460E4611D0CF
:104BC000FFF7B7FF044610B10124204670BD012352
:104BD000324605F13401687802F0E3FA0028F3D197
:104BE0002E63F2E70024F0E7002310B503714FF0C5
:104BF000FF3303630446FFF7DDFFA0B94AF65523F0
:104C0000B4F832229A4210D1D4F86A30084A23F01C
:104C10007F4393420AD0D4F8860020F07F40801A68
:104C200018BF012010BD032010BD022010BD00BF21
:104C3000464154000023F0B5036085B0074608469E
:104C40001546FFF736FF061EC0F2F1807D4B53F884
:104C50002640002C00F0ED80E06801F07DFC00288B
:104C600000F0E9803C6023786BB1607802F091FA43
:104C7000C10708D4002D00F0B78010F0040000D068
:104C80000A2005B0F0BD0023F0B22370607002F07E
:104C90006DFAC20700F1D1800DB14307F0D40021B5
:104CA0002046FFF7A1FF012840F0AC8021460022FA
:104CB00091F8F6310BB1D1F8FA314DF822300132CA
:104CC000042A01F11001F3D100265DF82650002DD1
:104CD00000F08C8029462046FFF786FF002840F030
:104CE0008680B4F83F30B3F5007F40F08980B4F897
:104CF0004A1001B9A16D94F84420E161531E012BC3
:104D0000E2707DD894F84160A670002E78D0731EB2
:104D1000334275D1B4F845E01EF00F0FA4F808E057
:104D20006ED1B4F8473003B9636DB4F84270002F08
:104D300066D04A4307EB1E101044834260D31B1A0F
:104D4000B3FBF6F3002B5BD040F6F576B3425BD9AC
:104D50004FF6F576B34294BF0226032602332F4462
:104D60002844032EA36125626762E0624ED1BEF142
:104D7000000F45D1226E9B00A26203F2FF13B1EB3C
:104D8000532F3DD34FF0FF33636123618023032E04
:104D9000637122D1B4F86430012B1ED1691C204606
:104DA000FFF708FFC8B94AF65523B4F832226071FC
:104DB0009A4212D1626B244B9A420ED103F1FF53F7
:104DC000D4F8182203F5005320339A4201BFD4F8D7
:104DD0001C326361D4F8203223611C4A2670138888
:104DE00001339BB21380E38000204AE702200136A2
:104DF000042E7FF46AAF032821D000283FF471AF5E
:104E00000D203EE70025F6E70126A7E7BEF1000FDB
:104E1000F6D0022E17444FEA43021CBFD21803F00B
:104E20000103A7620CBF134603EB5203A5E70B2057
:104E300027E70C2025E70F2023E7032021E70120A7
:104E40001FE700BFBCC6072052526141C4C60720FD
:104E500010B50446A8B103689BB11A788AB1D98805
:104E6000828891420DD1D86801F076FB58B1236851
:104E7000587802F08EF910F0010F14BF03200020C3
:104E800010BD092010BD0F2010BD50B10F2905D84D
:104E90004FF41A4323FA01F1CB0702D4C06801F0A2
:104EA0006EBB704783690239023B99423DBF8378EC
:104EB000C06A01FB0300002070470129F8B50746CE
:104EC0000C464BD98369994248D20378022B29D0EA
:104ED000032B34D0012B41D101EB5106416A01EB88
:104EE0005621FFF767FE10B14FF0FF30F8BD796A29
:104EF000C6F3080301363B4401EB5621384693F8CC
:104F00003450FFF757FE0028EED1C6F308063E44A2
:104F100096F83400E30745EA00204CBF0009C0F3CF
:104F20000B00F8BD416A01EB1421FFF743FE002896
:104F3000DAD1660006F4FF763E44B08EF8BD416AD1
:104F400001EBD411FFF736FE0028CDD1A40004F404
:104F5000FE743C44606B20F07040F8BD0120F8BD49
:104F600070B5044682680D46012AE18001D1022015
:104F700070BD036899698A42F9D2BAB919780329D0
:104F800001D1996A99B919898D42F0D2986AE26083
:104F90000028ECD0236800EB1510343305F00F0522
:104FA00003EB451520616561002070BD11460A467E
:104FB0009E783601B5421146206802D2FFF772FF93
:104FC000E5E7FFF77AFF431C024607D00128CED958
:104FD00023689B699842CAD2AD1BEBE7012070BDE4
:104FE0000129F8B505460C46164660D983699942F1
:104FF0005DD20378022B3AD0032B45D0012B54D13C
:1050000001EB5107416A01EB5721FFF7D3FD18BBB4
:10501000C7F3080314F001042B4417BF93F834209E
:10502000F2B202F00F0132011CBF02F0F0020A439B
:1050300083F834200123696A01372B7101EB572172
:105040002846FFF7B7FD38B9C7F308072F4434B136
:10505000C6F3071687F8346001232B71F8BD97F863
:105060003430C6F3032623F00F031E43F2E7416AF0
:1050700001EB1421FFF79EFD0028EDD1640004F43C
:10508000FF742C44A686E7E7416A01EBD411FFF7D1
:1050900091FD0028E0D1A40004F4FE7434342B59AF
:1050A00003F070431E432E51D6E70220D4E70220BE
:1050B000F8BDF8B505460F4671B90669E6B18369D2
:1050C0009E4228BF01263446AB6901349C4216D368
:1050D000012E13D8002408E0FFF7EFFE0128044654
:1050E00035D9013003D14FF0FF342046F8BDAB690C
:1050F0009C42FAD33E46E6E70126E4E70224214635
:105100002846FFF7DAFE30B1411CECD001281ED052
:10511000B442D9D1DEE76FF0704221462846FFF74E
:105120005FFF90B957B96B692C615A1CDDD0013B08
:105130006B616B7943F001036B71D6E72246394608
:105140002846FFF74DFF0028EDD00128CBD00124E1
:10515000CBE72DE9F843C68804460136B3B2894649
:1051600013B90420BDE8F8830369002BF9D016F0C9
:105170000F0807D1C16801330361006859B9038979
:105180009E42EED22368E680343303EB481363611A
:105190000020BDE8F8838778013F17EA1617F1D1A0
:1051A000FFF78BFE0128054602D80220BDE8F883F0
:1051B000421C02D10120BDE8F883206883699D422A
:1051C00027D3B9F1000FCCD0E168FFF772FF054695
:1051D000002831D00128E8D0431CEBD02068FFF72D
:1051E000A8FC01460028E5D120684FF40072343055
:1051F000FFF749FC226829461046FFF753FE4FF09F
:1052000001091063206883789F4209D3036BDF1B79
:105210000763E56029462068FFF744FE2061B1E797
:1052200080F80490FFF762FC0028C3D122680137A0
:10523000136B01331363E5E70720BDE8F883FFFF35
:105240002DE9F74F4FF0FF084FF6FF77064644462B
:10525000078431693068FFF7ADFC824600285ED1D3
:1052600075692B78002B76D0E52B06D0E97A01F012
:105270003F02090703D50F2A03D0378447E00F2ADE
:1052800054D1D6F81CB0BBF1000F41D058063CD524
:1052900003F0BF04F38895F80D8033846B7B43459E
:1052A00035D195F800A001202AF0400A0AF1FF3319
:1052B0004FF00D0A4FF000090AFB03FA274B19F8CB
:1052C0000320AA5A78B3104601F028F9BAF17F0FEB
:1052D00001901CD80AF101023BF81A00009201F07B
:1052E0001DF90199814212D1009A924609F10109F2
:1052F000B9F10D0FE2D12B78590603D510B13BF867
:105300001A3023B9013CE4B202E0A342C6D0FF2424
:1053100000213046FFF71DFF8246002899D05046F5
:1053200003B0BDE8F08FBA42E0D0F0E724B92846D8
:10533000FFF7B0FB4045F2D0B369DA7AD2079CD4CC
:1053400003F10B009842EAD015F8011B13F8012B6A
:105350009142F7D091E74FF0040AE0E74DFC0100DD
:105360002DE9F74F0B7807462F2B884601D05C2B91
:1053700001D108F101080024BC6098F800301F2B0F
:1053800000F2908021463846FFF7EAFD7C6103B0C9
:10539000BDE8F08F25F8020F464693E02028A04490
:1053A00034BF042400240BEB4602002E00F0A98039
:1053B00032F8021D202902D02E2940F0A680013E9D
:1053C000F3E701313BF81120202AFAD02E2AF8D039
:1053D00009B144F003044A4632F8020D2E2801D0E8
:1053E000013EF9D14FF0000A4FF0080955463BF84D
:1053F00011004A1C002800F09F80202804D02E288D
:1054000006D1B24200F08D8044F003041146EEE76D
:10541000CA4580F08980B24211D1B9F10B0F06D193
:1054200086E0B24203D044F0030400F28580AD0070
:10543000EDB232464FF00B094FF0080AE6E77F283D
:105440000DD90021019201F04BF8019A18B15D4B82
:10545000184410F8800C80B244F0020438B15A4B62
:1054600013F8011F002900F09F808142F8D15F20CE
:1054700044F00304B96901F80A000AF1010AC5E71A
:1054800045F00205F6E75A0781D47A69D37ADB063C
:1054900039D53968538B0978032904BF928A43EAC6
:1054A0000243BB6098F8003044462F2B08F10108F6
:1054B000F8D05C2BF6D00026D7F81CB004F1FF39E9
:1054C000ABF1020519F8010F06F101081F287FF65C
:1054D00065AF2F283FF462AF5C283FF45FAFB8F1AF
:1054E000810F0ED0012100F0FBFF50B17F283FF665
:1054F00051AF364911F8012F002A3FF44BAF8242D9
:10550000F8D1062043E7052041E7002520212BF8AC
:1055100016500B22B869FFF7B6FA0BEB460929467D
:1055200050E7CA45FFF479AFB9F10B0F7FF479AFBB
:105530004FF00B0944F00304BB691A78E52A04BF55
:1055400005221A70B9F1080F04BFAD00EDB205F0E5
:105550000C030C2B03D005F00302032A01D144F005
:105560000204A10709D405F00305012D08BF44F08A
:105570001004042B08BF44F00804BB690021DC724E
:105580003846FFF7EDFC10B93846FFF759FEBB6906
:10559000DB7A00283FF477AF04287FF4F8AE13F0ED
:1055A000040F08BF0520F2E6A0F1410119297FF69A
:1055B00067AFA0F1610119299EBF203845F00105B0
:1055C00080B257E7CDFB0100ACFC0100A3FC010059
:1055D0000C222DE9F043866987B0C769044631463D
:1055E0000DEB0200FFF733FA9DF81730DB0779D592
:1055F00000234FF00109DFF80882F372E3610B2208
:1056000003A93046FFF723FAB9F1050F4FD84B46EF
:10561000072203F00F0000F13001392988BF00F1A3
:105620003701013A01A810441B094170F1D17E20D5
:1056300006A9114401F8140C9A423DD0F15C2029CE
:1056400038D13344072A8FBF202106A9891811F8C1
:10565000141C98BF013203F8011B991B0729F1D9CB
:1056600000212046FFF77CFC0546A8BB2046FFF73B
:10567000E7FD054680BB09F10109B9F1640FBED110
:105680000725284607B0BDE8F083102102F0010588
:1056900005EB4303DD0348BF83EA080301394FEA02
:1056A0005202F3D130F8022F002AEED1B0E7B81E33
:1056B0004B46F7E70133BFE71346C2E7013616E072
:1056C00001261CE0074601212046FFF742FD054662
:1056D000E8B1042DD4D0D4E7042DD2D19DF81730F1
:1056E000F372E7619DF817309B07E9D5002637F87C
:1056F0001630002BE2D10D231936B6FBF3F600214C
:105700002046FFF72DFC05460028E2D10746216917
:105710002068FFF74FFA05460028DAD163691B7845
:10572000E52B01D0002BCDD10137BE42CBD1013EBC
:1057300049D0E1882046891BFFF712FC0546002866
:105740009FD1A069FFF7A6F94FF6FF790746DFF86A
:10575000B48021692068FFF72DFA0546002890D112
:105760000F226369D4F81CE0DA720D22F1B24D1EEB
:105770006A4305465F7318735883484518BF3EF85F
:10578000120015F808C005F1010518BF013223F811
:105790000C00002808BF48460D2DEED1484502D028
:1057A0003EF812200AB941F0400101221970236825
:1057B00000211A712046FFF7CCFC054600287FF433
:1057C00060AF013EC5D121692068FFF7F3F90546B6
:1057D00000287FF456AF202229466069FFF753F96D
:1057E0000B22A1696069FFF732F9A3696269DB7A6C
:1057F00003F018031373012223681A7141E700BFF5
:10580000211001004DFC0100012970B504460D4630
:1058100001D8022070BD83699942FAD2A3699D42E2
:1058200005D229462046FFF748FB064608B9002066
:1058300070BD0128EDD0411C10D000222946204621
:10584000FFF7CEFB58B963695A1C05D00133636179
:10585000637943F0010363713546DFE7012070BDD2
:10586000F0B585B0019004A840F8041D00911646DB
:10587000FFF71FF9051E2ADB174F57F825404CB1DB
:10588000E06800F067FE18B90224204605B0F0BDBC
:1058900000232370019989B9019C47F82540002C09
:1058A000F3D0012E15D16946002201A8FFF7C2F9F5
:1058B000044601460198FFF7E8FAE6E70023E8B25C
:1058C00001F80C3B00F03CFE0028DDD0E4E70B249F
:1058D000DBE70024D9E700BFBCC607202DE9F04371
:1058E000D1B0019190460646002800F08C8000233C
:1058F00002F01E02036001A906A8FFF79BF9054606
:10590000002874D103AB0C9301990FAB06A80D933B
:10591000FFF726FD0B9C10B9002C08BF062018F0DD
:105920001C0F08F01F073DD098B3042802D106A829
:10593000FFF74EFE47F0080748BB0B9C38073BD5E6
:10594000FFF75CF80023C4F80E000698E372E361E9
:105950000278B4F81A80032A08BFA28A6383A3825C
:105960004FF0010308BF48EA02480371B8F1000F85
:1059700022D04146D0F83090FFF746FF38B906985C
:1059800008F1FF3303614946FFF714F9A0B105465A
:105990002DE0E37A13F0110F33D118F0040FCDD0BE
:1059A000082524E00028F2D1E37AD90627D418F09C
:1059B000020F01D0DA0724D43B07069B48BF47F00B
:1059C00020071A6BB771F26100223462F271197804
:1059D000628B032904BFA18A42EA01423261E26973
:1059E0003360F2600022DB88B260B261B380294686
:1059F0000698FFF74AFA284651B0BDE8F08304251F
:105A0000F5E70725F3E70925F5E72DE9F74F9B466D
:105A10000023CBF80030044689461646FFF718FAF3
:105A2000054610B1294620684AE0E17939B120687D
:105A3000FFF72BFAE579284603B0BDE8F08FA3798C
:105A4000D80705D407212068FFF71FFA0725F2E7DA
:105A5000E368A768DF1BB74228BF374604F1240379
:105A600000930FB93946DEE7A268C2F30803002BA2
:105A700074D120688378013B03EA522313F0FF03BB
:105A800011D12AB92069012808D80225E571C9E792
:105A900061690193FFF711FA019BF4E7411C01D101
:105AA0000125F3E76061D4F800A0616950460193D5
:105AB000FFF7F8F9019B30B9022550462946E571F8
:105AC000FFF7E3F9B7E77E0A00EB030829D09AF85D
:105AD00002209919914288BFD61AF3B2424649462C
